{
	"contracts/operators.sol": {
		"Operators": {
			"abi": [
				{
					"inputs": [
						{
							"internalType": "uint256",
							"name": "a",
							"type": "uint256"
						},
						{
							"internalType": "uint256",
							"name": "b",
							"type": "uint256"
						}
					],
					"name": "addCalc",
					"outputs": [
						{
							"internalType": "uint256",
							"name": "",
							"type": "uint256"
						}
					],
					"stateMutability": "pure",
					"type": "function"
				},
				{
					"inputs": [
						{
							"internalType": "bool",
							"name": "a",
							"type": "bool"
						},
						{
							"internalType": "bool",
							"name": "b",
							"type": "bool"
						}
					],
					"name": "andConditionVerify",
					"outputs": [
						{
							"internalType": "bool",
							"name": "",
							"type": "bool"
						}
					],
					"stateMutability": "pure",
					"type": "function"
				},
				{
					"inputs": [
						{
							"internalType": "uint256",
							"name": "a",
							"type": "uint256"
						},
						{
							"internalType": "uint256",
							"name": "b",
							"type": "uint256"
						}
					],
					"name": "averageCalc",
					"outputs": [
						{
							"internalType": "uint256",
							"name": "",
							"type": "uint256"
						}
					],
					"stateMutability": "pure",
					"type": "function"
				},
				{
					"inputs": [
						{
							"internalType": "uint256",
							"name": "a",
							"type": "uint256"
						},
						{
							"internalType": "uint256",
							"name": "b",
							"type": "uint256"
						}
					],
					"name": "bigVerify",
					"outputs": [
						{
							"internalType": "bool",
							"name": "",
							"type": "bool"
						}
					],
					"stateMutability": "pure",
					"type": "function"
				},
				{
					"inputs": [
						{
							"internalType": "uint256",
							"name": "a",
							"type": "uint256"
						},
						{
							"internalType": "uint256",
							"name": "b",
							"type": "uint256"
						}
					],
					"name": "divisionCalc",
					"outputs": [
						{
							"internalType": "uint256",
							"name": "",
							"type": "uint256"
						}
					],
					"stateMutability": "pure",
					"type": "function"
				},
				{
					"inputs": [
						{
							"internalType": "uint256",
							"name": "a",
							"type": "uint256"
						},
						{
							"internalType": "uint256",
							"name": "b",
							"type": "uint256"
						}
					],
					"name": "equalVerify",
					"outputs": [
						{
							"internalType": "bool",
							"name": "",
							"type": "bool"
						}
					],
					"stateMutability": "pure",
					"type": "function"
				},
				{
					"inputs": [],
					"name": "getValue",
					"outputs": [
						{
							"internalType": "uint256",
							"name": "",
							"type": "uint256"
						}
					],
					"stateMutability": "view",
					"type": "function"
				},
				{
					"inputs": [
						{
							"internalType": "uint256",
							"name": "a",
							"type": "uint256"
						},
						{
							"internalType": "uint256",
							"name": "b",
							"type": "uint256"
						}
					],
					"name": "lessVerify",
					"outputs": [
						{
							"internalType": "bool",
							"name": "",
							"type": "bool"
						}
					],
					"stateMutability": "pure",
					"type": "function"
				},
				{
					"inputs": [
						{
							"internalType": "uint256",
							"name": "a",
							"type": "uint256"
						},
						{
							"internalType": "uint256",
							"name": "b",
							"type": "uint256"
						}
					],
					"name": "modulusCalc",
					"outputs": [
						{
							"internalType": "uint256",
							"name": "",
							"type": "uint256"
						}
					],
					"stateMutability": "pure",
					"type": "function"
				},
				{
					"inputs": [
						{
							"internalType": "uint256",
							"name": "a",
							"type": "uint256"
						},
						{
							"internalType": "uint256",
							"name": "b",
							"type": "uint256"
						}
					],
					"name": "multiplicationCalc",
					"outputs": [
						{
							"internalType": "uint256",
							"name": "",
							"type": "uint256"
						}
					],
					"stateMutability": "pure",
					"type": "function"
				},
				{
					"inputs": [
						{
							"internalType": "bool",
							"name": "a",
							"type": "bool"
						},
						{
							"internalType": "bool",
							"name": "b",
							"type": "bool"
						}
					],
					"name": "orConditionVerify",
					"outputs": [
						{
							"internalType": "bool",
							"name": "",
							"type": "bool"
						}
					],
					"stateMutability": "pure",
					"type": "function"
				},
				{
					"inputs": [
						{
							"internalType": "uint256",
							"name": "a",
							"type": "uint256"
						},
						{
							"internalType": "uint256",
							"name": "b",
							"type": "uint256"
						}
					],
					"name": "powerCalc",
					"outputs": [
						{
							"internalType": "uint256",
							"name": "",
							"type": "uint256"
						}
					],
					"stateMutability": "pure",
					"type": "function"
				},
				{
					"inputs": [
						{
							"internalType": "uint256",
							"name": "newValue",
							"type": "uint256"
						}
					],
					"name": "setValue",
					"outputs": [],
					"stateMutability": "nonpayable",
					"type": "function"
				},
				{
					"inputs": [
						{
							"internalType": "uint256",
							"name": "a",
							"type": "uint256"
						},
						{
							"internalType": "uint256",
							"name": "b",
							"type": "uint256"
						}
					],
					"name": "subtractionCal",
					"outputs": [
						{
							"internalType": "uint256",
							"name": "",
							"type": "uint256"
						}
					],
					"stateMutability": "pure",
					"type": "function"
				}
			],
			"devdoc": {
				"kind": "dev",
				"methods": {},
				"version": 1
			},
			"evm": {
				"assembly": "    /* \"contracts/operators.sol\":58:2114  contract Operators{... */\n  mstore(0x40, 0x80)\n  callvalue\n  dup1\n  iszero\n  tag_1\n  jumpi\n  revert(0x00, 0x00)\ntag_1:\n  pop\n  dataSize(sub_0)\n  dup1\n  dataOffset(sub_0)\n  0x00\n  codecopy\n  0x00\n  return\nstop\n\nsub_0: assembly {\n        /* \"contracts/operators.sol\":58:2114  contract Operators{... */\n      mstore(0x40, 0x80)\n      callvalue\n      dup1\n      iszero\n      tag_1\n      jumpi\n      revert(0x00, 0x00)\n    tag_1:\n      pop\n      jumpi(tag_2, lt(calldatasize, 0x04))\n      shr(0xe0, calldataload(0x00))\n      dup1\n      0xaff65ca8\n      gt\n      tag_17\n      jumpi\n      dup1\n      0xcb76b8f6\n      gt\n      tag_18\n      jumpi\n      dup1\n      0xcb76b8f6\n      eq\n      tag_13\n      jumpi\n      dup1\n      0xf318dee9\n      eq\n      tag_14\n      jumpi\n      dup1\n      0xf45c44ed\n      eq\n      tag_15\n      jumpi\n      dup1\n      0xf5b974be\n      eq\n      tag_16\n      jumpi\n      jump(tag_2)\n    tag_18:\n      dup1\n      0xaff65ca8\n      eq\n      tag_10\n      jumpi\n      dup1\n      0xc52246a3\n      eq\n      tag_11\n      jumpi\n      dup1\n      0xc6e01839\n      eq\n      tag_12\n      jumpi\n      jump(tag_2)\n    tag_17:\n      dup1\n      0x55241077\n      gt\n      tag_19\n      jumpi\n      dup1\n      0x55241077\n      eq\n      tag_6\n      jumpi\n      dup1\n      0x74e8cfa5\n      eq\n      tag_7\n      jumpi\n      dup1\n      0x9bb34a0d\n      eq\n      tag_8\n      jumpi\n      dup1\n      0xab96014e\n      eq\n      tag_9\n      jumpi\n      jump(tag_2)\n    tag_19:\n      dup1\n      0x1218c4a0\n      eq\n      tag_3\n      jumpi\n      dup1\n      0x20965255\n      eq\n      tag_4\n      jumpi\n      dup1\n      0x27c3536b\n      eq\n      tag_5\n      jumpi\n    tag_2:\n      revert(0x00, 0x00)\n        /* \"contracts/operators.sol\":982:1114  function averageCalc(uint256 a, uint256 b) public pure returns(uint256){... */\n    tag_3:\n      tag_20\n      0x04\n      dup1\n      calldatasize\n      sub\n      dup2\n      add\n      swap1\n      tag_21\n      swap2\n      swap1\n      tag_22\n      jump\t// in\n    tag_21:\n      tag_23\n      jump\t// in\n    tag_20:\n      mload(0x40)\n      tag_24\n      swap2\n      swap1\n      tag_25\n      jump\t// in\n    tag_24:\n      mload(0x40)\n      dup1\n      swap2\n      sub\n      swap1\n      return\n        /* \"contracts/operators.sol\":2028:2106  function getValue() public view returns (uint256){... */\n    tag_4:\n      tag_26\n      tag_27\n      jump\t// in\n    tag_26:\n      mload(0x40)\n      tag_28\n      swap2\n      swap1\n      tag_25\n      jump\t// in\n    tag_28:\n      mload(0x40)\n      dup1\n      swap2\n      sub\n      swap1\n      return\n        /* \"contracts/operators.sol\":1550:1678  function equalVerify(uint256 a, uint256 b) public pure returns(bool){... */\n    tag_5:\n      tag_29\n      0x04\n      dup1\n      calldatasize\n      sub\n      dup2\n      add\n      swap1\n      tag_30\n      swap2\n      swap1\n      tag_22\n      jump\t// in\n    tag_30:\n      tag_31\n      jump\t// in\n    tag_29:\n      mload(0x40)\n      tag_32\n      swap2\n      swap1\n      tag_33\n      jump\t// in\n    tag_32:\n      mload(0x40)\n      dup1\n      swap2\n      sub\n      swap1\n      return\n        /* \"contracts/operators.sol\":1863:2019  function setValue(uint256 newValue) public{... */\n    tag_6:\n      tag_34\n      0x04\n      dup1\n      calldatasize\n      sub\n      dup2\n      add\n      swap1\n      tag_35\n      swap2\n      swap1\n      tag_36\n      jump\t// in\n    tag_35:\n      tag_37\n      jump\t// in\n    tag_34:\n      stop\n        /* \"contracts/operators.sol\":1150:1279  function andConditionVerify(bool a, bool b) public pure returns(bool){... */\n    tag_7:\n      tag_38\n      0x04\n      dup1\n      calldatasize\n      sub\n      dup2\n      add\n      swap1\n      tag_39\n      swap2\n      swap1\n      tag_40\n      jump\t// in\n    tag_39:\n      tag_41\n      jump\t// in\n    tag_38:\n      mload(0x40)\n      tag_42\n      swap2\n      swap1\n      tag_33\n      jump\t// in\n    tag_42:\n      mload(0x40)\n      dup1\n      swap2\n      sub\n      swap1\n      return\n        /* \"contracts/operators.sol\":254:390  function subtractionCal(uint256 a, uint256 b) public pure returns(uint256){... */\n    tag_8:\n      tag_43\n      0x04\n      dup1\n      calldatasize\n      sub\n      dup2\n      add\n      swap1\n      tag_44\n      swap2\n      swap1\n      tag_22\n      jump\t// in\n    tag_44:\n      tag_45\n      jump\t// in\n    tag_43:\n      mload(0x40)\n      tag_46\n      swap2\n      swap1\n      tag_25\n      jump\t// in\n    tag_46:\n      mload(0x40)\n      dup1\n      swap2\n      sub\n      swap1\n      return\n        /* \"contracts/operators.sol\":849:976  function modulusCalc(uint256 a, uint256 b) public pure returns(uint256){... */\n    tag_9:\n      tag_47\n      0x04\n      dup1\n      calldatasize\n      sub\n      dup2\n      add\n      swap1\n      tag_48\n      swap2\n      swap1\n      tag_22\n      jump\t// in\n    tag_48:\n      tag_49\n      jump\t// in\n    tag_47:\n      mload(0x40)\n      tag_50\n      swap2\n      swap1\n      tag_25\n      jump\t// in\n    tag_50:\n      mload(0x40)\n      dup1\n      swap2\n      sub\n      swap1\n      return\n        /* \"contracts/operators.sol\":1285:1413  function orConditionVerify(bool a, bool b) public pure returns(bool){... */\n    tag_10:\n      tag_51\n      0x04\n      dup1\n      calldatasize\n      sub\n      dup2\n      add\n      swap1\n      tag_52\n      swap2\n      swap1\n      tag_40\n      jump\t// in\n    tag_52:\n      tag_53\n      jump\t// in\n    tag_51:\n      mload(0x40)\n      tag_54\n      swap2\n      swap1\n      tag_33\n      jump\t// in\n    tag_54:\n      mload(0x40)\n      dup1\n      swap2\n      sub\n      swap1\n      return\n        /* \"contracts/operators.sol\":705:843  function powerCalc(uint256 a, uint256 b) public pure returns(uint256){... */\n    tag_11:\n      tag_55\n      0x04\n      dup1\n      calldatasize\n      sub\n      dup2\n      add\n      swap1\n      tag_56\n      swap2\n      swap1\n      tag_22\n      jump\t// in\n    tag_56:\n      tag_57\n      jump\t// in\n    tag_55:\n      mload(0x40)\n      tag_58\n      swap2\n      swap1\n      tag_25\n      jump\t// in\n    tag_58:\n      mload(0x40)\n      dup1\n      swap2\n      sub\n      swap1\n      return\n        /* \"contracts/operators.sol\":1684:1810  function lessVerify(uint256 a, uint256 b) public pure returns(bool){... */\n    tag_12:\n      tag_59\n      0x04\n      dup1\n      calldatasize\n      sub\n      dup2\n      add\n      swap1\n      tag_60\n      swap2\n      swap1\n      tag_22\n      jump\t// in\n    tag_60:\n      tag_61\n      jump\t// in\n    tag_59:\n      mload(0x40)\n      tag_62\n      swap2\n      swap1\n      tag_33\n      jump\t// in\n    tag_62:\n      mload(0x40)\n      dup1\n      swap2\n      sub\n      swap1\n      return\n        /* \"contracts/operators.sol\":396:532  function multiplicationCalc(uint256 a, uint256 b) public pure returns(uint256){... */\n    tag_13:\n      tag_63\n      0x04\n      dup1\n      calldatasize\n      sub\n      dup2\n      add\n      swap1\n      tag_64\n      swap2\n      swap1\n      tag_22\n      jump\t// in\n    tag_64:\n      tag_65\n      jump\t// in\n    tag_63:\n      mload(0x40)\n      tag_66\n      swap2\n      swap1\n      tag_25\n      jump\t// in\n    tag_66:\n      mload(0x40)\n      dup1\n      swap2\n      sub\n      swap1\n      return\n        /* \"contracts/operators.sol\":538:666  function divisionCalc(uint256 a, uint256 b) public pure returns(uint256){... */\n    tag_14:\n      tag_67\n      0x04\n      dup1\n      calldatasize\n      sub\n      dup2\n      add\n      swap1\n      tag_68\n      swap2\n      swap1\n      tag_22\n      jump\t// in\n    tag_68:\n      tag_69\n      jump\t// in\n    tag_67:\n      mload(0x40)\n      tag_70\n      swap2\n      swap1\n      tag_25\n      jump\t// in\n    tag_70:\n      mload(0x40)\n      dup1\n      swap2\n      sub\n      swap1\n      return\n        /* \"contracts/operators.sol\":125:248  function addCalc(uint256 a, uint256 b) public pure returns(uint256){... */\n    tag_15:\n      tag_71\n      0x04\n      dup1\n      calldatasize\n      sub\n      dup2\n      add\n      swap1\n      tag_72\n      swap2\n      swap1\n      tag_22\n      jump\t// in\n    tag_72:\n      tag_73\n      jump\t// in\n    tag_71:\n      mload(0x40)\n      tag_74\n      swap2\n      swap1\n      tag_25\n      jump\t// in\n    tag_74:\n      mload(0x40)\n      dup1\n      swap2\n      sub\n      swap1\n      return\n        /* \"contracts/operators.sol\":1419:1544  function bigVerify(uint256 a, uint256 b) public pure returns(bool){... */\n    tag_16:\n      tag_75\n      0x04\n      dup1\n      calldatasize\n      sub\n      dup2\n      add\n      swap1\n      tag_76\n      swap2\n      swap1\n      tag_22\n      jump\t// in\n    tag_76:\n      tag_77\n      jump\t// in\n    tag_75:\n      mload(0x40)\n      tag_78\n      swap2\n      swap1\n      tag_33\n      jump\t// in\n    tag_78:\n      mload(0x40)\n      dup1\n      swap2\n      sub\n      swap1\n      return\n        /* \"contracts/operators.sol\":982:1114  function averageCalc(uint256 a, uint256 b) public pure returns(uint256){... */\n    tag_23:\n        /* \"contracts/operators.sol\":1045:1052  uint256 */\n      0x00\n        /* \"contracts/operators.sol\":1063:1074  uint256 avg */\n      0x00\n        /* \"contracts/operators.sol\":1086:1087  2 */\n      0x02\n        /* \"contracts/operators.sol\":1082:1083  b */\n      dup4\n        /* \"contracts/operators.sol\":1078:1079  a */\n      dup6\n        /* \"contracts/operators.sol\":1078:1083  a + b */\n      tag_80\n      swap2\n      swap1\n      tag_81\n      jump\t// in\n    tag_80:\n        /* \"contracts/operators.sol\":1077:1087  (a + b)/ 2 */\n      tag_82\n      swap2\n      swap1\n      tag_83\n      jump\t// in\n    tag_82:\n        /* \"contracts/operators.sol\":1063:1087  uint256 avg = (a + b)/ 2 */\n      swap1\n      pop\n        /* \"contracts/operators.sol\":1104:1107  avg */\n      dup1\n        /* \"contracts/operators.sol\":1097:1107  return avg */\n      swap2\n      pop\n      pop\n        /* \"contracts/operators.sol\":982:1114  function averageCalc(uint256 a, uint256 b) public pure returns(uint256){... */\n      swap3\n      swap2\n      pop\n      pop\n      jump\t// out\n        /* \"contracts/operators.sol\":2028:2106  function getValue() public view returns (uint256){... */\n    tag_27:\n        /* \"contracts/operators.sol\":2069:2076  uint256 */\n      0x00\n        /* \"contracts/operators.sol\":2094:2099  value */\n      sload(0x00)\n        /* \"contracts/operators.sol\":2087:2099  return value */\n      swap1\n      pop\n        /* \"contracts/operators.sol\":2028:2106  function getValue() public view returns (uint256){... */\n      swap1\n      jump\t// out\n        /* \"contracts/operators.sol\":1550:1678  function equalVerify(uint256 a, uint256 b) public pure returns(bool){... */\n    tag_31:\n        /* \"contracts/operators.sol\":1613:1617  bool */\n      0x00\n        /* \"contracts/operators.sol\":1628:1639  bool result */\n      0x00\n        /* \"contracts/operators.sol\":1647:1648  b */\n      dup3\n        /* \"contracts/operators.sol\":1642:1643  a */\n      dup5\n        /* \"contracts/operators.sol\":1642:1648  a == b */\n      eq\n        /* \"contracts/operators.sol\":1628:1648  bool result = a == b */\n      swap1\n      pop\n        /* \"contracts/operators.sol\":1665:1671  result */\n      dup1\n        /* \"contracts/operators.sol\":1658:1671  return result */\n      swap2\n      pop\n      pop\n        /* \"contracts/operators.sol\":1550:1678  function equalVerify(uint256 a, uint256 b) public pure returns(bool){... */\n      swap3\n      swap2\n      pop\n      pop\n      jump\t// out\n        /* \"contracts/operators.sol\":1863:2019  function setValue(uint256 newValue) public{... */\n    tag_37:\n        /* \"contracts/operators.sol\":1931:1933  10 */\n      0x0a\n        /* \"contracts/operators.sol\":1919:1927  newValue */\n      dup2\n        /* \"contracts/operators.sol\":1919:1933  newValue >= 10 */\n      lt\n        /* \"contracts/operators.sol\":1915:2013  if (newValue >= 10){... */\n      tag_87\n      jumpi\n        /* \"contracts/operators.sol\":1956:1964  newValue */\n      dup1\n        /* \"contracts/operators.sol\":1948:1953  value */\n      0x00\n        /* \"contracts/operators.sol\":1948:1964  value = newValue */\n      dup2\n      swap1\n      sstore\n      pop\n        /* \"contracts/operators.sol\":1915:2013  if (newValue >= 10){... */\n      jump(tag_88)\n    tag_87:\n        /* \"contracts/operators.sol\":2001:2002  0 */\n      0x00\n        /* \"contracts/operators.sol\":1993:1998  value */\n      0x00\n        /* \"contracts/operators.sol\":1993:2002  value = 0 */\n      dup2\n      swap1\n      sstore\n      pop\n        /* \"contracts/operators.sol\":1915:2013  if (newValue >= 10){... */\n    tag_88:\n        /* \"contracts/operators.sol\":1863:2019  function setValue(uint256 newValue) public{... */\n      pop\n      jump\t// out\n        /* \"contracts/operators.sol\":1150:1279  function andConditionVerify(bool a, bool b) public pure returns(bool){... */\n    tag_41:\n        /* \"contracts/operators.sol\":1214:1218  bool */\n      0x00\n        /* \"contracts/operators.sol\":1229:1240  bool result */\n      0x00\n        /* \"contracts/operators.sol\":1243:1244  a */\n      dup4\n        /* \"contracts/operators.sol\":1243:1249  a && b */\n      dup1\n      iszero\n      tag_90\n      jumpi\n      pop\n        /* \"contracts/operators.sol\":1248:1249  b */\n      dup3\n        /* \"contracts/operators.sol\":1243:1249  a && b */\n    tag_90:\n        /* \"contracts/operators.sol\":1229:1249  bool result = a && b */\n      swap1\n      pop\n        /* \"contracts/operators.sol\":1266:1272  result */\n      dup1\n        /* \"contracts/operators.sol\":1259:1272  return result */\n      swap2\n      pop\n      pop\n        /* \"contracts/operators.sol\":1150:1279  function andConditionVerify(bool a, bool b) public pure returns(bool){... */\n      swap3\n      swap2\n      pop\n      pop\n      jump\t// out\n        /* \"contracts/operators.sol\":254:390  function subtractionCal(uint256 a, uint256 b) public pure returns(uint256){... */\n    tag_45:\n        /* \"contracts/operators.sol\":320:327  uint256 */\n      0x00\n        /* \"contracts/operators.sol\":338:352  uint256 result */\n      0x00\n        /* \"contracts/operators.sol\":359:360  b */\n      dup3\n        /* \"contracts/operators.sol\":355:356  a */\n      dup5\n        /* \"contracts/operators.sol\":355:360  a - b */\n      tag_92\n      swap2\n      swap1\n      tag_93\n      jump\t// in\n    tag_92:\n        /* \"contracts/operators.sol\":338:360  uint256 result = a - b */\n      swap1\n      pop\n        /* \"contracts/operators.sol\":377:383  result */\n      dup1\n        /* \"contracts/operators.sol\":370:383  return result */\n      swap2\n      pop\n      pop\n        /* \"contracts/operators.sol\":254:390  function subtractionCal(uint256 a, uint256 b) public pure returns(uint256){... */\n      swap3\n      swap2\n      pop\n      pop\n      jump\t// out\n        /* \"contracts/operators.sol\":849:976  function modulusCalc(uint256 a, uint256 b) public pure returns(uint256){... */\n    tag_49:\n        /* \"contracts/operators.sol\":912:919  uint256 */\n      0x00\n        /* \"contracts/operators.sol\":930:941  uint256 mod */\n      0x00\n        /* \"contracts/operators.sol\":948:949  b */\n      dup3\n        /* \"contracts/operators.sol\":944:945  a */\n      dup5\n        /* \"contracts/operators.sol\":944:949  a % b */\n      tag_95\n      swap2\n      swap1\n      tag_96\n      jump\t// in\n    tag_95:\n        /* \"contracts/operators.sol\":930:949  uint256 mod = a % b */\n      swap1\n      pop\n        /* \"contracts/operators.sol\":966:969  mod */\n      dup1\n        /* \"contracts/operators.sol\":959:969  return mod */\n      swap2\n      pop\n      pop\n        /* \"contracts/operators.sol\":849:976  function modulusCalc(uint256 a, uint256 b) public pure returns(uint256){... */\n      swap3\n      swap2\n      pop\n      pop\n      jump\t// out\n        /* \"contracts/operators.sol\":1285:1413  function orConditionVerify(bool a, bool b) public pure returns(bool){... */\n    tag_53:\n        /* \"contracts/operators.sol\":1348:1352  bool */\n      0x00\n        /* \"contracts/operators.sol\":1363:1374  bool result */\n      0x00\n        /* \"contracts/operators.sol\":1377:1378  a */\n      dup4\n        /* \"contracts/operators.sol\":1377:1383  a || b */\n      dup1\n      tag_98\n      jumpi\n      pop\n        /* \"contracts/operators.sol\":1382:1383  b */\n      dup3\n        /* \"contracts/operators.sol\":1377:1383  a || b */\n    tag_98:\n        /* \"contracts/operators.sol\":1363:1383  bool result = a || b */\n      swap1\n      pop\n        /* \"contracts/operators.sol\":1400:1406  result */\n      dup1\n        /* \"contracts/operators.sol\":1393:1406  return result */\n      swap2\n      pop\n      pop\n        /* \"contracts/operators.sol\":1285:1413  function orConditionVerify(bool a, bool b) public pure returns(bool){... */\n      swap3\n      swap2\n      pop\n      pop\n      jump\t// out\n        /* \"contracts/operators.sol\":705:843  function powerCalc(uint256 a, uint256 b) public pure returns(uint256){... */\n    tag_57:\n        /* \"contracts/operators.sol\":766:773  uint256 */\n      0x00\n        /* \"contracts/operators.sol\":788:799  uint256 pow */\n      0x00\n        /* \"contracts/operators.sol\":807:808  b */\n      dup3\n        /* \"contracts/operators.sol\":802:803  a */\n      dup5\n        /* \"contracts/operators.sol\":802:808  a ** b */\n      tag_100\n      swap2\n      swap1\n      tag_101\n      jump\t// in\n    tag_100:\n        /* \"contracts/operators.sol\":788:808  uint256 pow = a ** b */\n      swap1\n      pop\n        /* \"contracts/operators.sol\":829:832  pow */\n      dup1\n        /* \"contracts/operators.sol\":822:832  return pow */\n      swap2\n      pop\n      pop\n        /* \"contracts/operators.sol\":705:843  function powerCalc(uint256 a, uint256 b) public pure returns(uint256){... */\n      swap3\n      swap2\n      pop\n      pop\n      jump\t// out\n        /* \"contracts/operators.sol\":1684:1810  function lessVerify(uint256 a, uint256 b) public pure returns(bool){... */\n    tag_61:\n        /* \"contracts/operators.sol\":1746:1750  bool */\n      0x00\n        /* \"contracts/operators.sol\":1761:1772  bool result */\n      0x00\n        /* \"contracts/operators.sol\":1779:1780  b */\n      dup3\n        /* \"contracts/operators.sol\":1775:1776  a */\n      dup5\n        /* \"contracts/operators.sol\":1775:1780  a < b */\n      lt\n        /* \"contracts/operators.sol\":1761:1780  bool result = a < b */\n      swap1\n      pop\n        /* \"contracts/operators.sol\":1797:1803  result */\n      dup1\n        /* \"contracts/operators.sol\":1790:1803  return result */\n      swap2\n      pop\n      pop\n        /* \"contracts/operators.sol\":1684:1810  function lessVerify(uint256 a, uint256 b) public pure returns(bool){... */\n      swap3\n      swap2\n      pop\n      pop\n      jump\t// out\n        /* \"contracts/operators.sol\":396:532  function multiplicationCalc(uint256 a, uint256 b) public pure returns(uint256){... */\n    tag_65:\n        /* \"contracts/operators.sol\":466:473  uint256 */\n      0x00\n        /* \"contracts/operators.sol\":484:496  uint256 mult */\n      0x00\n        /* \"contracts/operators.sol\":503:504  b */\n      dup3\n        /* \"contracts/operators.sol\":499:500  a */\n      dup5\n        /* \"contracts/operators.sol\":499:504  a * b */\n      tag_104\n      swap2\n      swap1\n      tag_105\n      jump\t// in\n    tag_104:\n        /* \"contracts/operators.sol\":484:504  uint256 mult = a * b */\n      swap1\n      pop\n        /* \"contracts/operators.sol\":521:525  mult */\n      dup1\n        /* \"contracts/operators.sol\":514:525  return mult */\n      swap2\n      pop\n      pop\n        /* \"contracts/operators.sol\":396:532  function multiplicationCalc(uint256 a, uint256 b) public pure returns(uint256){... */\n      swap3\n      swap2\n      pop\n      pop\n      jump\t// out\n        /* \"contracts/operators.sol\":538:666  function divisionCalc(uint256 a, uint256 b) public pure returns(uint256){... */\n    tag_69:\n        /* \"contracts/operators.sol\":602:609  uint256 */\n      0x00\n        /* \"contracts/operators.sol\":620:631  uint256 div */\n      0x00\n        /* \"contracts/operators.sol\":638:639  b */\n      dup3\n        /* \"contracts/operators.sol\":634:635  a */\n      dup5\n        /* \"contracts/operators.sol\":634:639  a / b */\n      tag_107\n      swap2\n      swap1\n      tag_83\n      jump\t// in\n    tag_107:\n        /* \"contracts/operators.sol\":620:639  uint256 div = a / b */\n      swap1\n      pop\n        /* \"contracts/operators.sol\":656:659  div */\n      dup1\n        /* \"contracts/operators.sol\":649:659  return div */\n      swap2\n      pop\n      pop\n        /* \"contracts/operators.sol\":538:666  function divisionCalc(uint256 a, uint256 b) public pure returns(uint256){... */\n      swap3\n      swap2\n      pop\n      pop\n      jump\t// out\n        /* \"contracts/operators.sol\":125:248  function addCalc(uint256 a, uint256 b) public pure returns(uint256){... */\n    tag_73:\n        /* \"contracts/operators.sol\":184:191  uint256 */\n      0x00\n        /* \"contracts/operators.sol\":202:213  uint256 sum */\n      0x00\n        /* \"contracts/operators.sol\":220:221  b */\n      dup3\n        /* \"contracts/operators.sol\":216:217  a */\n      dup5\n        /* \"contracts/operators.sol\":216:221  a + b */\n      tag_109\n      swap2\n      swap1\n      tag_81\n      jump\t// in\n    tag_109:\n        /* \"contracts/operators.sol\":202:221  uint256 sum = a + b */\n      swap1\n      pop\n        /* \"contracts/operators.sol\":238:241  sum */\n      dup1\n        /* \"contracts/operators.sol\":231:241  return sum */\n      swap2\n      pop\n      pop\n        /* \"contracts/operators.sol\":125:248  function addCalc(uint256 a, uint256 b) public pure returns(uint256){... */\n      swap3\n      swap2\n      pop\n      pop\n      jump\t// out\n        /* \"contracts/operators.sol\":1419:1544  function bigVerify(uint256 a, uint256 b) public pure returns(bool){... */\n    tag_77:\n        /* \"contracts/operators.sol\":1480:1484  bool */\n      0x00\n        /* \"contracts/operators.sol\":1495:1506  bool result */\n      0x00\n        /* \"contracts/operators.sol\":1513:1514  b */\n      dup3\n        /* \"contracts/operators.sol\":1509:1510  a */\n      dup5\n        /* \"contracts/operators.sol\":1509:1514  a > b */\n      gt\n        /* \"contracts/operators.sol\":1495:1514  bool result = a > b */\n      swap1\n      pop\n        /* \"contracts/operators.sol\":1531:1537  result */\n      dup1\n        /* \"contracts/operators.sol\":1524:1537  return result */\n      swap2\n      pop\n      pop\n        /* \"contracts/operators.sol\":1419:1544  function bigVerify(uint256 a, uint256 b) public pure returns(bool){... */\n      swap3\n      swap2\n      pop\n      pop\n      jump\t// out\n        /* \"#utility.yul\":88:205   */\n    tag_112:\n        /* \"#utility.yul\":197:198   */\n      0x00\n        /* \"#utility.yul\":194:195   */\n      0x00\n        /* \"#utility.yul\":187:199   */\n      revert\n        /* \"#utility.yul\":334:411   */\n    tag_114:\n        /* \"#utility.yul\":371:378   */\n      0x00\n        /* \"#utility.yul\":400:405   */\n      dup2\n        /* \"#utility.yul\":389:405   */\n      swap1\n      pop\n        /* \"#utility.yul\":334:411   */\n      swap2\n      swap1\n      pop\n      jump\t// out\n        /* \"#utility.yul\":417:539   */\n    tag_115:\n        /* \"#utility.yul\":490:514   */\n      tag_133\n        /* \"#utility.yul\":508:513   */\n      dup2\n        /* \"#utility.yul\":490:514   */\n      tag_114\n      jump\t// in\n    tag_133:\n        /* \"#utility.yul\":483:488   */\n      dup2\n        /* \"#utility.yul\":480:515   */\n      eq\n        /* \"#utility.yul\":470:533   */\n      tag_134\n      jumpi\n        /* \"#utility.yul\":529:530   */\n      0x00\n        /* \"#utility.yul\":526:527   */\n      0x00\n        /* \"#utility.yul\":519:531   */\n      revert\n        /* \"#utility.yul\":470:533   */\n    tag_134:\n        /* \"#utility.yul\":417:539   */\n      pop\n      jump\t// out\n        /* \"#utility.yul\":545:684   */\n    tag_116:\n        /* \"#utility.yul\":591:596   */\n      0x00\n        /* \"#utility.yul\":629:635   */\n      dup2\n        /* \"#utility.yul\":616:636   */\n      calldataload\n        /* \"#utility.yul\":607:636   */\n      swap1\n      pop\n        /* \"#utility.yul\":645:678   */\n      tag_136\n        /* \"#utility.yul\":672:677   */\n      dup2\n        /* \"#utility.yul\":645:678   */\n      tag_115\n      jump\t// in\n    tag_136:\n        /* \"#utility.yul\":545:684   */\n      swap3\n      swap2\n      pop\n      pop\n      jump\t// out\n        /* \"#utility.yul\":690:1164   */\n    tag_22:\n        /* \"#utility.yul\":758:764   */\n      0x00\n        /* \"#utility.yul\":766:772   */\n      0x00\n        /* \"#utility.yul\":815:817   */\n      0x40\n        /* \"#utility.yul\":803:812   */\n      dup4\n        /* \"#utility.yul\":794:801   */\n      dup6\n        /* \"#utility.yul\":790:813   */\n      sub\n        /* \"#utility.yul\":786:818   */\n      slt\n        /* \"#utility.yul\":783:902   */\n      iszero\n      tag_138\n      jumpi\n        /* \"#utility.yul\":821:900   */\n      tag_139\n      tag_112\n      jump\t// in\n    tag_139:\n        /* \"#utility.yul\":783:902   */\n    tag_138:\n        /* \"#utility.yul\":941:942   */\n      0x00\n        /* \"#utility.yul\":966:1019   */\n      tag_140\n        /* \"#utility.yul\":1011:1018   */\n      dup6\n        /* \"#utility.yul\":1002:1008   */\n      dup3\n        /* \"#utility.yul\":991:1000   */\n      dup7\n        /* \"#utility.yul\":987:1009   */\n      add\n        /* \"#utility.yul\":966:1019   */\n      tag_116\n      jump\t// in\n    tag_140:\n        /* \"#utility.yul\":956:1019   */\n      swap3\n      pop\n        /* \"#utility.yul\":912:1029   */\n      pop\n        /* \"#utility.yul\":1068:1070   */\n      0x20\n        /* \"#utility.yul\":1094:1147   */\n      tag_141\n        /* \"#utility.yul\":1139:1146   */\n      dup6\n        /* \"#utility.yul\":1130:1136   */\n      dup3\n        /* \"#utility.yul\":1119:1128   */\n      dup7\n        /* \"#utility.yul\":1115:1137   */\n      add\n        /* \"#utility.yul\":1094:1147   */\n      tag_116\n      jump\t// in\n    tag_141:\n        /* \"#utility.yul\":1084:1147   */\n      swap2\n      pop\n        /* \"#utility.yul\":1039:1157   */\n      pop\n        /* \"#utility.yul\":690:1164   */\n      swap3\n      pop\n      swap3\n      swap1\n      pop\n      jump\t// out\n        /* \"#utility.yul\":1170:1288   */\n    tag_117:\n        /* \"#utility.yul\":1257:1281   */\n      tag_143\n        /* \"#utility.yul\":1275:1280   */\n      dup2\n        /* \"#utility.yul\":1257:1281   */\n      tag_114\n      jump\t// in\n    tag_143:\n        /* \"#utility.yul\":1252:1255   */\n      dup3\n        /* \"#utility.yul\":1245:1282   */\n      mstore\n        /* \"#utility.yul\":1170:1288   */\n      pop\n      pop\n      jump\t// out\n        /* \"#utility.yul\":1294:1516   */\n    tag_25:\n        /* \"#utility.yul\":1387:1391   */\n      0x00\n        /* \"#utility.yul\":1425:1427   */\n      0x20\n        /* \"#utility.yul\":1414:1423   */\n      dup3\n        /* \"#utility.yul\":1410:1428   */\n      add\n        /* \"#utility.yul\":1402:1428   */\n      swap1\n      pop\n        /* \"#utility.yul\":1438:1509   */\n      tag_145\n        /* \"#utility.yul\":1506:1507   */\n      0x00\n        /* \"#utility.yul\":1495:1504   */\n      dup4\n        /* \"#utility.yul\":1491:1508   */\n      add\n        /* \"#utility.yul\":1482:1488   */\n      dup5\n        /* \"#utility.yul\":1438:1509   */\n      tag_117\n      jump\t// in\n    tag_145:\n        /* \"#utility.yul\":1294:1516   */\n      swap3\n      swap2\n      pop\n      pop\n      jump\t// out\n        /* \"#utility.yul\":1522:1612   */\n    tag_118:\n        /* \"#utility.yul\":1556:1563   */\n      0x00\n        /* \"#utility.yul\":1599:1604   */\n      dup2\n        /* \"#utility.yul\":1592:1605   */\n      iszero\n        /* \"#utility.yul\":1585:1606   */\n      iszero\n        /* \"#utility.yul\":1574:1606   */\n      swap1\n      pop\n        /* \"#utility.yul\":1522:1612   */\n      swap2\n      swap1\n      pop\n      jump\t// out\n        /* \"#utility.yul\":1618:1727   */\n    tag_119:\n        /* \"#utility.yul\":1699:1720   */\n      tag_148\n        /* \"#utility.yul\":1714:1719   */\n      dup2\n        /* \"#utility.yul\":1699:1720   */\n      tag_118\n      jump\t// in\n    tag_148:\n        /* \"#utility.yul\":1694:1697   */\n      dup3\n        /* \"#utility.yul\":1687:1721   */\n      mstore\n        /* \"#utility.yul\":1618:1727   */\n      pop\n      pop\n      jump\t// out\n        /* \"#utility.yul\":1733:1943   */\n    tag_33:\n        /* \"#utility.yul\":1820:1824   */\n      0x00\n        /* \"#utility.yul\":1858:1860   */\n      0x20\n        /* \"#utility.yul\":1847:1856   */\n      dup3\n        /* \"#utility.yul\":1843:1861   */\n      add\n        /* \"#utility.yul\":1835:1861   */\n      swap1\n      pop\n        /* \"#utility.yul\":1871:1936   */\n      tag_150\n        /* \"#utility.yul\":1933:1934   */\n      0x00\n        /* \"#utility.yul\":1922:1931   */\n      dup4\n        /* \"#utility.yul\":1918:1935   */\n      add\n        /* \"#utility.yul\":1909:1915   */\n      dup5\n        /* \"#utility.yul\":1871:1936   */\n      tag_119\n      jump\t// in\n    tag_150:\n        /* \"#utility.yul\":1733:1943   */\n      swap3\n      swap2\n      pop\n      pop\n      jump\t// out\n        /* \"#utility.yul\":1949:2278   */\n    tag_36:\n        /* \"#utility.yul\":2008:2014   */\n      0x00\n        /* \"#utility.yul\":2057:2059   */\n      0x20\n        /* \"#utility.yul\":2045:2054   */\n      dup3\n        /* \"#utility.yul\":2036:2043   */\n      dup5\n        /* \"#utility.yul\":2032:2055   */\n      sub\n        /* \"#utility.yul\":2028:2060   */\n      slt\n        /* \"#utility.yul\":2025:2144   */\n      iszero\n      tag_152\n      jumpi\n        /* \"#utility.yul\":2063:2142   */\n      tag_153\n      tag_112\n      jump\t// in\n    tag_153:\n        /* \"#utility.yul\":2025:2144   */\n    tag_152:\n        /* \"#utility.yul\":2183:2184   */\n      0x00\n        /* \"#utility.yul\":2208:2261   */\n      tag_154\n        /* \"#utility.yul\":2253:2260   */\n      dup5\n        /* \"#utility.yul\":2244:2250   */\n      dup3\n        /* \"#utility.yul\":2233:2242   */\n      dup6\n        /* \"#utility.yul\":2229:2251   */\n      add\n        /* \"#utility.yul\":2208:2261   */\n      tag_116\n      jump\t// in\n    tag_154:\n        /* \"#utility.yul\":2198:2261   */\n      swap2\n      pop\n        /* \"#utility.yul\":2154:2271   */\n      pop\n        /* \"#utility.yul\":1949:2278   */\n      swap3\n      swap2\n      pop\n      pop\n      jump\t// out\n        /* \"#utility.yul\":2284:2400   */\n    tag_120:\n        /* \"#utility.yul\":2354:2375   */\n      tag_156\n        /* \"#utility.yul\":2369:2374   */\n      dup2\n        /* \"#utility.yul\":2354:2375   */\n      tag_118\n      jump\t// in\n    tag_156:\n        /* \"#utility.yul\":2347:2352   */\n      dup2\n        /* \"#utility.yul\":2344:2376   */\n      eq\n        /* \"#utility.yul\":2334:2394   */\n      tag_157\n      jumpi\n        /* \"#utility.yul\":2390:2391   */\n      0x00\n        /* \"#utility.yul\":2387:2388   */\n      0x00\n        /* \"#utility.yul\":2380:2392   */\n      revert\n        /* \"#utility.yul\":2334:2394   */\n    tag_157:\n        /* \"#utility.yul\":2284:2400   */\n      pop\n      jump\t// out\n        /* \"#utility.yul\":2406:2539   */\n    tag_121:\n        /* \"#utility.yul\":2449:2454   */\n      0x00\n        /* \"#utility.yul\":2487:2493   */\n      dup2\n        /* \"#utility.yul\":2474:2494   */\n      calldataload\n        /* \"#utility.yul\":2465:2494   */\n      swap1\n      pop\n        /* \"#utility.yul\":2503:2533   */\n      tag_159\n        /* \"#utility.yul\":2527:2532   */\n      dup2\n        /* \"#utility.yul\":2503:2533   */\n      tag_120\n      jump\t// in\n    tag_159:\n        /* \"#utility.yul\":2406:2539   */\n      swap3\n      swap2\n      pop\n      pop\n      jump\t// out\n        /* \"#utility.yul\":2545:3007   */\n    tag_40:\n        /* \"#utility.yul\":2607:2613   */\n      0x00\n        /* \"#utility.yul\":2615:2621   */\n      0x00\n        /* \"#utility.yul\":2664:2666   */\n      0x40\n        /* \"#utility.yul\":2652:2661   */\n      dup4\n        /* \"#utility.yul\":2643:2650   */\n      dup6\n        /* \"#utility.yul\":2639:2662   */\n      sub\n        /* \"#utility.yul\":2635:2667   */\n      slt\n        /* \"#utility.yul\":2632:2751   */\n      iszero\n      tag_161\n      jumpi\n        /* \"#utility.yul\":2670:2749   */\n      tag_162\n      tag_112\n      jump\t// in\n    tag_162:\n        /* \"#utility.yul\":2632:2751   */\n    tag_161:\n        /* \"#utility.yul\":2790:2791   */\n      0x00\n        /* \"#utility.yul\":2815:2865   */\n      tag_163\n        /* \"#utility.yul\":2857:2864   */\n      dup6\n        /* \"#utility.yul\":2848:2854   */\n      dup3\n        /* \"#utility.yul\":2837:2846   */\n      dup7\n        /* \"#utility.yul\":2833:2855   */\n      add\n        /* \"#utility.yul\":2815:2865   */\n      tag_121\n      jump\t// in\n    tag_163:\n        /* \"#utility.yul\":2805:2865   */\n      swap3\n      pop\n        /* \"#utility.yul\":2761:2875   */\n      pop\n        /* \"#utility.yul\":2914:2916   */\n      0x20\n        /* \"#utility.yul\":2940:2990   */\n      tag_164\n        /* \"#utility.yul\":2982:2989   */\n      dup6\n        /* \"#utility.yul\":2973:2979   */\n      dup3\n        /* \"#utility.yul\":2962:2971   */\n      dup7\n        /* \"#utility.yul\":2958:2980   */\n      add\n        /* \"#utility.yul\":2940:2990   */\n      tag_121\n      jump\t// in\n    tag_164:\n        /* \"#utility.yul\":2930:2990   */\n      swap2\n      pop\n        /* \"#utility.yul\":2885:3000   */\n      pop\n        /* \"#utility.yul\":2545:3007   */\n      swap3\n      pop\n      swap3\n      swap1\n      pop\n      jump\t// out\n        /* \"#utility.yul\":3013:3193   */\n    tag_122:\n        /* \"#utility.yul\":3061:3138   */\n      0x4e487b7100000000000000000000000000000000000000000000000000000000\n        /* \"#utility.yul\":3058:3059   */\n      0x00\n        /* \"#utility.yul\":3051:3139   */\n      mstore\n        /* \"#utility.yul\":3158:3162   */\n      0x11\n        /* \"#utility.yul\":3155:3156   */\n      0x04\n        /* \"#utility.yul\":3148:3163   */\n      mstore\n        /* \"#utility.yul\":3182:3186   */\n      0x24\n        /* \"#utility.yul\":3179:3180   */\n      0x00\n        /* \"#utility.yul\":3172:3187   */\n      revert\n        /* \"#utility.yul\":3199:3390   */\n    tag_81:\n        /* \"#utility.yul\":3239:3242   */\n      0x00\n        /* \"#utility.yul\":3258:3278   */\n      tag_167\n        /* \"#utility.yul\":3276:3277   */\n      dup3\n        /* \"#utility.yul\":3258:3278   */\n      tag_114\n      jump\t// in\n    tag_167:\n        /* \"#utility.yul\":3253:3278   */\n      swap2\n      pop\n        /* \"#utility.yul\":3292:3312   */\n      tag_168\n        /* \"#utility.yul\":3310:3311   */\n      dup4\n        /* \"#utility.yul\":3292:3312   */\n      tag_114\n      jump\t// in\n    tag_168:\n        /* \"#utility.yul\":3287:3312   */\n      swap3\n      pop\n        /* \"#utility.yul\":3335:3336   */\n      dup3\n        /* \"#utility.yul\":3332:3333   */\n      dup3\n        /* \"#utility.yul\":3328:3337   */\n      add\n        /* \"#utility.yul\":3321:3337   */\n      swap1\n      pop\n        /* \"#utility.yul\":3356:3359   */\n      dup1\n        /* \"#utility.yul\":3353:3354   */\n      dup3\n        /* \"#utility.yul\":3350:3360   */\n      gt\n        /* \"#utility.yul\":3347:3383   */\n      iszero\n      tag_169\n      jumpi\n        /* \"#utility.yul\":3363:3381   */\n      tag_170\n      tag_122\n      jump\t// in\n    tag_170:\n        /* \"#utility.yul\":3347:3383   */\n    tag_169:\n        /* \"#utility.yul\":3199:3390   */\n      swap3\n      swap2\n      pop\n      pop\n      jump\t// out\n        /* \"#utility.yul\":3396:3576   */\n    tag_123:\n        /* \"#utility.yul\":3444:3521   */\n      0x4e487b7100000000000000000000000000000000000000000000000000000000\n        /* \"#utility.yul\":3441:3442   */\n      0x00\n        /* \"#utility.yul\":3434:3522   */\n      mstore\n        /* \"#utility.yul\":3541:3545   */\n      0x12\n        /* \"#utility.yul\":3538:3539   */\n      0x04\n        /* \"#utility.yul\":3531:3546   */\n      mstore\n        /* \"#utility.yul\":3565:3569   */\n      0x24\n        /* \"#utility.yul\":3562:3563   */\n      0x00\n        /* \"#utility.yul\":3555:3570   */\n      revert\n        /* \"#utility.yul\":3582:3767   */\n    tag_83:\n        /* \"#utility.yul\":3622:3623   */\n      0x00\n        /* \"#utility.yul\":3639:3659   */\n      tag_173\n        /* \"#utility.yul\":3657:3658   */\n      dup3\n        /* \"#utility.yul\":3639:3659   */\n      tag_114\n      jump\t// in\n    tag_173:\n        /* \"#utility.yul\":3634:3659   */\n      swap2\n      pop\n        /* \"#utility.yul\":3673:3693   */\n      tag_174\n        /* \"#utility.yul\":3691:3692   */\n      dup4\n        /* \"#utility.yul\":3673:3693   */\n      tag_114\n      jump\t// in\n    tag_174:\n        /* \"#utility.yul\":3668:3693   */\n      swap3\n      pop\n        /* \"#utility.yul\":3712:3713   */\n      dup3\n        /* \"#utility.yul\":3702:3737   */\n      tag_175\n      jumpi\n        /* \"#utility.yul\":3717:3735   */\n      tag_176\n      tag_123\n      jump\t// in\n    tag_176:\n        /* \"#utility.yul\":3702:3737   */\n    tag_175:\n        /* \"#utility.yul\":3759:3760   */\n      dup3\n        /* \"#utility.yul\":3756:3757   */\n      dup3\n        /* \"#utility.yul\":3752:3761   */\n      div\n        /* \"#utility.yul\":3747:3761   */\n      swap1\n      pop\n        /* \"#utility.yul\":3582:3767   */\n      swap3\n      swap2\n      pop\n      pop\n      jump\t// out\n        /* \"#utility.yul\":3773:3967   */\n    tag_93:\n        /* \"#utility.yul\":3813:3817   */\n      0x00\n        /* \"#utility.yul\":3833:3853   */\n      tag_178\n        /* \"#utility.yul\":3851:3852   */\n      dup3\n        /* \"#utility.yul\":3833:3853   */\n      tag_114\n      jump\t// in\n    tag_178:\n        /* \"#utility.yul\":3828:3853   */\n      swap2\n      pop\n        /* \"#utility.yul\":3867:3887   */\n      tag_179\n        /* \"#utility.yul\":3885:3886   */\n      dup4\n        /* \"#utility.yul\":3867:3887   */\n      tag_114\n      jump\t// in\n    tag_179:\n        /* \"#utility.yul\":3862:3887   */\n      swap3\n      pop\n        /* \"#utility.yul\":3911:3912   */\n      dup3\n        /* \"#utility.yul\":3908:3909   */\n      dup3\n        /* \"#utility.yul\":3904:3913   */\n      sub\n        /* \"#utility.yul\":3896:3913   */\n      swap1\n      pop\n        /* \"#utility.yul\":3935:3936   */\n      dup2\n        /* \"#utility.yul\":3929:3933   */\n      dup2\n        /* \"#utility.yul\":3926:3937   */\n      gt\n        /* \"#utility.yul\":3923:3960   */\n      iszero\n      tag_180\n      jumpi\n        /* \"#utility.yul\":3940:3958   */\n      tag_181\n      tag_122\n      jump\t// in\n    tag_181:\n        /* \"#utility.yul\":3923:3960   */\n    tag_180:\n        /* \"#utility.yul\":3773:3967   */\n      swap3\n      swap2\n      pop\n      pop\n      jump\t// out\n        /* \"#utility.yul\":3973:4149   */\n    tag_96:\n        /* \"#utility.yul\":4005:4006   */\n      0x00\n        /* \"#utility.yul\":4022:4042   */\n      tag_183\n        /* \"#utility.yul\":4040:4041   */\n      dup3\n        /* \"#utility.yul\":4022:4042   */\n      tag_114\n      jump\t// in\n    tag_183:\n        /* \"#utility.yul\":4017:4042   */\n      swap2\n      pop\n        /* \"#utility.yul\":4056:4076   */\n      tag_184\n        /* \"#utility.yul\":4074:4075   */\n      dup4\n        /* \"#utility.yul\":4056:4076   */\n      tag_114\n      jump\t// in\n    tag_184:\n        /* \"#utility.yul\":4051:4076   */\n      swap3\n      pop\n        /* \"#utility.yul\":4095:4096   */\n      dup3\n        /* \"#utility.yul\":4085:4120   */\n      tag_185\n      jumpi\n        /* \"#utility.yul\":4100:4118   */\n      tag_186\n      tag_123\n      jump\t// in\n    tag_186:\n        /* \"#utility.yul\":4085:4120   */\n    tag_185:\n        /* \"#utility.yul\":4141:4142   */\n      dup3\n        /* \"#utility.yul\":4138:4139   */\n      dup3\n        /* \"#utility.yul\":4134:4143   */\n      mod\n        /* \"#utility.yul\":4129:4143   */\n      swap1\n      pop\n        /* \"#utility.yul\":3973:4149   */\n      swap3\n      swap2\n      pop\n      pop\n      jump\t// out\n        /* \"#utility.yul\":4155:4257   */\n    tag_124:\n        /* \"#utility.yul\":4197:4205   */\n      0x00\n        /* \"#utility.yul\":4244:4249   */\n      dup2\n        /* \"#utility.yul\":4241:4242   */\n      0x01\n        /* \"#utility.yul\":4237:4250   */\n      shr\n        /* \"#utility.yul\":4216:4250   */\n      swap1\n      pop\n        /* \"#utility.yul\":4155:4257   */\n      swap2\n      swap1\n      pop\n      jump\t// out\n        /* \"#utility.yul\":4263:5111   */\n    tag_125:\n        /* \"#utility.yul\":4324:4329   */\n      0x00\n        /* \"#utility.yul\":4331:4335   */\n      0x00\n        /* \"#utility.yul\":4355:4361   */\n      dup3\n        /* \"#utility.yul\":4346:4361   */\n      swap2\n      pop\n        /* \"#utility.yul\":4379:4384   */\n      dup4\n        /* \"#utility.yul\":4370:4384   */\n      swap1\n      pop\n        /* \"#utility.yul\":4393:5105   */\n    tag_189:\n        /* \"#utility.yul\":4414:4415   */\n      0x01\n        /* \"#utility.yul\":4404:4412   */\n      dup6\n        /* \"#utility.yul\":4401:4416   */\n      gt\n        /* \"#utility.yul\":4393:5105   */\n      iszero\n      tag_191\n      jumpi\n        /* \"#utility.yul\":4509:4513   */\n      dup1\n        /* \"#utility.yul\":4504:4507   */\n      dup7\n        /* \"#utility.yul\":4500:4514   */\n      div\n        /* \"#utility.yul\":4494:4498   */\n      dup2\n        /* \"#utility.yul\":4491:4515   */\n      gt\n        /* \"#utility.yul\":4488:4538   */\n      iszero\n      tag_192\n      jumpi\n        /* \"#utility.yul\":4518:4536   */\n      tag_193\n      tag_122\n      jump\t// in\n    tag_193:\n        /* \"#utility.yul\":4488:4538   */\n    tag_192:\n        /* \"#utility.yul\":4568:4569   */\n      0x01\n        /* \"#utility.yul\":4558:4566   */\n      dup6\n        /* \"#utility.yul\":4554:4570   */\n      and\n        /* \"#utility.yul\":4551:5002   */\n      iszero\n      tag_194\n      jumpi\n        /* \"#utility.yul\":4983:4987   */\n      dup1\n        /* \"#utility.yul\":4976:4981   */\n      dup3\n        /* \"#utility.yul\":4972:4988   */\n      mul\n        /* \"#utility.yul\":4963:4988   */\n      swap2\n      pop\n        /* \"#utility.yul\":4551:5002   */\n    tag_194:\n        /* \"#utility.yul\":5033:5037   */\n      dup1\n        /* \"#utility.yul\":5027:5031   */\n      dup2\n        /* \"#utility.yul\":5023:5038   */\n      mul\n        /* \"#utility.yul\":5015:5038   */\n      swap1\n      pop\n        /* \"#utility.yul\":5063:5095   */\n      tag_195\n        /* \"#utility.yul\":5086:5094   */\n      dup6\n        /* \"#utility.yul\":5063:5095   */\n      tag_124\n      jump\t// in\n    tag_195:\n        /* \"#utility.yul\":5051:5095   */\n      swap5\n      pop\n        /* \"#utility.yul\":4393:5105   */\n      jump(tag_189)\n    tag_191:\n        /* \"#utility.yul\":4263:5111   */\n      swap5\n      pop\n      swap5\n      swap3\n      pop\n      pop\n      pop\n      jump\t// out\n        /* \"#utility.yul\":5117:6190   */\n    tag_126:\n        /* \"#utility.yul\":5171:5176   */\n      0x00\n        /* \"#utility.yul\":5362:5370   */\n      dup3\n        /* \"#utility.yul\":5352:5392   */\n      tag_197\n      jumpi\n        /* \"#utility.yul\":5383:5384   */\n      0x01\n        /* \"#utility.yul\":5374:5384   */\n      swap1\n      pop\n        /* \"#utility.yul\":5385:5390   */\n      jump(tag_196)\n        /* \"#utility.yul\":5352:5392   */\n    tag_197:\n        /* \"#utility.yul\":5411:5415   */\n      dup2\n        /* \"#utility.yul\":5401:5437   */\n      tag_198\n      jumpi\n        /* \"#utility.yul\":5428:5429   */\n      0x00\n        /* \"#utility.yul\":5419:5429   */\n      swap1\n      pop\n        /* \"#utility.yul\":5430:5435   */\n      jump(tag_196)\n        /* \"#utility.yul\":5401:5437   */\n    tag_198:\n        /* \"#utility.yul\":5497:5501   */\n      dup2\n        /* \"#utility.yul\":5545:5546   */\n      0x01\n        /* \"#utility.yul\":5540:5567   */\n      dup2\n      eq\n      tag_200\n      jumpi\n        /* \"#utility.yul\":5581:5582   */\n      0x02\n        /* \"#utility.yul\":5576:5767   */\n      dup2\n      eq\n      tag_201\n      jumpi\n        /* \"#utility.yul\":5490:5767   */\n      jump(tag_199)\n        /* \"#utility.yul\":5540:5567   */\n    tag_200:\n        /* \"#utility.yul\":5558:5559   */\n      0x01\n        /* \"#utility.yul\":5549:5559   */\n      swap2\n      pop\n        /* \"#utility.yul\":5560:5565   */\n      pop\n      jump(tag_196)\n        /* \"#utility.yul\":5576:5767   */\n    tag_201:\n        /* \"#utility.yul\":5621:5624   */\n      0xff\n        /* \"#utility.yul\":5611:5619   */\n      dup5\n        /* \"#utility.yul\":5608:5625   */\n      gt\n        /* \"#utility.yul\":5605:5648   */\n      iszero\n      tag_202\n      jumpi\n        /* \"#utility.yul\":5628:5646   */\n      tag_203\n      tag_122\n      jump\t// in\n    tag_203:\n        /* \"#utility.yul\":5605:5648   */\n    tag_202:\n        /* \"#utility.yul\":5677:5685   */\n      dup4\n        /* \"#utility.yul\":5674:5675   */\n      0x02\n        /* \"#utility.yul\":5670:5686   */\n      exp\n        /* \"#utility.yul\":5661:5686   */\n      swap2\n      pop\n        /* \"#utility.yul\":5712:5715   */\n      dup5\n        /* \"#utility.yul\":5705:5710   */\n      dup3\n        /* \"#utility.yul\":5702:5716   */\n      gt\n        /* \"#utility.yul\":5699:5739   */\n      iszero\n      tag_204\n      jumpi\n        /* \"#utility.yul\":5719:5737   */\n      tag_205\n      tag_122\n      jump\t// in\n    tag_205:\n        /* \"#utility.yul\":5699:5739   */\n    tag_204:\n        /* \"#utility.yul\":5752:5757   */\n      pop\n      jump(tag_196)\n        /* \"#utility.yul\":5490:5767   */\n    tag_199:\n      pop\n        /* \"#utility.yul\":5876:5878   */\n      0x20\n        /* \"#utility.yul\":5866:5874   */\n      dup4\n        /* \"#utility.yul\":5863:5879   */\n      lt\n        /* \"#utility.yul\":5857:5860   */\n      0x0133\n        /* \"#utility.yul\":5851:5855   */\n      dup4\n        /* \"#utility.yul\":5848:5861   */\n      lt\n        /* \"#utility.yul\":5844:5880   */\n      and\n        /* \"#utility.yul\":5826:5828   */\n      0x4e\n        /* \"#utility.yul\":5816:5824   */\n      dup5\n        /* \"#utility.yul\":5813:5829   */\n      lt\n        /* \"#utility.yul\":5808:5810   */\n      0x0b\n        /* \"#utility.yul\":5802:5806   */\n      dup5\n        /* \"#utility.yul\":5799:5811   */\n      lt\n        /* \"#utility.yul\":5795:5830   */\n      and\n        /* \"#utility.yul\":5779:5890   */\n      or\n        /* \"#utility.yul\":5776:6022   */\n      iszero\n      tag_206\n      jumpi\n        /* \"#utility.yul\":5932:5940   */\n      dup3\n        /* \"#utility.yul\":5926:5930   */\n      dup3\n        /* \"#utility.yul\":5922:5941   */\n      exp\n        /* \"#utility.yul\":5913:5941   */\n      swap1\n      pop\n        /* \"#utility.yul\":5967:5970   */\n      dup4\n        /* \"#utility.yul\":5960:5965   */\n      dup2\n        /* \"#utility.yul\":5957:5971   */\n      gt\n        /* \"#utility.yul\":5954:5994   */\n      iszero\n      tag_207\n      jumpi\n        /* \"#utility.yul\":5974:5992   */\n      tag_208\n      tag_122\n      jump\t// in\n    tag_208:\n        /* \"#utility.yul\":5954:5994   */\n    tag_207:\n        /* \"#utility.yul\":6007:6012   */\n      jump(tag_196)\n        /* \"#utility.yul\":5776:6022   */\n    tag_206:\n        /* \"#utility.yul\":6047:6089   */\n      tag_209\n        /* \"#utility.yul\":6085:6088   */\n      dup5\n        /* \"#utility.yul\":6075:6083   */\n      dup5\n        /* \"#utility.yul\":6069:6073   */\n      dup5\n        /* \"#utility.yul\":6066:6067   */\n      0x01\n        /* \"#utility.yul\":6047:6089   */\n      tag_125\n      jump\t// in\n    tag_209:\n        /* \"#utility.yul\":6032:6089   */\n      swap3\n      pop\n      swap1\n      pop\n        /* \"#utility.yul\":6121:6125   */\n      dup2\n        /* \"#utility.yul\":6116:6119   */\n      dup5\n        /* \"#utility.yul\":6112:6126   */\n      div\n        /* \"#utility.yul\":6105:6110   */\n      dup2\n        /* \"#utility.yul\":6102:6127   */\n      gt\n        /* \"#utility.yul\":6099:6150   */\n      iszero\n      tag_210\n      jumpi\n        /* \"#utility.yul\":6130:6148   */\n      tag_211\n      tag_122\n      jump\t// in\n    tag_211:\n        /* \"#utility.yul\":6099:6150   */\n    tag_210:\n        /* \"#utility.yul\":6179:6183   */\n      dup2\n        /* \"#utility.yul\":6172:6177   */\n      dup2\n        /* \"#utility.yul\":6168:6184   */\n      mul\n        /* \"#utility.yul\":6159:6184   */\n      swap1\n      pop\n        /* \"#utility.yul\":5117:6190   */\n    tag_196:\n      swap4\n      swap3\n      pop\n      pop\n      pop\n      jump\t// out\n        /* \"#utility.yul\":6196:6481   */\n    tag_101:\n        /* \"#utility.yul\":6256:6261   */\n      0x00\n        /* \"#utility.yul\":6280:6303   */\n      tag_213\n        /* \"#utility.yul\":6298:6302   */\n      dup3\n        /* \"#utility.yul\":6280:6303   */\n      tag_114\n      jump\t// in\n    tag_213:\n        /* \"#utility.yul\":6272:6303   */\n      swap2\n      pop\n        /* \"#utility.yul\":6324:6351   */\n      tag_214\n        /* \"#utility.yul\":6342:6350   */\n      dup4\n        /* \"#utility.yul\":6324:6351   */\n      tag_114\n      jump\t// in\n    tag_214:\n        /* \"#utility.yul\":6312:6351   */\n      swap3\n      pop\n        /* \"#utility.yul\":6370:6474   */\n      tag_215\n        /* \"#utility.yul\":6407:6473   */\n      0xffffffffffffffffffffffffffffffffffffffffffffffffffffffffffffffff\n        /* \"#utility.yul\":6397:6405   */\n      dup5\n        /* \"#utility.yul\":6391:6395   */\n      dup5\n        /* \"#utility.yul\":6370:6474   */\n      tag_126\n      jump\t// in\n    tag_215:\n        /* \"#utility.yul\":6361:6474   */\n      swap1\n      pop\n        /* \"#utility.yul\":6196:6481   */\n      swap3\n      swap2\n      pop\n      pop\n      jump\t// out\n        /* \"#utility.yul\":6487:6897   */\n    tag_105:\n        /* \"#utility.yul\":6527:6534   */\n      0x00\n        /* \"#utility.yul\":6550:6570   */\n      tag_217\n        /* \"#utility.yul\":6568:6569   */\n      dup3\n        /* \"#utility.yul\":6550:6570   */\n      tag_114\n      jump\t// in\n    tag_217:\n        /* \"#utility.yul\":6545:6570   */\n      swap2\n      pop\n        /* \"#utility.yul\":6584:6604   */\n      tag_218\n        /* \"#utility.yul\":6602:6603   */\n      dup4\n        /* \"#utility.yul\":6584:6604   */\n      tag_114\n      jump\t// in\n    tag_218:\n        /* \"#utility.yul\":6579:6604   */\n      swap3\n      pop\n        /* \"#utility.yul\":6639:6640   */\n      dup3\n        /* \"#utility.yul\":6636:6637   */\n      dup3\n        /* \"#utility.yul\":6632:6641   */\n      mul\n        /* \"#utility.yul\":6661:6691   */\n      tag_219\n        /* \"#utility.yul\":6679:6690   */\n      dup2\n        /* \"#utility.yul\":6661:6691   */\n      tag_114\n      jump\t// in\n    tag_219:\n        /* \"#utility.yul\":6650:6691   */\n      swap2\n      pop\n        /* \"#utility.yul\":6840:6841   */\n      dup3\n        /* \"#utility.yul\":6831:6838   */\n      dup3\n        /* \"#utility.yul\":6827:6842   */\n      div\n        /* \"#utility.yul\":6824:6825   */\n      dup5\n        /* \"#utility.yul\":6821:6843   */\n      eq\n        /* \"#utility.yul\":6801:6802   */\n      dup4\n        /* \"#utility.yul\":6794:6803   */\n      iszero\n        /* \"#utility.yul\":6774:6857   */\n      or\n        /* \"#utility.yul\":6751:6890   */\n      tag_220\n      jumpi\n        /* \"#utility.yul\":6870:6888   */\n      tag_221\n      tag_122\n      jump\t// in\n    tag_221:\n        /* \"#utility.yul\":6751:6890   */\n    tag_220:\n        /* \"#utility.yul\":6535:6897   */\n      pop\n        /* \"#utility.yul\":6487:6897   */\n      swap3\n      swap2\n      pop\n      pop\n      jump\t// out\n\n    auxdata: 0xa26469706673582212206a664c19520b260589125072299d7807718c482020fd51d4c3a4fde31fc0f28664736f6c634300081c0033\n}\n",
				"bytecode": {
					"linkReferences": {},
					"object": "6080604052348015600e575f5ffd5b506109228061001c5f395ff3fe608060405234801561000f575f5ffd5b50600436106100e8575f3560e01c8063aff65ca81161008a578063cb76b8f611610064578063cb76b8f6146102a6578063f318dee9146102d6578063f45c44ed14610306578063f5b974be14610336576100e8565b8063aff65ca814610216578063c52246a314610246578063c6e0183914610276576100e8565b806355241077116100c6578063552410771461016a57806374e8cfa5146101865780639bb34a0d146101b6578063ab96014e146101e6576100e8565b80631218c4a0146100ec578063209652551461011c57806327c3536b1461013a575b5f5ffd5b610106600480360381019061010191906104e6565b610366565b6040516101139190610533565b60405180910390f35b61012461038c565b6040516101319190610533565b60405180910390f35b610154600480360381019061014f91906104e6565b610394565b6040516101619190610566565b60405180910390f35b610184600480360381019061017f919061057f565b6103a5565b005b6101a0600480360381019061019b91906105d4565b6103c2565b6040516101ad9190610566565b60405180910390f35b6101d060048036038101906101cb91906104e6565b6103da565b6040516101dd9190610533565b60405180910390f35b61020060048036038101906101fb91906104e6565b6103f4565b60405161020d9190610533565b60405180910390f35b610230600480360381019061022b91906105d4565b61040e565b60405161023d9190610566565b60405180910390f35b610260600480360381019061025b91906104e6565b610425565b60405161026d9190610533565b60405180910390f35b610290600480360381019061028b91906104e6565b61043f565b60405161029d9190610566565b60405180910390f35b6102c060048036038101906102bb91906104e6565b610450565b6040516102cd9190610533565b60405180910390f35b6102f060048036038101906102eb91906104e6565b61046a565b6040516102fd9190610533565b60405180910390f35b610320600480360381019061031b91906104e6565b610484565b60405161032d9190610533565b60405180910390f35b610350600480360381019061034b91906104e6565b61049e565b60405161035d9190610566565b60405180910390f35b5f5f60028385610376919061063f565b610380919061069f565b90508091505092915050565b5f5f54905090565b5f5f82841490508091505092915050565b600a81106103b857805f819055506103bf565b5f5f819055505b50565b5f5f8380156103ce5750825b90508091505092915050565b5f5f82846103e891906106cf565b90508091505092915050565b5f5f82846104029190610702565b90508091505092915050565b5f5f83806104195750825b90508091505092915050565b5f5f82846104339190610861565b90508091505092915050565b5f5f82841090508091505092915050565b5f5f828461045e91906108ab565b90508091505092915050565b5f5f8284610478919061069f565b90508091505092915050565b5f5f8284610492919061063f565b90508091505092915050565b5f5f82841190508091505092915050565b5f5ffd5b5f819050919050565b6104c5816104b3565b81146104cf575f5ffd5b50565b5f813590506104e0816104bc565b92915050565b5f5f604083850312156104fc576104fb6104af565b5b5f610509858286016104d2565b925050602061051a858286016104d2565b9150509250929050565b61052d816104b3565b82525050565b5f6020820190506105465f830184610524565b92915050565b5f8115159050919050565b6105608161054c565b82525050565b5f6020820190506105795f830184610557565b92915050565b5f60208284031215610594576105936104af565b5b5f6105a1848285016104d2565b91505092915050565b6105b38161054c565b81146105bd575f5ffd5b50565b5f813590506105ce816105aa565b92915050565b5f5f604083850312156105ea576105e96104af565b5b5f6105f7858286016105c0565b9250506020610608858286016105c0565b9150509250929050565b7f4e487b71000000000000000000000000000000000000000000000000000000005f52601160045260245ffd5b5f610649826104b3565b9150610654836104b3565b925082820190508082111561066c5761066b610612565b5b92915050565b7f4e487b71000000000000000000000000000000000000000000000000000000005f52601260045260245ffd5b5f6106a9826104b3565b91506106b4836104b3565b9250826106c4576106c3610672565b5b828204905092915050565b5f6106d9826104b3565b91506106e4836104b3565b92508282039050818111156106fc576106fb610612565b5b92915050565b5f61070c826104b3565b9150610717836104b3565b92508261072757610726610672565b5b828206905092915050565b5f8160011c9050919050565b5f5f8291508390505b60018511156107875780860481111561076357610762610612565b5b60018516156107725780820291505b808102905061078085610732565b9450610747565b94509492505050565b5f8261079f576001905061085a565b816107ac575f905061085a565b81600181146107c257600281146107cc576107fb565b600191505061085a565b60ff8411156107de576107dd610612565b5b8360020a9150848211156107f5576107f4610612565b5b5061085a565b5060208310610133831016604e8410600b84101617156108305782820a90508381111561082b5761082a610612565b5b61085a565b61083d848484600161073e565b9250905081840481111561085457610853610612565b5b81810290505b9392505050565b5f61086b826104b3565b9150610876836104b3565b92506108a37fffffffffffffffffffffffffffffffffffffffffffffffffffffffffffffffff8484610790565b905092915050565b5f6108b5826104b3565b91506108c0836104b3565b92508282026108ce816104b3565b915082820484148315176108e5576108e4610612565b5b509291505056fea26469706673582212206a664c19520b260589125072299d7807718c482020fd51d4c3a4fde31fc0f28664736f6c634300081c0033",
					"opcodes": "PUSH1 0x80 PUSH1 0x40 MSTORE CALLVALUE DUP1 ISZERO PUSH1 0xE JUMPI PUSH0 PUSH0 REVERT JUMPDEST POP PUSH2 0x922 DUP1 PUSH2 0x1C PUSH0 CODECOPY PUSH0 RETURN INVALID PUSH1 0x80 PUSH1 0x40 MSTORE CALLVALUE DUP1 ISZERO PUSH2 0xF JUMPI PUSH0 PUSH0 REVERT JUMPDEST POP PUSH1 0x4 CALLDATASIZE LT PUSH2 0xE8 JUMPI PUSH0 CALLDATALOAD PUSH1 0xE0 SHR DUP1 PUSH4 0xAFF65CA8 GT PUSH2 0x8A JUMPI DUP1 PUSH4 0xCB76B8F6 GT PUSH2 0x64 JUMPI DUP1 PUSH4 0xCB76B8F6 EQ PUSH2 0x2A6 JUMPI DUP1 PUSH4 0xF318DEE9 EQ PUSH2 0x2D6 JUMPI DUP1 PUSH4 0xF45C44ED EQ PUSH2 0x306 JUMPI DUP1 PUSH4 0xF5B974BE EQ PUSH2 0x336 JUMPI PUSH2 0xE8 JUMP JUMPDEST DUP1 PUSH4 0xAFF65CA8 EQ PUSH2 0x216 JUMPI DUP1 PUSH4 0xC52246A3 EQ PUSH2 0x246 JUMPI DUP1 PUSH4 0xC6E01839 EQ PUSH2 0x276 JUMPI PUSH2 0xE8 JUMP JUMPDEST DUP1 PUSH4 0x55241077 GT PUSH2 0xC6 JUMPI DUP1 PUSH4 0x55241077 EQ PUSH2 0x16A JUMPI DUP1 PUSH4 0x74E8CFA5 EQ PUSH2 0x186 JUMPI DUP1 PUSH4 0x9BB34A0D EQ PUSH2 0x1B6 JUMPI DUP1 PUSH4 0xAB96014E EQ PUSH2 0x1E6 JUMPI PUSH2 0xE8 JUMP JUMPDEST DUP1 PUSH4 0x1218C4A0 EQ PUSH2 0xEC JUMPI DUP1 PUSH4 0x20965255 EQ PUSH2 0x11C JUMPI DUP1 PUSH4 0x27C3536B EQ PUSH2 0x13A JUMPI JUMPDEST PUSH0 PUSH0 REVERT JUMPDEST PUSH2 0x106 PUSH1 0x4 DUP1 CALLDATASIZE SUB DUP2 ADD SWAP1 PUSH2 0x101 SWAP2 SWAP1 PUSH2 0x4E6 JUMP JUMPDEST PUSH2 0x366 JUMP JUMPDEST PUSH1 0x40 MLOAD PUSH2 0x113 SWAP2 SWAP1 PUSH2 0x533 JUMP JUMPDEST PUSH1 0x40 MLOAD DUP1 SWAP2 SUB SWAP1 RETURN JUMPDEST PUSH2 0x124 PUSH2 0x38C JUMP JUMPDEST PUSH1 0x40 MLOAD PUSH2 0x131 SWAP2 SWAP1 PUSH2 0x533 JUMP JUMPDEST PUSH1 0x40 MLOAD DUP1 SWAP2 SUB SWAP1 RETURN JUMPDEST PUSH2 0x154 PUSH1 0x4 DUP1 CALLDATASIZE SUB DUP2 ADD SWAP1 PUSH2 0x14F SWAP2 SWAP1 PUSH2 0x4E6 JUMP JUMPDEST PUSH2 0x394 JUMP JUMPDEST PUSH1 0x40 MLOAD PUSH2 0x161 SWAP2 SWAP1 PUSH2 0x566 JUMP JUMPDEST PUSH1 0x40 MLOAD DUP1 SWAP2 SUB SWAP1 RETURN JUMPDEST PUSH2 0x184 PUSH1 0x4 DUP1 CALLDATASIZE SUB DUP2 ADD SWAP1 PUSH2 0x17F SWAP2 SWAP1 PUSH2 0x57F JUMP JUMPDEST PUSH2 0x3A5 JUMP JUMPDEST STOP JUMPDEST PUSH2 0x1A0 PUSH1 0x4 DUP1 CALLDATASIZE SUB DUP2 ADD SWAP1 PUSH2 0x19B SWAP2 SWAP1 PUSH2 0x5D4 JUMP JUMPDEST PUSH2 0x3C2 JUMP JUMPDEST PUSH1 0x40 MLOAD PUSH2 0x1AD SWAP2 SWAP1 PUSH2 0x566 JUMP JUMPDEST PUSH1 0x40 MLOAD DUP1 SWAP2 SUB SWAP1 RETURN JUMPDEST PUSH2 0x1D0 PUSH1 0x4 DUP1 CALLDATASIZE SUB DUP2 ADD SWAP1 PUSH2 0x1CB SWAP2 SWAP1 PUSH2 0x4E6 JUMP JUMPDEST PUSH2 0x3DA JUMP JUMPDEST PUSH1 0x40 MLOAD PUSH2 0x1DD SWAP2 SWAP1 PUSH2 0x533 JUMP JUMPDEST PUSH1 0x40 MLOAD DUP1 SWAP2 SUB SWAP1 RETURN JUMPDEST PUSH2 0x200 PUSH1 0x4 DUP1 CALLDATASIZE SUB DUP2 ADD SWAP1 PUSH2 0x1FB SWAP2 SWAP1 PUSH2 0x4E6 JUMP JUMPDEST PUSH2 0x3F4 JUMP JUMPDEST PUSH1 0x40 MLOAD PUSH2 0x20D SWAP2 SWAP1 PUSH2 0x533 JUMP JUMPDEST PUSH1 0x40 MLOAD DUP1 SWAP2 SUB SWAP1 RETURN JUMPDEST PUSH2 0x230 PUSH1 0x4 DUP1 CALLDATASIZE SUB DUP2 ADD SWAP1 PUSH2 0x22B SWAP2 SWAP1 PUSH2 0x5D4 JUMP JUMPDEST PUSH2 0x40E JUMP JUMPDEST PUSH1 0x40 MLOAD PUSH2 0x23D SWAP2 SWAP1 PUSH2 0x566 JUMP JUMPDEST PUSH1 0x40 MLOAD DUP1 SWAP2 SUB SWAP1 RETURN JUMPDEST PUSH2 0x260 PUSH1 0x4 DUP1 CALLDATASIZE SUB DUP2 ADD SWAP1 PUSH2 0x25B SWAP2 SWAP1 PUSH2 0x4E6 JUMP JUMPDEST PUSH2 0x425 JUMP JUMPDEST PUSH1 0x40 MLOAD PUSH2 0x26D SWAP2 SWAP1 PUSH2 0x533 JUMP JUMPDEST PUSH1 0x40 MLOAD DUP1 SWAP2 SUB SWAP1 RETURN JUMPDEST PUSH2 0x290 PUSH1 0x4 DUP1 CALLDATASIZE SUB DUP2 ADD SWAP1 PUSH2 0x28B SWAP2 SWAP1 PUSH2 0x4E6 JUMP JUMPDEST PUSH2 0x43F JUMP JUMPDEST PUSH1 0x40 MLOAD PUSH2 0x29D SWAP2 SWAP1 PUSH2 0x566 JUMP JUMPDEST PUSH1 0x40 MLOAD DUP1 SWAP2 SUB SWAP1 RETURN JUMPDEST PUSH2 0x2C0 PUSH1 0x4 DUP1 CALLDATASIZE SUB DUP2 ADD SWAP1 PUSH2 0x2BB SWAP2 SWAP1 PUSH2 0x4E6 JUMP JUMPDEST PUSH2 0x450 JUMP JUMPDEST PUSH1 0x40 MLOAD PUSH2 0x2CD SWAP2 SWAP1 PUSH2 0x533 JUMP JUMPDEST PUSH1 0x40 MLOAD DUP1 SWAP2 SUB SWAP1 RETURN JUMPDEST PUSH2 0x2F0 PUSH1 0x4 DUP1 CALLDATASIZE SUB DUP2 ADD SWAP1 PUSH2 0x2EB SWAP2 SWAP1 PUSH2 0x4E6 JUMP JUMPDEST PUSH2 0x46A JUMP JUMPDEST PUSH1 0x40 MLOAD PUSH2 0x2FD SWAP2 SWAP1 PUSH2 0x533 JUMP JUMPDEST PUSH1 0x40 MLOAD DUP1 SWAP2 SUB SWAP1 RETURN JUMPDEST PUSH2 0x320 PUSH1 0x4 DUP1 CALLDATASIZE SUB DUP2 ADD SWAP1 PUSH2 0x31B SWAP2 SWAP1 PUSH2 0x4E6 JUMP JUMPDEST PUSH2 0x484 JUMP JUMPDEST PUSH1 0x40 MLOAD PUSH2 0x32D SWAP2 SWAP1 PUSH2 0x533 JUMP JUMPDEST PUSH1 0x40 MLOAD DUP1 SWAP2 SUB SWAP1 RETURN JUMPDEST PUSH2 0x350 PUSH1 0x4 DUP1 CALLDATASIZE SUB DUP2 ADD SWAP1 PUSH2 0x34B SWAP2 SWAP1 PUSH2 0x4E6 JUMP JUMPDEST PUSH2 0x49E JUMP JUMPDEST PUSH1 0x40 MLOAD PUSH2 0x35D SWAP2 SWAP1 PUSH2 0x566 JUMP JUMPDEST PUSH1 0x40 MLOAD DUP1 SWAP2 SUB SWAP1 RETURN JUMPDEST PUSH0 PUSH0 PUSH1 0x2 DUP4 DUP6 PUSH2 0x376 SWAP2 SWAP1 PUSH2 0x63F JUMP JUMPDEST PUSH2 0x380 SWAP2 SWAP1 PUSH2 0x69F JUMP JUMPDEST SWAP1 POP DUP1 SWAP2 POP POP SWAP3 SWAP2 POP POP JUMP JUMPDEST PUSH0 PUSH0 SLOAD SWAP1 POP SWAP1 JUMP JUMPDEST PUSH0 PUSH0 DUP3 DUP5 EQ SWAP1 POP DUP1 SWAP2 POP POP SWAP3 SWAP2 POP POP JUMP JUMPDEST PUSH1 0xA DUP2 LT PUSH2 0x3B8 JUMPI DUP1 PUSH0 DUP2 SWAP1 SSTORE POP PUSH2 0x3BF JUMP JUMPDEST PUSH0 PUSH0 DUP2 SWAP1 SSTORE POP JUMPDEST POP JUMP JUMPDEST PUSH0 PUSH0 DUP4 DUP1 ISZERO PUSH2 0x3CE JUMPI POP DUP3 JUMPDEST SWAP1 POP DUP1 SWAP2 POP POP SWAP3 SWAP2 POP POP JUMP JUMPDEST PUSH0 PUSH0 DUP3 DUP5 PUSH2 0x3E8 SWAP2 SWAP1 PUSH2 0x6CF JUMP JUMPDEST SWAP1 POP DUP1 SWAP2 POP POP SWAP3 SWAP2 POP POP JUMP JUMPDEST PUSH0 PUSH0 DUP3 DUP5 PUSH2 0x402 SWAP2 SWAP1 PUSH2 0x702 JUMP JUMPDEST SWAP1 POP DUP1 SWAP2 POP POP SWAP3 SWAP2 POP POP JUMP JUMPDEST PUSH0 PUSH0 DUP4 DUP1 PUSH2 0x419 JUMPI POP DUP3 JUMPDEST SWAP1 POP DUP1 SWAP2 POP POP SWAP3 SWAP2 POP POP JUMP JUMPDEST PUSH0 PUSH0 DUP3 DUP5 PUSH2 0x433 SWAP2 SWAP1 PUSH2 0x861 JUMP JUMPDEST SWAP1 POP DUP1 SWAP2 POP POP SWAP3 SWAP2 POP POP JUMP JUMPDEST PUSH0 PUSH0 DUP3 DUP5 LT SWAP1 POP DUP1 SWAP2 POP POP SWAP3 SWAP2 POP POP JUMP JUMPDEST PUSH0 PUSH0 DUP3 DUP5 PUSH2 0x45E SWAP2 SWAP1 PUSH2 0x8AB JUMP JUMPDEST SWAP1 POP DUP1 SWAP2 POP POP SWAP3 SWAP2 POP POP JUMP JUMPDEST PUSH0 PUSH0 DUP3 DUP5 PUSH2 0x478 SWAP2 SWAP1 PUSH2 0x69F JUMP JUMPDEST SWAP1 POP DUP1 SWAP2 POP POP SWAP3 SWAP2 POP POP JUMP JUMPDEST PUSH0 PUSH0 DUP3 DUP5 PUSH2 0x492 SWAP2 SWAP1 PUSH2 0x63F JUMP JUMPDEST SWAP1 POP DUP1 SWAP2 POP POP SWAP3 SWAP2 POP POP JUMP JUMPDEST PUSH0 PUSH0 DUP3 DUP5 GT SWAP1 POP DUP1 SWAP2 POP POP SWAP3 SWAP2 POP POP JUMP JUMPDEST PUSH0 PUSH0 REVERT JUMPDEST PUSH0 DUP2 SWAP1 POP SWAP2 SWAP1 POP JUMP JUMPDEST PUSH2 0x4C5 DUP2 PUSH2 0x4B3 JUMP JUMPDEST DUP2 EQ PUSH2 0x4CF JUMPI PUSH0 PUSH0 REVERT JUMPDEST POP JUMP JUMPDEST PUSH0 DUP2 CALLDATALOAD SWAP1 POP PUSH2 0x4E0 DUP2 PUSH2 0x4BC JUMP JUMPDEST SWAP3 SWAP2 POP POP JUMP JUMPDEST PUSH0 PUSH0 PUSH1 0x40 DUP4 DUP6 SUB SLT ISZERO PUSH2 0x4FC JUMPI PUSH2 0x4FB PUSH2 0x4AF JUMP JUMPDEST JUMPDEST PUSH0 PUSH2 0x509 DUP6 DUP3 DUP7 ADD PUSH2 0x4D2 JUMP JUMPDEST SWAP3 POP POP PUSH1 0x20 PUSH2 0x51A DUP6 DUP3 DUP7 ADD PUSH2 0x4D2 JUMP JUMPDEST SWAP2 POP POP SWAP3 POP SWAP3 SWAP1 POP JUMP JUMPDEST PUSH2 0x52D DUP2 PUSH2 0x4B3 JUMP JUMPDEST DUP3 MSTORE POP POP JUMP JUMPDEST PUSH0 PUSH1 0x20 DUP3 ADD SWAP1 POP PUSH2 0x546 PUSH0 DUP4 ADD DUP5 PUSH2 0x524 JUMP JUMPDEST SWAP3 SWAP2 POP POP JUMP JUMPDEST PUSH0 DUP2 ISZERO ISZERO SWAP1 POP SWAP2 SWAP1 POP JUMP JUMPDEST PUSH2 0x560 DUP2 PUSH2 0x54C JUMP JUMPDEST DUP3 MSTORE POP POP JUMP JUMPDEST PUSH0 PUSH1 0x20 DUP3 ADD SWAP1 POP PUSH2 0x579 PUSH0 DUP4 ADD DUP5 PUSH2 0x557 JUMP JUMPDEST SWAP3 SWAP2 POP POP JUMP JUMPDEST PUSH0 PUSH1 0x20 DUP3 DUP5 SUB SLT ISZERO PUSH2 0x594 JUMPI PUSH2 0x593 PUSH2 0x4AF JUMP JUMPDEST JUMPDEST PUSH0 PUSH2 0x5A1 DUP5 DUP3 DUP6 ADD PUSH2 0x4D2 JUMP JUMPDEST SWAP2 POP POP SWAP3 SWAP2 POP POP JUMP JUMPDEST PUSH2 0x5B3 DUP2 PUSH2 0x54C JUMP JUMPDEST DUP2 EQ PUSH2 0x5BD JUMPI PUSH0 PUSH0 REVERT JUMPDEST POP JUMP JUMPDEST PUSH0 DUP2 CALLDATALOAD SWAP1 POP PUSH2 0x5CE DUP2 PUSH2 0x5AA JUMP JUMPDEST SWAP3 SWAP2 POP POP JUMP JUMPDEST PUSH0 PUSH0 PUSH1 0x40 DUP4 DUP6 SUB SLT ISZERO PUSH2 0x5EA JUMPI PUSH2 0x5E9 PUSH2 0x4AF JUMP JUMPDEST JUMPDEST PUSH0 PUSH2 0x5F7 DUP6 DUP3 DUP7 ADD PUSH2 0x5C0 JUMP JUMPDEST SWAP3 POP POP PUSH1 0x20 PUSH2 0x608 DUP6 DUP3 DUP7 ADD PUSH2 0x5C0 JUMP JUMPDEST SWAP2 POP POP SWAP3 POP SWAP3 SWAP1 POP JUMP JUMPDEST PUSH32 0x4E487B7100000000000000000000000000000000000000000000000000000000 PUSH0 MSTORE PUSH1 0x11 PUSH1 0x4 MSTORE PUSH1 0x24 PUSH0 REVERT JUMPDEST PUSH0 PUSH2 0x649 DUP3 PUSH2 0x4B3 JUMP JUMPDEST SWAP2 POP PUSH2 0x654 DUP4 PUSH2 0x4B3 JUMP JUMPDEST SWAP3 POP DUP3 DUP3 ADD SWAP1 POP DUP1 DUP3 GT ISZERO PUSH2 0x66C JUMPI PUSH2 0x66B PUSH2 0x612 JUMP JUMPDEST JUMPDEST SWAP3 SWAP2 POP POP JUMP JUMPDEST PUSH32 0x4E487B7100000000000000000000000000000000000000000000000000000000 PUSH0 MSTORE PUSH1 0x12 PUSH1 0x4 MSTORE PUSH1 0x24 PUSH0 REVERT JUMPDEST PUSH0 PUSH2 0x6A9 DUP3 PUSH2 0x4B3 JUMP JUMPDEST SWAP2 POP PUSH2 0x6B4 DUP4 PUSH2 0x4B3 JUMP JUMPDEST SWAP3 POP DUP3 PUSH2 0x6C4 JUMPI PUSH2 0x6C3 PUSH2 0x672 JUMP JUMPDEST JUMPDEST DUP3 DUP3 DIV SWAP1 POP SWAP3 SWAP2 POP POP JUMP JUMPDEST PUSH0 PUSH2 0x6D9 DUP3 PUSH2 0x4B3 JUMP JUMPDEST SWAP2 POP PUSH2 0x6E4 DUP4 PUSH2 0x4B3 JUMP JUMPDEST SWAP3 POP DUP3 DUP3 SUB SWAP1 POP DUP2 DUP2 GT ISZERO PUSH2 0x6FC JUMPI PUSH2 0x6FB PUSH2 0x612 JUMP JUMPDEST JUMPDEST SWAP3 SWAP2 POP POP JUMP JUMPDEST PUSH0 PUSH2 0x70C DUP3 PUSH2 0x4B3 JUMP JUMPDEST SWAP2 POP PUSH2 0x717 DUP4 PUSH2 0x4B3 JUMP JUMPDEST SWAP3 POP DUP3 PUSH2 0x727 JUMPI PUSH2 0x726 PUSH2 0x672 JUMP JUMPDEST JUMPDEST DUP3 DUP3 MOD SWAP1 POP SWAP3 SWAP2 POP POP JUMP JUMPDEST PUSH0 DUP2 PUSH1 0x1 SHR SWAP1 POP SWAP2 SWAP1 POP JUMP JUMPDEST PUSH0 PUSH0 DUP3 SWAP2 POP DUP4 SWAP1 POP JUMPDEST PUSH1 0x1 DUP6 GT ISZERO PUSH2 0x787 JUMPI DUP1 DUP7 DIV DUP2 GT ISZERO PUSH2 0x763 JUMPI PUSH2 0x762 PUSH2 0x612 JUMP JUMPDEST JUMPDEST PUSH1 0x1 DUP6 AND ISZERO PUSH2 0x772 JUMPI DUP1 DUP3 MUL SWAP2 POP JUMPDEST DUP1 DUP2 MUL SWAP1 POP PUSH2 0x780 DUP6 PUSH2 0x732 JUMP JUMPDEST SWAP5 POP PUSH2 0x747 JUMP JUMPDEST SWAP5 POP SWAP5 SWAP3 POP POP POP JUMP JUMPDEST PUSH0 DUP3 PUSH2 0x79F JUMPI PUSH1 0x1 SWAP1 POP PUSH2 0x85A JUMP JUMPDEST DUP2 PUSH2 0x7AC JUMPI PUSH0 SWAP1 POP PUSH2 0x85A JUMP JUMPDEST DUP2 PUSH1 0x1 DUP2 EQ PUSH2 0x7C2 JUMPI PUSH1 0x2 DUP2 EQ PUSH2 0x7CC JUMPI PUSH2 0x7FB JUMP JUMPDEST PUSH1 0x1 SWAP2 POP POP PUSH2 0x85A JUMP JUMPDEST PUSH1 0xFF DUP5 GT ISZERO PUSH2 0x7DE JUMPI PUSH2 0x7DD PUSH2 0x612 JUMP JUMPDEST JUMPDEST DUP4 PUSH1 0x2 EXP SWAP2 POP DUP5 DUP3 GT ISZERO PUSH2 0x7F5 JUMPI PUSH2 0x7F4 PUSH2 0x612 JUMP JUMPDEST JUMPDEST POP PUSH2 0x85A JUMP JUMPDEST POP PUSH1 0x20 DUP4 LT PUSH2 0x133 DUP4 LT AND PUSH1 0x4E DUP5 LT PUSH1 0xB DUP5 LT AND OR ISZERO PUSH2 0x830 JUMPI DUP3 DUP3 EXP SWAP1 POP DUP4 DUP2 GT ISZERO PUSH2 0x82B JUMPI PUSH2 0x82A PUSH2 0x612 JUMP JUMPDEST JUMPDEST PUSH2 0x85A JUMP JUMPDEST PUSH2 0x83D DUP5 DUP5 DUP5 PUSH1 0x1 PUSH2 0x73E JUMP JUMPDEST SWAP3 POP SWAP1 POP DUP2 DUP5 DIV DUP2 GT ISZERO PUSH2 0x854 JUMPI PUSH2 0x853 PUSH2 0x612 JUMP JUMPDEST JUMPDEST DUP2 DUP2 MUL SWAP1 POP JUMPDEST SWAP4 SWAP3 POP POP POP JUMP JUMPDEST PUSH0 PUSH2 0x86B DUP3 PUSH2 0x4B3 JUMP JUMPDEST SWAP2 POP PUSH2 0x876 DUP4 PUSH2 0x4B3 JUMP JUMPDEST SWAP3 POP PUSH2 0x8A3 PUSH32 0xFFFFFFFFFFFFFFFFFFFFFFFFFFFFFFFFFFFFFFFFFFFFFFFFFFFFFFFFFFFFFFFF DUP5 DUP5 PUSH2 0x790 JUMP JUMPDEST SWAP1 POP SWAP3 SWAP2 POP POP JUMP JUMPDEST PUSH0 PUSH2 0x8B5 DUP3 PUSH2 0x4B3 JUMP JUMPDEST SWAP2 POP PUSH2 0x8C0 DUP4 PUSH2 0x4B3 JUMP JUMPDEST SWAP3 POP DUP3 DUP3 MUL PUSH2 0x8CE DUP2 PUSH2 0x4B3 JUMP JUMPDEST SWAP2 POP DUP3 DUP3 DIV DUP5 EQ DUP4 ISZERO OR PUSH2 0x8E5 JUMPI PUSH2 0x8E4 PUSH2 0x612 JUMP JUMPDEST JUMPDEST POP SWAP3 SWAP2 POP POP JUMP INVALID LOG2 PUSH5 0x6970667358 0x22 SLT KECCAK256 PUSH11 0x664C19520B260589125072 0x29 SWAP14 PUSH25 0x7718C482020FD51D4C3A4FDE31FC0F28664736F6C63430008 SHR STOP CALLER "
				},
				"gasEstimates": {
					"creation": {
						"codeDepositCost": "467600",
						"executionCost": "503",
						"totalCost": "468103"
					},
					"external": {
						"addCalc(uint256,uint256)": "infinite",
						"andConditionVerify(bool,bool)": "infinite",
						"averageCalc(uint256,uint256)": "infinite",
						"bigVerify(uint256,uint256)": "infinite",
						"divisionCalc(uint256,uint256)": "infinite",
						"equalVerify(uint256,uint256)": "infinite",
						"getValue()": "2477",
						"lessVerify(uint256,uint256)": "infinite",
						"modulusCalc(uint256,uint256)": "infinite",
						"multiplicationCalc(uint256,uint256)": "infinite",
						"orConditionVerify(bool,bool)": "infinite",
						"powerCalc(uint256,uint256)": "infinite",
						"setValue(uint256)": "22571",
						"subtractionCal(uint256,uint256)": "infinite"
					}
				},
				"methodIdentifiers": {
					"addCalc(uint256,uint256)": "f45c44ed",
					"andConditionVerify(bool,bool)": "74e8cfa5",
					"averageCalc(uint256,uint256)": "1218c4a0",
					"bigVerify(uint256,uint256)": "f5b974be",
					"divisionCalc(uint256,uint256)": "f318dee9",
					"equalVerify(uint256,uint256)": "27c3536b",
					"getValue()": "20965255",
					"lessVerify(uint256,uint256)": "c6e01839",
					"modulusCalc(uint256,uint256)": "ab96014e",
					"multiplicationCalc(uint256,uint256)": "cb76b8f6",
					"orConditionVerify(bool,bool)": "aff65ca8",
					"powerCalc(uint256,uint256)": "c52246a3",
					"setValue(uint256)": "55241077",
					"subtractionCal(uint256,uint256)": "9bb34a0d"
				}
			},
			"storageLayout": {
				"storage": [
					{
						"astId": 3,
						"contract": "contracts/operators.sol:Operators",
						"label": "value",
						"offset": 0,
						"slot": "0",
						"type": "t_uint256"
					}
				],
				"types": {
					"t_uint256": {
						"encoding": "inplace",
						"label": "uint256",
						"numberOfBytes": "32"
					}
				}
			},
			"userdoc": {
				"kind": "user",
				"methods": {},
				"version": 1
			}
		}
	}
}