{
	"contracts/arrays.sol": {
		"arraysExamples": {
			"abi": [
				{
					"inputs": [
						{
							"internalType": "string",
							"name": "_name",
							"type": "string"
						}
					],
					"name": "defineDicipline",
					"outputs": [],
					"stateMutability": "nonpayable",
					"type": "function"
				},
				{
					"inputs": [
						{
							"internalType": "uint8",
							"name": "_num",
							"type": "uint8"
						},
						{
							"internalType": "string",
							"name": "_studentName",
							"type": "string"
						}
					],
					"name": "defineStudent",
					"outputs": [],
					"stateMutability": "nonpayable",
					"type": "function"
				},
				{
					"inputs": [
						{
							"internalType": "string",
							"name": "_discipline",
							"type": "string"
						},
						{
							"internalType": "string",
							"name": "_teacher",
							"type": "string"
						}
					],
					"name": "definesDiciplineTeacher",
					"outputs": [],
					"stateMutability": "nonpayable",
					"type": "function"
				},
				{
					"inputs": [
						{
							"internalType": "uint256",
							"name": "_index",
							"type": "uint256"
						}
					],
					"name": "deleteDicipline",
					"outputs": [],
					"stateMutability": "nonpayable",
					"type": "function"
				},
				{
					"inputs": [
						{
							"internalType": "uint256",
							"name": "_index",
							"type": "uint256"
						}
					],
					"name": "deleteStudent",
					"outputs": [],
					"stateMutability": "nonpayable",
					"type": "function"
				},
				{
					"inputs": [
						{
							"internalType": "uint256",
							"name": "",
							"type": "uint256"
						}
					],
					"name": "diciplineName",
					"outputs": [
						{
							"internalType": "string",
							"name": "",
							"type": "string"
						}
					],
					"stateMutability": "view",
					"type": "function"
				},
				{
					"inputs": [
						{
							"internalType": "uint8",
							"name": "_dicip_index",
							"type": "uint8"
						},
						{
							"internalType": "uint8",
							"name": "_teach_index",
							"type": "uint8"
						}
					],
					"name": "getDiciplineTeacher",
					"outputs": [
						{
							"internalType": "string",
							"name": "",
							"type": "string"
						}
					],
					"stateMutability": "view",
					"type": "function"
				},
				{
					"inputs": [
						{
							"internalType": "uint256",
							"name": "",
							"type": "uint256"
						}
					],
					"name": "students",
					"outputs": [
						{
							"internalType": "string",
							"name": "",
							"type": "string"
						}
					],
					"stateMutability": "view",
					"type": "function"
				}
			],
			"devdoc": {
				"kind": "dev",
				"methods": {},
				"version": 1
			},
			"evm": {
				"assembly": "    /* \"contracts/arrays.sol\":57:1298  contract arraysExamples{... */\n  mstore(0x40, 0x80)\n  callvalue\n  dup1\n  iszero\n  tag_1\n  jumpi\n  revert(0x00, 0x00)\ntag_1:\n  pop\n  dataSize(sub_0)\n  dup1\n  dataOffset(sub_0)\n  0x00\n  codecopy\n  0x00\n  return\nstop\n\nsub_0: assembly {\n        /* \"contracts/arrays.sol\":57:1298  contract arraysExamples{... */\n      mstore(0x40, 0x80)\n      callvalue\n      dup1\n      iszero\n      tag_1\n      jumpi\n      revert(0x00, 0x00)\n    tag_1:\n      pop\n      jumpi(tag_2, lt(calldatasize, 0x04))\n      shr(0xe0, calldataload(0x00))\n      dup1\n      0x9fc55cad\n      gt\n      tag_11\n      jumpi\n      dup1\n      0x9fc55cad\n      eq\n      tag_7\n      jumpi\n      dup1\n      0xb645307d\n      eq\n      tag_8\n      jumpi\n      dup1\n      0xd3e815d2\n      eq\n      tag_9\n      jumpi\n      dup1\n      0xf0617e92\n      eq\n      tag_10\n      jumpi\n      jump(tag_2)\n    tag_11:\n      dup1\n      0x06ead22e\n      eq\n      tag_3\n      jumpi\n      dup1\n      0x43ce9e07\n      eq\n      tag_4\n      jumpi\n      dup1\n      0x49f119b6\n      eq\n      tag_5\n      jumpi\n      dup1\n      0x5fb7f474\n      eq\n      tag_6\n      jumpi\n    tag_2:\n      revert(0x00, 0x00)\n        /* \"contracts/arrays.sol\":86:111  string[4] public students */\n    tag_3:\n      tag_12\n      0x04\n      dup1\n      calldatasize\n      sub\n      dup2\n      add\n      swap1\n      tag_13\n      swap2\n      swap1\n      tag_14\n      jump\t// in\n    tag_13:\n      tag_15\n      jump\t// in\n    tag_12:\n      mload(0x40)\n      tag_16\n      swap2\n      swap1\n      tag_17\n      jump\t// in\n    tag_16:\n      mload(0x40)\n      dup1\n      swap2\n      sub\n      swap1\n      return\n        /* \"contracts/arrays.sol\":608:702  function deleteDicipline(uint256 _index) external{... */\n    tag_4:\n      tag_18\n      0x04\n      dup1\n      calldatasize\n      sub\n      dup2\n      add\n      swap1\n      tag_19\n      swap2\n      swap1\n      tag_14\n      jump\t// in\n    tag_19:\n      tag_20\n      jump\t// in\n    tag_18:\n      stop\n        /* \"contracts/arrays.sol\":1123:1296  function getDiciplineTeacher(uint8 _dicip_index, uint8 _teach_index) external view returns(string memory){... */\n    tag_5:\n      tag_21\n      0x04\n      dup1\n      calldatasize\n      sub\n      dup2\n      add\n      swap1\n      tag_22\n      swap2\n      swap1\n      tag_23\n      jump\t// in\n    tag_22:\n      tag_24\n      jump\t// in\n    tag_21:\n      mload(0x40)\n      tag_25\n      swap2\n      swap1\n      tag_17\n      jump\t// in\n    tag_25:\n      mload(0x40)\n      dup1\n      swap2\n      sub\n      swap1\n      return\n        /* \"contracts/arrays.sol\":210:586  function defineDicipline(string memory _name) external {... */\n    tag_6:\n      tag_26\n      0x04\n      dup1\n      calldatasize\n      sub\n      dup2\n      add\n      swap1\n      tag_27\n      swap2\n      swap1\n      tag_28\n      jump\t// in\n    tag_27:\n      tag_29\n      jump\t// in\n    tag_26:\n      stop\n        /* \"contracts/arrays.sol\":723:841  function defineStudent(uint8 _num, string memory _studentName) external {... */\n    tag_7:\n      tag_30\n      0x04\n      dup1\n      calldatasize\n      sub\n      dup2\n      add\n      swap1\n      tag_31\n      swap2\n      swap1\n      tag_32\n      jump\t// in\n    tag_31:\n      tag_33\n      jump\t// in\n    tag_30:\n      stop\n        /* \"contracts/arrays.sol\":869:956  function deleteStudent(uint256 _index) external{... */\n    tag_8:\n      tag_34\n      0x04\n      dup1\n      calldatasize\n      sub\n      dup2\n      add\n      swap1\n      tag_35\n      swap2\n      swap1\n      tag_14\n      jump\t// in\n    tag_35:\n      tag_36\n      jump\t// in\n    tag_34:\n      stop\n        /* \"contracts/arrays.sol\":117:146  string[] public diciplineName */\n    tag_9:\n      tag_37\n      0x04\n      dup1\n      calldatasize\n      sub\n      dup2\n      add\n      swap1\n      tag_38\n      swap2\n      swap1\n      tag_14\n      jump\t// in\n    tag_38:\n      tag_39\n      jump\t// in\n    tag_37:\n      mload(0x40)\n      tag_40\n      swap2\n      swap1\n      tag_17\n      jump\t// in\n    tag_40:\n      mload(0x40)\n      dup1\n      swap2\n      sub\n      swap1\n      return\n        /* \"contracts/arrays.sol\":962:1117  function definesDiciplineTeacher(string memory _discipline, string memory _teacher) external{... */\n    tag_10:\n      tag_41\n      0x04\n      dup1\n      calldatasize\n      sub\n      dup2\n      add\n      swap1\n      tag_42\n      swap2\n      swap1\n      tag_43\n      jump\t// in\n    tag_42:\n      tag_44\n      jump\t// in\n    tag_41:\n      stop\n        /* \"contracts/arrays.sol\":86:111  string[4] public students */\n    tag_15:\n      0x00\n      dup2\n      0x04\n      dup2\n      lt\n      tag_45\n      jumpi\n      0x00\n      dup1\n      revert\n    tag_45:\n      add\n      0x00\n      swap2\n      pop\n      swap1\n      pop\n      dup1\n      sload\n      tag_47\n      swap1\n      tag_48\n      jump\t// in\n    tag_47:\n      dup1\n      0x1f\n      add\n      0x20\n      dup1\n      swap2\n      div\n      mul\n      0x20\n      add\n      mload(0x40)\n      swap1\n      dup2\n      add\n      0x40\n      mstore\n      dup1\n      swap3\n      swap2\n      swap1\n      dup2\n      dup2\n      mstore\n      0x20\n      add\n      dup3\n      dup1\n      sload\n      tag_49\n      swap1\n      tag_48\n      jump\t// in\n    tag_49:\n      dup1\n      iszero\n      tag_50\n      jumpi\n      dup1\n      0x1f\n      lt\n      tag_51\n      jumpi\n      0x0100\n      dup1\n      dup4\n      sload\n      div\n      mul\n      dup4\n      mstore\n      swap2\n      0x20\n      add\n      swap2\n      jump(tag_50)\n    tag_51:\n      dup3\n      add\n      swap2\n      swap1\n      0x00\n      mstore\n      keccak256(0x00, 0x20)\n      swap1\n    tag_52:\n      dup2\n      sload\n      dup2\n      mstore\n      swap1\n      0x01\n      add\n      swap1\n      0x20\n      add\n      dup1\n      dup4\n      gt\n      tag_52\n      jumpi\n      dup3\n      swap1\n      sub\n      0x1f\n      and\n      dup3\n      add\n      swap2\n    tag_50:\n      pop\n      pop\n      pop\n      pop\n      pop\n      dup2\n      jump\t// out\n        /* \"contracts/arrays.sol\":608:702  function deleteDicipline(uint256 _index) external{... */\n    tag_20:\n        /* \"contracts/arrays.sol\":674:687  diciplineName */\n      0x04\n        /* \"contracts/arrays.sol\":688:694  _index */\n      dup2\n        /* \"contracts/arrays.sol\":674:695  diciplineName[_index] */\n      dup2\n      sload\n      dup2\n      lt\n      tag_54\n      jumpi\n      tag_55\n      tag_56\n      jump\t// in\n    tag_55:\n    tag_54:\n      swap1\n      0x00\n      mstore\n      keccak256(0x00, 0x20)\n      add\n      0x00\n        /* \"contracts/arrays.sol\":667:695  delete diciplineName[_index] */\n      tag_58\n      swap2\n      swap1\n      tag_59\n      jump\t// in\n    tag_58:\n        /* \"contracts/arrays.sol\":608:702  function deleteDicipline(uint256 _index) external{... */\n      pop\n      jump\t// out\n        /* \"contracts/arrays.sol\":1123:1296  function getDiciplineTeacher(uint8 _dicip_index, uint8 _teach_index) external view returns(string memory){... */\n    tag_24:\n        /* \"contracts/arrays.sol\":1214:1227  string memory */\n      0x60\n        /* \"contracts/arrays.sol\":1245:1261  diciplineTeacher */\n      0x05\n        /* \"contracts/arrays.sol\":1262:1274  _dicip_index */\n      dup4\n        /* \"contracts/arrays.sol\":1245:1275  diciplineTeacher[_dicip_index] */\n      0xff\n      and\n      dup2\n      sload\n      dup2\n      lt\n      tag_61\n      jumpi\n      tag_62\n      tag_56\n      jump\t// in\n    tag_62:\n    tag_61:\n      swap1\n      0x00\n      mstore\n      keccak256(0x00, 0x20)\n      add\n        /* \"contracts/arrays.sol\":1276:1288  _teach_index */\n      dup3\n        /* \"contracts/arrays.sol\":1245:1289  diciplineTeacher[_dicip_index][_teach_index] */\n      0xff\n      and\n      dup2\n      sload\n      dup2\n      lt\n      tag_64\n      jumpi\n      tag_65\n      tag_56\n      jump\t// in\n    tag_65:\n    tag_64:\n      swap1\n      0x00\n      mstore\n      keccak256(0x00, 0x20)\n      add\n        /* \"contracts/arrays.sol\":1238:1289  return diciplineTeacher[_dicip_index][_teach_index] */\n      dup1\n      sload\n      tag_67\n      swap1\n      tag_48\n      jump\t// in\n    tag_67:\n      dup1\n      0x1f\n      add\n      0x20\n      dup1\n      swap2\n      div\n      mul\n      0x20\n      add\n      mload(0x40)\n      swap1\n      dup2\n      add\n      0x40\n      mstore\n      dup1\n      swap3\n      swap2\n      swap1\n      dup2\n      dup2\n      mstore\n      0x20\n      add\n      dup3\n      dup1\n      sload\n      tag_68\n      swap1\n      tag_48\n      jump\t// in\n    tag_68:\n      dup1\n      iszero\n      tag_69\n      jumpi\n      dup1\n      0x1f\n      lt\n      tag_70\n      jumpi\n      0x0100\n      dup1\n      dup4\n      sload\n      div\n      mul\n      dup4\n      mstore\n      swap2\n      0x20\n      add\n      swap2\n      jump(tag_69)\n    tag_70:\n      dup3\n      add\n      swap2\n      swap1\n      0x00\n      mstore\n      keccak256(0x00, 0x20)\n      swap1\n    tag_71:\n      dup2\n      sload\n      dup2\n      mstore\n      swap1\n      0x01\n      add\n      swap1\n      0x20\n      add\n      dup1\n      dup4\n      gt\n      tag_71\n      jumpi\n      dup3\n      swap1\n      sub\n      0x1f\n      and\n      dup3\n      add\n      swap2\n    tag_69:\n      pop\n      pop\n      pop\n      pop\n      pop\n      swap1\n      pop\n        /* \"contracts/arrays.sol\":1123:1296  function getDiciplineTeacher(uint8 _dicip_index, uint8 _teach_index) external view returns(string memory){... */\n      swap3\n      swap2\n      pop\n      pop\n      jump\t// out\n        /* \"contracts/arrays.sol\":210:586  function defineDicipline(string memory _name) external {... */\n    tag_29:\n        /* \"contracts/arrays.sol\":275:288  diciplineName */\n      0x04\n        /* \"contracts/arrays.sol\":294:299  _name */\n      dup2\n        /* \"contracts/arrays.sol\":275:300  diciplineName.push(_name) */\n      swap1\n      dup1\n      0x01\n      dup2\n      sload\n      add\n      dup1\n      dup3\n      sstore\n      dup1\n      swap2\n      pop\n      pop\n      0x01\n      swap1\n      sub\n      swap1\n      0x00\n      mstore\n      keccak256(0x00, 0x20)\n      add\n      0x00\n      swap1\n      swap2\n      swap1\n      swap2\n      swap1\n      swap2\n      pop\n      swap1\n      dup2\n      tag_74\n      swap2\n      swap1\n      tag_75\n      jump\t// in\n    tag_74:\n      pop\n        /* \"contracts/arrays.sol\":210:586  function defineDicipline(string memory _name) external {... */\n      pop\n      jump\t// out\n        /* \"contracts/arrays.sol\":723:841  function defineStudent(uint8 _num, string memory _studentName) external {... */\n    tag_33:\n        /* \"contracts/arrays.sol\":822:834  _studentName */\n      dup1\n        /* \"contracts/arrays.sol\":805:813  students */\n      0x00\n        /* \"contracts/arrays.sol\":814:818  _num */\n      dup4\n        /* \"contracts/arrays.sol\":805:819  students[_num] */\n      0xff\n      and\n      0x04\n      dup2\n      lt\n      tag_77\n      jumpi\n      tag_78\n      tag_56\n      jump\t// in\n    tag_78:\n    tag_77:\n      add\n        /* \"contracts/arrays.sol\":805:834  students[_num] = _studentName */\n      swap1\n      dup2\n      tag_80\n      swap2\n      swap1\n      tag_75\n      jump\t// in\n    tag_80:\n      pop\n        /* \"contracts/arrays.sol\":723:841  function defineStudent(uint8 _num, string memory _studentName) external {... */\n      pop\n      pop\n      jump\t// out\n        /* \"contracts/arrays.sol\":869:956  function deleteStudent(uint256 _index) external{... */\n    tag_36:\n        /* \"contracts/arrays.sol\":933:941  students */\n      0x00\n        /* \"contracts/arrays.sol\":942:948  _index */\n      dup2\n        /* \"contracts/arrays.sol\":933:949  students[_index] */\n      0x04\n      dup2\n      lt\n      tag_82\n      jumpi\n      tag_83\n      tag_56\n      jump\t// in\n    tag_83:\n    tag_82:\n      add\n      0x00\n        /* \"contracts/arrays.sol\":926:949  delete students[_index] */\n      tag_85\n      swap2\n      swap1\n      tag_59\n      jump\t// in\n    tag_85:\n        /* \"contracts/arrays.sol\":869:956  function deleteStudent(uint256 _index) external{... */\n      pop\n      jump\t// out\n        /* \"contracts/arrays.sol\":117:146  string[] public diciplineName */\n    tag_39:\n      0x04\n      dup2\n      dup2\n      sload\n      dup2\n      lt\n      tag_86\n      jumpi\n      0x00\n      dup1\n      revert\n    tag_86:\n      swap1\n      0x00\n      mstore\n      keccak256(0x00, 0x20)\n      add\n      0x00\n      swap2\n      pop\n      swap1\n      pop\n      dup1\n      sload\n      tag_88\n      swap1\n      tag_48\n      jump\t// in\n    tag_88:\n      dup1\n      0x1f\n      add\n      0x20\n      dup1\n      swap2\n      div\n      mul\n      0x20\n      add\n      mload(0x40)\n      swap1\n      dup2\n      add\n      0x40\n      mstore\n      dup1\n      swap3\n      swap2\n      swap1\n      dup2\n      dup2\n      mstore\n      0x20\n      add\n      dup3\n      dup1\n      sload\n      tag_89\n      swap1\n      tag_48\n      jump\t// in\n    tag_89:\n      dup1\n      iszero\n      tag_90\n      jumpi\n      dup1\n      0x1f\n      lt\n      tag_91\n      jumpi\n      0x0100\n      dup1\n      dup4\n      sload\n      div\n      mul\n      dup4\n      mstore\n      swap2\n      0x20\n      add\n      swap2\n      jump(tag_90)\n    tag_91:\n      dup3\n      add\n      swap2\n      swap1\n      0x00\n      mstore\n      keccak256(0x00, 0x20)\n      swap1\n    tag_92:\n      dup2\n      sload\n      dup2\n      mstore\n      swap1\n      0x01\n      add\n      swap1\n      0x20\n      add\n      dup1\n      dup4\n      gt\n      tag_92\n      jumpi\n      dup3\n      swap1\n      sub\n      0x1f\n      and\n      dup3\n      add\n      swap2\n    tag_90:\n      pop\n      pop\n      pop\n      pop\n      pop\n      dup2\n      jump\t// out\n        /* \"contracts/arrays.sol\":962:1117  function definesDiciplineTeacher(string memory _discipline, string memory _teacher) external{... */\n    tag_44:\n        /* \"contracts/arrays.sol\":1064:1080  diciplineTeacher */\n      0x05\n        /* \"contracts/arrays.sol\":1064:1110  diciplineTeacher.push([_discipline, _teacher]) */\n      mload(0x40)\n      dup1\n      0x40\n      add\n      0x40\n      mstore\n      dup1\n        /* \"contracts/arrays.sol\":1087:1098  _discipline */\n      dup5\n        /* \"contracts/arrays.sol\":1064:1110  diciplineTeacher.push([_discipline, _teacher]) */\n      dup2\n      mstore\n      0x20\n      add\n        /* \"contracts/arrays.sol\":1100:1108  _teacher */\n      dup4\n        /* \"contracts/arrays.sol\":1064:1110  diciplineTeacher.push([_discipline, _teacher]) */\n      dup2\n      mstore\n      pop\n      swap1\n      dup1\n      0x01\n      dup2\n      sload\n      add\n      dup1\n      dup3\n      sstore\n      dup1\n      swap2\n      pop\n      pop\n      0x01\n      swap1\n      sub\n      swap1\n      0x00\n      mstore\n      keccak256(0x00, 0x20)\n      add\n      0x00\n      swap1\n      swap2\n      swap1\n      swap2\n      swap1\n      swap2\n      pop\n      swap1\n      0x02\n      tag_95\n      swap3\n      swap2\n      swap1\n      tag_96\n      jump\t// in\n    tag_95:\n      pop\n        /* \"contracts/arrays.sol\":962:1117  function definesDiciplineTeacher(string memory _discipline, string memory _teacher) external{... */\n      pop\n      pop\n      jump\t// out\n    tag_59:\n      pop\n      dup1\n      sload\n      tag_97\n      swap1\n      tag_48\n      jump\t// in\n    tag_97:\n      0x00\n      dup3\n      sstore\n      dup1\n      0x1f\n      lt\n      tag_99\n      jumpi\n      pop\n      jump(tag_98)\n    tag_99:\n      0x1f\n      add\n      0x20\n      swap1\n      div\n      swap1\n      0x00\n      mstore\n      keccak256(0x00, 0x20)\n      swap1\n      dup2\n      add\n      swap1\n      tag_100\n      swap2\n      swap1\n      tag_101\n      jump\t// in\n    tag_100:\n    tag_98:\n      pop\n      jump\t// out\n    tag_96:\n      dup3\n      dup1\n      sload\n      dup3\n      dup3\n      sstore\n      swap1\n      0x00\n      mstore\n      keccak256(0x00, 0x20)\n      swap1\n      dup2\n      add\n      swap3\n      dup3\n      iszero\n      tag_102\n      jumpi\n      swap2\n      0x20\n      mul\n      dup3\n      add\n    tag_103:\n      dup3\n      dup2\n      gt\n      iszero\n      tag_104\n      jumpi\n      dup3\n      mload\n      dup3\n      swap1\n      dup2\n      tag_105\n      swap2\n      swap1\n      tag_75\n      jump\t// in\n    tag_105:\n      pop\n      swap2\n      0x20\n      add\n      swap2\n      swap1\n      0x01\n      add\n      swap1\n      jump(tag_103)\n    tag_104:\n    tag_102:\n      pop\n      swap1\n      pop\n      tag_106\n      swap2\n      swap1\n      tag_107\n      jump\t// in\n    tag_106:\n      pop\n      swap1\n      jump\t// out\n    tag_101:\n    tag_108:\n      dup1\n      dup3\n      gt\n      iszero\n      tag_109\n      jumpi\n      0x00\n      dup2\n      0x00\n      swap1\n      sstore\n      pop\n      0x01\n      add\n      jump(tag_108)\n    tag_109:\n      pop\n      swap1\n      jump\t// out\n    tag_107:\n    tag_110:\n      dup1\n      dup3\n      gt\n      iszero\n      tag_111\n      jumpi\n      0x00\n      dup2\n      dup2\n      tag_112\n      swap2\n      swap1\n      tag_59\n      jump\t// in\n    tag_112:\n      pop\n      0x01\n      add\n      jump(tag_110)\n    tag_111:\n      pop\n      swap1\n      jump\t// out\n        /* \"#utility.yul\":7:82   */\n    tag_113:\n        /* \"#utility.yul\":40:46   */\n      0x00\n        /* \"#utility.yul\":73:75   */\n      0x40\n        /* \"#utility.yul\":67:76   */\n      mload\n        /* \"#utility.yul\":57:76   */\n      swap1\n      pop\n        /* \"#utility.yul\":7:82   */\n      swap1\n      jump\t// out\n        /* \"#utility.yul\":88:205   */\n    tag_114:\n        /* \"#utility.yul\":197:198   */\n      0x00\n        /* \"#utility.yul\":194:195   */\n      0x00\n        /* \"#utility.yul\":187:199   */\n      revert\n        /* \"#utility.yul\":211:328   */\n    tag_115:\n        /* \"#utility.yul\":320:321   */\n      0x00\n        /* \"#utility.yul\":317:318   */\n      0x00\n        /* \"#utility.yul\":310:322   */\n      revert\n        /* \"#utility.yul\":334:411   */\n    tag_116:\n        /* \"#utility.yul\":371:378   */\n      0x00\n        /* \"#utility.yul\":400:405   */\n      dup2\n        /* \"#utility.yul\":389:405   */\n      swap1\n      pop\n        /* \"#utility.yul\":334:411   */\n      swap2\n      swap1\n      pop\n      jump\t// out\n        /* \"#utility.yul\":417:539   */\n    tag_117:\n        /* \"#utility.yul\":490:514   */\n      tag_158\n        /* \"#utility.yul\":508:513   */\n      dup2\n        /* \"#utility.yul\":490:514   */\n      tag_116\n      jump\t// in\n    tag_158:\n        /* \"#utility.yul\":483:488   */\n      dup2\n        /* \"#utility.yul\":480:515   */\n      eq\n        /* \"#utility.yul\":470:533   */\n      tag_159\n      jumpi\n        /* \"#utility.yul\":529:530   */\n      0x00\n        /* \"#utility.yul\":526:527   */\n      0x00\n        /* \"#utility.yul\":519:531   */\n      revert\n        /* \"#utility.yul\":470:533   */\n    tag_159:\n        /* \"#utility.yul\":417:539   */\n      pop\n      jump\t// out\n        /* \"#utility.yul\":545:684   */\n    tag_118:\n        /* \"#utility.yul\":591:596   */\n      0x00\n        /* \"#utility.yul\":629:635   */\n      dup2\n        /* \"#utility.yul\":616:636   */\n      calldataload\n        /* \"#utility.yul\":607:636   */\n      swap1\n      pop\n        /* \"#utility.yul\":645:678   */\n      tag_161\n        /* \"#utility.yul\":672:677   */\n      dup2\n        /* \"#utility.yul\":645:678   */\n      tag_117\n      jump\t// in\n    tag_161:\n        /* \"#utility.yul\":545:684   */\n      swap3\n      swap2\n      pop\n      pop\n      jump\t// out\n        /* \"#utility.yul\":690:1019   */\n    tag_14:\n        /* \"#utility.yul\":749:755   */\n      0x00\n        /* \"#utility.yul\":798:800   */\n      0x20\n        /* \"#utility.yul\":786:795   */\n      dup3\n        /* \"#utility.yul\":777:784   */\n      dup5\n        /* \"#utility.yul\":773:796   */\n      sub\n        /* \"#utility.yul\":769:801   */\n      slt\n        /* \"#utility.yul\":766:885   */\n      iszero\n      tag_163\n      jumpi\n        /* \"#utility.yul\":804:883   */\n      tag_164\n      tag_114\n      jump\t// in\n    tag_164:\n        /* \"#utility.yul\":766:885   */\n    tag_163:\n        /* \"#utility.yul\":924:925   */\n      0x00\n        /* \"#utility.yul\":949:1002   */\n      tag_165\n        /* \"#utility.yul\":994:1001   */\n      dup5\n        /* \"#utility.yul\":985:991   */\n      dup3\n        /* \"#utility.yul\":974:983   */\n      dup6\n        /* \"#utility.yul\":970:992   */\n      add\n        /* \"#utility.yul\":949:1002   */\n      tag_118\n      jump\t// in\n    tag_165:\n        /* \"#utility.yul\":939:1002   */\n      swap2\n      pop\n        /* \"#utility.yul\":895:1012   */\n      pop\n        /* \"#utility.yul\":690:1019   */\n      swap3\n      swap2\n      pop\n      pop\n      jump\t// out\n        /* \"#utility.yul\":1025:1124   */\n    tag_119:\n        /* \"#utility.yul\":1077:1083   */\n      0x00\n        /* \"#utility.yul\":1111:1116   */\n      dup2\n        /* \"#utility.yul\":1105:1117   */\n      mload\n        /* \"#utility.yul\":1095:1117   */\n      swap1\n      pop\n        /* \"#utility.yul\":1025:1124   */\n      swap2\n      swap1\n      pop\n      jump\t// out\n        /* \"#utility.yul\":1130:1299   */\n    tag_120:\n        /* \"#utility.yul\":1214:1225   */\n      0x00\n        /* \"#utility.yul\":1248:1254   */\n      dup3\n        /* \"#utility.yul\":1243:1246   */\n      dup3\n        /* \"#utility.yul\":1236:1255   */\n      mstore\n        /* \"#utility.yul\":1288:1292   */\n      0x20\n        /* \"#utility.yul\":1283:1286   */\n      dup3\n        /* \"#utility.yul\":1279:1293   */\n      add\n        /* \"#utility.yul\":1264:1293   */\n      swap1\n      pop\n        /* \"#utility.yul\":1130:1299   */\n      swap3\n      swap2\n      pop\n      pop\n      jump\t// out\n        /* \"#utility.yul\":1305:1444   */\n    tag_121:\n        /* \"#utility.yul\":1394:1400   */\n      dup3\n        /* \"#utility.yul\":1389:1392   */\n      dup2\n        /* \"#utility.yul\":1384:1387   */\n      dup4\n        /* \"#utility.yul\":1378:1401   */\n      mcopy\n        /* \"#utility.yul\":1435:1436   */\n      0x00\n        /* \"#utility.yul\":1426:1432   */\n      dup4\n        /* \"#utility.yul\":1421:1424   */\n      dup4\n        /* \"#utility.yul\":1417:1433   */\n      add\n        /* \"#utility.yul\":1410:1437   */\n      mstore\n        /* \"#utility.yul\":1305:1444   */\n      pop\n      pop\n      pop\n      jump\t// out\n        /* \"#utility.yul\":1450:1552   */\n    tag_122:\n        /* \"#utility.yul\":1491:1497   */\n      0x00\n        /* \"#utility.yul\":1542:1544   */\n      0x1f\n        /* \"#utility.yul\":1538:1545   */\n      not\n        /* \"#utility.yul\":1533:1535   */\n      0x1f\n        /* \"#utility.yul\":1526:1531   */\n      dup4\n        /* \"#utility.yul\":1522:1536   */\n      add\n        /* \"#utility.yul\":1518:1546   */\n      and\n        /* \"#utility.yul\":1508:1546   */\n      swap1\n      pop\n        /* \"#utility.yul\":1450:1552   */\n      swap2\n      swap1\n      pop\n      jump\t// out\n        /* \"#utility.yul\":1558:1935   */\n    tag_123:\n        /* \"#utility.yul\":1646:1649   */\n      0x00\n        /* \"#utility.yul\":1674:1713   */\n      tag_171\n        /* \"#utility.yul\":1707:1712   */\n      dup3\n        /* \"#utility.yul\":1674:1713   */\n      tag_119\n      jump\t// in\n    tag_171:\n        /* \"#utility.yul\":1729:1800   */\n      tag_172\n        /* \"#utility.yul\":1793:1799   */\n      dup2\n        /* \"#utility.yul\":1788:1791   */\n      dup6\n        /* \"#utility.yul\":1729:1800   */\n      tag_120\n      jump\t// in\n    tag_172:\n        /* \"#utility.yul\":1722:1800   */\n      swap4\n      pop\n        /* \"#utility.yul\":1809:1874   */\n      tag_173\n        /* \"#utility.yul\":1867:1873   */\n      dup2\n        /* \"#utility.yul\":1862:1865   */\n      dup6\n        /* \"#utility.yul\":1855:1859   */\n      0x20\n        /* \"#utility.yul\":1848:1853   */\n      dup7\n        /* \"#utility.yul\":1844:1860   */\n      add\n        /* \"#utility.yul\":1809:1874   */\n      tag_121\n      jump\t// in\n    tag_173:\n        /* \"#utility.yul\":1899:1928   */\n      tag_174\n        /* \"#utility.yul\":1921:1927   */\n      dup2\n        /* \"#utility.yul\":1899:1928   */\n      tag_122\n      jump\t// in\n    tag_174:\n        /* \"#utility.yul\":1894:1897   */\n      dup5\n        /* \"#utility.yul\":1890:1929   */\n      add\n        /* \"#utility.yul\":1883:1929   */\n      swap2\n      pop\n        /* \"#utility.yul\":1650:1935   */\n      pop\n        /* \"#utility.yul\":1558:1935   */\n      swap3\n      swap2\n      pop\n      pop\n      jump\t// out\n        /* \"#utility.yul\":1941:2254   */\n    tag_17:\n        /* \"#utility.yul\":2054:2058   */\n      0x00\n        /* \"#utility.yul\":2092:2094   */\n      0x20\n        /* \"#utility.yul\":2081:2090   */\n      dup3\n        /* \"#utility.yul\":2077:2095   */\n      add\n        /* \"#utility.yul\":2069:2095   */\n      swap1\n      pop\n        /* \"#utility.yul\":2141:2150   */\n      dup2\n        /* \"#utility.yul\":2135:2139   */\n      dup2\n        /* \"#utility.yul\":2131:2151   */\n      sub\n        /* \"#utility.yul\":2127:2128   */\n      0x00\n        /* \"#utility.yul\":2116:2125   */\n      dup4\n        /* \"#utility.yul\":2112:2129   */\n      add\n        /* \"#utility.yul\":2105:2152   */\n      mstore\n        /* \"#utility.yul\":2169:2247   */\n      tag_176\n        /* \"#utility.yul\":2242:2246   */\n      dup2\n        /* \"#utility.yul\":2233:2239   */\n      dup5\n        /* \"#utility.yul\":2169:2247   */\n      tag_123\n      jump\t// in\n    tag_176:\n        /* \"#utility.yul\":2161:2247   */\n      swap1\n      pop\n        /* \"#utility.yul\":1941:2254   */\n      swap3\n      swap2\n      pop\n      pop\n      jump\t// out\n        /* \"#utility.yul\":2260:2346   */\n    tag_124:\n        /* \"#utility.yul\":2295:2302   */\n      0x00\n        /* \"#utility.yul\":2335:2339   */\n      0xff\n        /* \"#utility.yul\":2328:2333   */\n      dup3\n        /* \"#utility.yul\":2324:2340   */\n      and\n        /* \"#utility.yul\":2313:2340   */\n      swap1\n      pop\n        /* \"#utility.yul\":2260:2346   */\n      swap2\n      swap1\n      pop\n      jump\t// out\n        /* \"#utility.yul\":2352:2470   */\n    tag_125:\n        /* \"#utility.yul\":2423:2445   */\n      tag_179\n        /* \"#utility.yul\":2439:2444   */\n      dup2\n        /* \"#utility.yul\":2423:2445   */\n      tag_124\n      jump\t// in\n    tag_179:\n        /* \"#utility.yul\":2416:2421   */\n      dup2\n        /* \"#utility.yul\":2413:2446   */\n      eq\n        /* \"#utility.yul\":2403:2464   */\n      tag_180\n      jumpi\n        /* \"#utility.yul\":2460:2461   */\n      0x00\n        /* \"#utility.yul\":2457:2458   */\n      0x00\n        /* \"#utility.yul\":2450:2462   */\n      revert\n        /* \"#utility.yul\":2403:2464   */\n    tag_180:\n        /* \"#utility.yul\":2352:2470   */\n      pop\n      jump\t// out\n        /* \"#utility.yul\":2476:2611   */\n    tag_126:\n        /* \"#utility.yul\":2520:2525   */\n      0x00\n        /* \"#utility.yul\":2558:2564   */\n      dup2\n        /* \"#utility.yul\":2545:2565   */\n      calldataload\n        /* \"#utility.yul\":2536:2565   */\n      swap1\n      pop\n        /* \"#utility.yul\":2574:2605   */\n      tag_182\n        /* \"#utility.yul\":2599:2604   */\n      dup2\n        /* \"#utility.yul\":2574:2605   */\n      tag_125\n      jump\t// in\n    tag_182:\n        /* \"#utility.yul\":2476:2611   */\n      swap3\n      swap2\n      pop\n      pop\n      jump\t// out\n        /* \"#utility.yul\":2617:3083   */\n    tag_23:\n        /* \"#utility.yul\":2681:2687   */\n      0x00\n        /* \"#utility.yul\":2689:2695   */\n      0x00\n        /* \"#utility.yul\":2738:2740   */\n      0x40\n        /* \"#utility.yul\":2726:2735   */\n      dup4\n        /* \"#utility.yul\":2717:2724   */\n      dup6\n        /* \"#utility.yul\":2713:2736   */\n      sub\n        /* \"#utility.yul\":2709:2741   */\n      slt\n        /* \"#utility.yul\":2706:2825   */\n      iszero\n      tag_184\n      jumpi\n        /* \"#utility.yul\":2744:2823   */\n      tag_185\n      tag_114\n      jump\t// in\n    tag_185:\n        /* \"#utility.yul\":2706:2825   */\n    tag_184:\n        /* \"#utility.yul\":2864:2865   */\n      0x00\n        /* \"#utility.yul\":2889:2940   */\n      tag_186\n        /* \"#utility.yul\":2932:2939   */\n      dup6\n        /* \"#utility.yul\":2923:2929   */\n      dup3\n        /* \"#utility.yul\":2912:2921   */\n      dup7\n        /* \"#utility.yul\":2908:2930   */\n      add\n        /* \"#utility.yul\":2889:2940   */\n      tag_126\n      jump\t// in\n    tag_186:\n        /* \"#utility.yul\":2879:2940   */\n      swap3\n      pop\n        /* \"#utility.yul\":2835:2950   */\n      pop\n        /* \"#utility.yul\":2989:2991   */\n      0x20\n        /* \"#utility.yul\":3015:3066   */\n      tag_187\n        /* \"#utility.yul\":3058:3065   */\n      dup6\n        /* \"#utility.yul\":3049:3055   */\n      dup3\n        /* \"#utility.yul\":3038:3047   */\n      dup7\n        /* \"#utility.yul\":3034:3056   */\n      add\n        /* \"#utility.yul\":3015:3066   */\n      tag_126\n      jump\t// in\n    tag_187:\n        /* \"#utility.yul\":3005:3066   */\n      swap2\n      pop\n        /* \"#utility.yul\":2960:3076   */\n      pop\n        /* \"#utility.yul\":2617:3083   */\n      swap3\n      pop\n      swap3\n      swap1\n      pop\n      jump\t// out\n        /* \"#utility.yul\":3089:3206   */\n    tag_127:\n        /* \"#utility.yul\":3198:3199   */\n      0x00\n        /* \"#utility.yul\":3195:3196   */\n      0x00\n        /* \"#utility.yul\":3188:3200   */\n      revert\n        /* \"#utility.yul\":3212:3329   */\n    tag_128:\n        /* \"#utility.yul\":3321:3322   */\n      0x00\n        /* \"#utility.yul\":3318:3319   */\n      0x00\n        /* \"#utility.yul\":3311:3323   */\n      revert\n        /* \"#utility.yul\":3335:3515   */\n    tag_129:\n        /* \"#utility.yul\":3383:3460   */\n      0x4e487b7100000000000000000000000000000000000000000000000000000000\n        /* \"#utility.yul\":3380:3381   */\n      0x00\n        /* \"#utility.yul\":3373:3461   */\n      mstore\n        /* \"#utility.yul\":3480:3484   */\n      0x41\n        /* \"#utility.yul\":3477:3478   */\n      0x04\n        /* \"#utility.yul\":3470:3485   */\n      mstore\n        /* \"#utility.yul\":3504:3508   */\n      0x24\n        /* \"#utility.yul\":3501:3502   */\n      0x00\n        /* \"#utility.yul\":3494:3509   */\n      revert\n        /* \"#utility.yul\":3521:3802   */\n    tag_130:\n        /* \"#utility.yul\":3604:3631   */\n      tag_192\n        /* \"#utility.yul\":3626:3630   */\n      dup3\n        /* \"#utility.yul\":3604:3631   */\n      tag_122\n      jump\t// in\n    tag_192:\n        /* \"#utility.yul\":3596:3602   */\n      dup2\n        /* \"#utility.yul\":3592:3632   */\n      add\n        /* \"#utility.yul\":3734:3740   */\n      dup2\n        /* \"#utility.yul\":3722:3732   */\n      dup2\n        /* \"#utility.yul\":3719:3741   */\n      lt\n        /* \"#utility.yul\":3698:3716   */\n      0xffffffffffffffff\n        /* \"#utility.yul\":3686:3696   */\n      dup3\n        /* \"#utility.yul\":3683:3717   */\n      gt\n        /* \"#utility.yul\":3680:3742   */\n      or\n        /* \"#utility.yul\":3677:3765   */\n      iszero\n      tag_193\n      jumpi\n        /* \"#utility.yul\":3745:3763   */\n      tag_194\n      tag_129\n      jump\t// in\n    tag_194:\n        /* \"#utility.yul\":3677:3765   */\n    tag_193:\n        /* \"#utility.yul\":3785:3795   */\n      dup1\n        /* \"#utility.yul\":3781:3783   */\n      0x40\n        /* \"#utility.yul\":3774:3796   */\n      mstore\n        /* \"#utility.yul\":3564:3802   */\n      pop\n        /* \"#utility.yul\":3521:3802   */\n      pop\n      pop\n      jump\t// out\n        /* \"#utility.yul\":3808:3937   */\n    tag_131:\n        /* \"#utility.yul\":3842:3848   */\n      0x00\n        /* \"#utility.yul\":3869:3889   */\n      tag_196\n      tag_113\n      jump\t// in\n    tag_196:\n        /* \"#utility.yul\":3859:3889   */\n      swap1\n      pop\n        /* \"#utility.yul\":3898:3931   */\n      tag_197\n        /* \"#utility.yul\":3926:3930   */\n      dup3\n        /* \"#utility.yul\":3918:3924   */\n      dup3\n        /* \"#utility.yul\":3898:3931   */\n      tag_130\n      jump\t// in\n    tag_197:\n        /* \"#utility.yul\":3808:3937   */\n      swap2\n      swap1\n      pop\n      jump\t// out\n        /* \"#utility.yul\":3943:4251   */\n    tag_132:\n        /* \"#utility.yul\":4005:4009   */\n      0x00\n        /* \"#utility.yul\":4095:4113   */\n      0xffffffffffffffff\n        /* \"#utility.yul\":4087:4093   */\n      dup3\n        /* \"#utility.yul\":4084:4114   */\n      gt\n        /* \"#utility.yul\":4081:4137   */\n      iszero\n      tag_199\n      jumpi\n        /* \"#utility.yul\":4117:4135   */\n      tag_200\n      tag_129\n      jump\t// in\n    tag_200:\n        /* \"#utility.yul\":4081:4137   */\n    tag_199:\n        /* \"#utility.yul\":4155:4184   */\n      tag_201\n        /* \"#utility.yul\":4177:4183   */\n      dup3\n        /* \"#utility.yul\":4155:4184   */\n      tag_122\n      jump\t// in\n    tag_201:\n        /* \"#utility.yul\":4147:4184   */\n      swap1\n      pop\n        /* \"#utility.yul\":4239:4243   */\n      0x20\n        /* \"#utility.yul\":4233:4237   */\n      dup2\n        /* \"#utility.yul\":4229:4244   */\n      add\n        /* \"#utility.yul\":4221:4244   */\n      swap1\n      pop\n        /* \"#utility.yul\":3943:4251   */\n      swap2\n      swap1\n      pop\n      jump\t// out\n        /* \"#utility.yul\":4257:4405   */\n    tag_133:\n        /* \"#utility.yul\":4355:4361   */\n      dup3\n        /* \"#utility.yul\":4350:4353   */\n      dup2\n        /* \"#utility.yul\":4345:4348   */\n      dup4\n        /* \"#utility.yul\":4332:4362   */\n      calldatacopy\n        /* \"#utility.yul\":4396:4397   */\n      0x00\n        /* \"#utility.yul\":4387:4393   */\n      dup4\n        /* \"#utility.yul\":4382:4385   */\n      dup4\n        /* \"#utility.yul\":4378:4394   */\n      add\n        /* \"#utility.yul\":4371:4398   */\n      mstore\n        /* \"#utility.yul\":4257:4405   */\n      pop\n      pop\n      pop\n      jump\t// out\n        /* \"#utility.yul\":4411:4836   */\n    tag_134:\n        /* \"#utility.yul\":4489:4494   */\n      0x00\n        /* \"#utility.yul\":4514:4580   */\n      tag_204\n        /* \"#utility.yul\":4530:4579   */\n      tag_205\n        /* \"#utility.yul\":4572:4578   */\n      dup5\n        /* \"#utility.yul\":4530:4579   */\n      tag_132\n      jump\t// in\n    tag_205:\n        /* \"#utility.yul\":4514:4580   */\n      tag_131\n      jump\t// in\n    tag_204:\n        /* \"#utility.yul\":4505:4580   */\n      swap1\n      pop\n        /* \"#utility.yul\":4603:4609   */\n      dup3\n        /* \"#utility.yul\":4596:4601   */\n      dup2\n        /* \"#utility.yul\":4589:4610   */\n      mstore\n        /* \"#utility.yul\":4641:4645   */\n      0x20\n        /* \"#utility.yul\":4634:4639   */\n      dup2\n        /* \"#utility.yul\":4630:4646   */\n      add\n        /* \"#utility.yul\":4679:4682   */\n      dup5\n        /* \"#utility.yul\":4670:4676   */\n      dup5\n        /* \"#utility.yul\":4665:4668   */\n      dup5\n        /* \"#utility.yul\":4661:4677   */\n      add\n        /* \"#utility.yul\":4658:4683   */\n      gt\n        /* \"#utility.yul\":4655:4767   */\n      iszero\n      tag_206\n      jumpi\n        /* \"#utility.yul\":4686:4765   */\n      tag_207\n      tag_128\n      jump\t// in\n    tag_207:\n        /* \"#utility.yul\":4655:4767   */\n    tag_206:\n        /* \"#utility.yul\":4776:4830   */\n      tag_208\n        /* \"#utility.yul\":4823:4829   */\n      dup5\n        /* \"#utility.yul\":4818:4821   */\n      dup3\n        /* \"#utility.yul\":4813:4816   */\n      dup6\n        /* \"#utility.yul\":4776:4830   */\n      tag_133\n      jump\t// in\n    tag_208:\n        /* \"#utility.yul\":4495:4836   */\n      pop\n        /* \"#utility.yul\":4411:4836   */\n      swap4\n      swap3\n      pop\n      pop\n      pop\n      jump\t// out\n        /* \"#utility.yul\":4856:5196   */\n    tag_135:\n        /* \"#utility.yul\":4912:4917   */\n      0x00\n        /* \"#utility.yul\":4961:4964   */\n      dup3\n        /* \"#utility.yul\":4954:4958   */\n      0x1f\n        /* \"#utility.yul\":4946:4952   */\n      dup4\n        /* \"#utility.yul\":4942:4959   */\n      add\n        /* \"#utility.yul\":4938:4965   */\n      slt\n        /* \"#utility.yul\":4928:5050   */\n      tag_210\n      jumpi\n        /* \"#utility.yul\":4969:5048   */\n      tag_211\n      tag_127\n      jump\t// in\n    tag_211:\n        /* \"#utility.yul\":4928:5050   */\n    tag_210:\n        /* \"#utility.yul\":5086:5092   */\n      dup2\n        /* \"#utility.yul\":5073:5093   */\n      calldataload\n        /* \"#utility.yul\":5111:5190   */\n      tag_212\n        /* \"#utility.yul\":5186:5189   */\n      dup5\n        /* \"#utility.yul\":5178:5184   */\n      dup3\n        /* \"#utility.yul\":5171:5175   */\n      0x20\n        /* \"#utility.yul\":5163:5169   */\n      dup7\n        /* \"#utility.yul\":5159:5176   */\n      add\n        /* \"#utility.yul\":5111:5190   */\n      tag_134\n      jump\t// in\n    tag_212:\n        /* \"#utility.yul\":5102:5190   */\n      swap2\n      pop\n        /* \"#utility.yul\":4918:5196   */\n      pop\n        /* \"#utility.yul\":4856:5196   */\n      swap3\n      swap2\n      pop\n      pop\n      jump\t// out\n        /* \"#utility.yul\":5202:5711   */\n    tag_28:\n        /* \"#utility.yul\":5271:5277   */\n      0x00\n        /* \"#utility.yul\":5320:5322   */\n      0x20\n        /* \"#utility.yul\":5308:5317   */\n      dup3\n        /* \"#utility.yul\":5299:5306   */\n      dup5\n        /* \"#utility.yul\":5295:5318   */\n      sub\n        /* \"#utility.yul\":5291:5323   */\n      slt\n        /* \"#utility.yul\":5288:5407   */\n      iszero\n      tag_214\n      jumpi\n        /* \"#utility.yul\":5326:5405   */\n      tag_215\n      tag_114\n      jump\t// in\n    tag_215:\n        /* \"#utility.yul\":5288:5407   */\n    tag_214:\n        /* \"#utility.yul\":5474:5475   */\n      0x00\n        /* \"#utility.yul\":5463:5472   */\n      dup3\n        /* \"#utility.yul\":5459:5476   */\n      add\n        /* \"#utility.yul\":5446:5477   */\n      calldataload\n        /* \"#utility.yul\":5504:5522   */\n      0xffffffffffffffff\n        /* \"#utility.yul\":5496:5502   */\n      dup2\n        /* \"#utility.yul\":5493:5523   */\n      gt\n        /* \"#utility.yul\":5490:5607   */\n      iszero\n      tag_216\n      jumpi\n        /* \"#utility.yul\":5526:5605   */\n      tag_217\n      tag_115\n      jump\t// in\n    tag_217:\n        /* \"#utility.yul\":5490:5607   */\n    tag_216:\n        /* \"#utility.yul\":5631:5694   */\n      tag_218\n        /* \"#utility.yul\":5686:5693   */\n      dup5\n        /* \"#utility.yul\":5677:5683   */\n      dup3\n        /* \"#utility.yul\":5666:5675   */\n      dup6\n        /* \"#utility.yul\":5662:5684   */\n      add\n        /* \"#utility.yul\":5631:5694   */\n      tag_135\n      jump\t// in\n    tag_218:\n        /* \"#utility.yul\":5621:5694   */\n      swap2\n      pop\n        /* \"#utility.yul\":5417:5704   */\n      pop\n        /* \"#utility.yul\":5202:5711   */\n      swap3\n      swap2\n      pop\n      pop\n      jump\t// out\n        /* \"#utility.yul\":5717:6367   */\n    tag_32:\n        /* \"#utility.yul\":5793:5799   */\n      0x00\n        /* \"#utility.yul\":5801:5807   */\n      0x00\n        /* \"#utility.yul\":5850:5852   */\n      0x40\n        /* \"#utility.yul\":5838:5847   */\n      dup4\n        /* \"#utility.yul\":5829:5836   */\n      dup6\n        /* \"#utility.yul\":5825:5848   */\n      sub\n        /* \"#utility.yul\":5821:5853   */\n      slt\n        /* \"#utility.yul\":5818:5937   */\n      iszero\n      tag_220\n      jumpi\n        /* \"#utility.yul\":5856:5935   */\n      tag_221\n      tag_114\n      jump\t// in\n    tag_221:\n        /* \"#utility.yul\":5818:5937   */\n    tag_220:\n        /* \"#utility.yul\":5976:5977   */\n      0x00\n        /* \"#utility.yul\":6001:6052   */\n      tag_222\n        /* \"#utility.yul\":6044:6051   */\n      dup6\n        /* \"#utility.yul\":6035:6041   */\n      dup3\n        /* \"#utility.yul\":6024:6033   */\n      dup7\n        /* \"#utility.yul\":6020:6042   */\n      add\n        /* \"#utility.yul\":6001:6052   */\n      tag_126\n      jump\t// in\n    tag_222:\n        /* \"#utility.yul\":5991:6052   */\n      swap3\n      pop\n        /* \"#utility.yul\":5947:6062   */\n      pop\n        /* \"#utility.yul\":6129:6131   */\n      0x20\n        /* \"#utility.yul\":6118:6127   */\n      dup4\n        /* \"#utility.yul\":6114:6132   */\n      add\n        /* \"#utility.yul\":6101:6133   */\n      calldataload\n        /* \"#utility.yul\":6160:6178   */\n      0xffffffffffffffff\n        /* \"#utility.yul\":6152:6158   */\n      dup2\n        /* \"#utility.yul\":6149:6179   */\n      gt\n        /* \"#utility.yul\":6146:6263   */\n      iszero\n      tag_223\n      jumpi\n        /* \"#utility.yul\":6182:6261   */\n      tag_224\n      tag_115\n      jump\t// in\n    tag_224:\n        /* \"#utility.yul\":6146:6263   */\n    tag_223:\n        /* \"#utility.yul\":6287:6350   */\n      tag_225\n        /* \"#utility.yul\":6342:6349   */\n      dup6\n        /* \"#utility.yul\":6333:6339   */\n      dup3\n        /* \"#utility.yul\":6322:6331   */\n      dup7\n        /* \"#utility.yul\":6318:6340   */\n      add\n        /* \"#utility.yul\":6287:6350   */\n      tag_135\n      jump\t// in\n    tag_225:\n        /* \"#utility.yul\":6277:6350   */\n      swap2\n      pop\n        /* \"#utility.yul\":6072:6360   */\n      pop\n        /* \"#utility.yul\":5717:6367   */\n      swap3\n      pop\n      swap3\n      swap1\n      pop\n      jump\t// out\n        /* \"#utility.yul\":6373:7207   */\n    tag_43:\n        /* \"#utility.yul\":6461:6467   */\n      0x00\n        /* \"#utility.yul\":6469:6475   */\n      0x00\n        /* \"#utility.yul\":6518:6520   */\n      0x40\n        /* \"#utility.yul\":6506:6515   */\n      dup4\n        /* \"#utility.yul\":6497:6504   */\n      dup6\n        /* \"#utility.yul\":6493:6516   */\n      sub\n        /* \"#utility.yul\":6489:6521   */\n      slt\n        /* \"#utility.yul\":6486:6605   */\n      iszero\n      tag_227\n      jumpi\n        /* \"#utility.yul\":6524:6603   */\n      tag_228\n      tag_114\n      jump\t// in\n    tag_228:\n        /* \"#utility.yul\":6486:6605   */\n    tag_227:\n        /* \"#utility.yul\":6672:6673   */\n      0x00\n        /* \"#utility.yul\":6661:6670   */\n      dup4\n        /* \"#utility.yul\":6657:6674   */\n      add\n        /* \"#utility.yul\":6644:6675   */\n      calldataload\n        /* \"#utility.yul\":6702:6720   */\n      0xffffffffffffffff\n        /* \"#utility.yul\":6694:6700   */\n      dup2\n        /* \"#utility.yul\":6691:6721   */\n      gt\n        /* \"#utility.yul\":6688:6805   */\n      iszero\n      tag_229\n      jumpi\n        /* \"#utility.yul\":6724:6803   */\n      tag_230\n      tag_115\n      jump\t// in\n    tag_230:\n        /* \"#utility.yul\":6688:6805   */\n    tag_229:\n        /* \"#utility.yul\":6829:6892   */\n      tag_231\n        /* \"#utility.yul\":6884:6891   */\n      dup6\n        /* \"#utility.yul\":6875:6881   */\n      dup3\n        /* \"#utility.yul\":6864:6873   */\n      dup7\n        /* \"#utility.yul\":6860:6882   */\n      add\n        /* \"#utility.yul\":6829:6892   */\n      tag_135\n      jump\t// in\n    tag_231:\n        /* \"#utility.yul\":6819:6892   */\n      swap3\n      pop\n        /* \"#utility.yul\":6615:6902   */\n      pop\n        /* \"#utility.yul\":6969:6971   */\n      0x20\n        /* \"#utility.yul\":6958:6967   */\n      dup4\n        /* \"#utility.yul\":6954:6972   */\n      add\n        /* \"#utility.yul\":6941:6973   */\n      calldataload\n        /* \"#utility.yul\":7000:7018   */\n      0xffffffffffffffff\n        /* \"#utility.yul\":6992:6998   */\n      dup2\n        /* \"#utility.yul\":6989:7019   */\n      gt\n        /* \"#utility.yul\":6986:7103   */\n      iszero\n      tag_232\n      jumpi\n        /* \"#utility.yul\":7022:7101   */\n      tag_233\n      tag_115\n      jump\t// in\n    tag_233:\n        /* \"#utility.yul\":6986:7103   */\n    tag_232:\n        /* \"#utility.yul\":7127:7190   */\n      tag_234\n        /* \"#utility.yul\":7182:7189   */\n      dup6\n        /* \"#utility.yul\":7173:7179   */\n      dup3\n        /* \"#utility.yul\":7162:7171   */\n      dup7\n        /* \"#utility.yul\":7158:7180   */\n      add\n        /* \"#utility.yul\":7127:7190   */\n      tag_135\n      jump\t// in\n    tag_234:\n        /* \"#utility.yul\":7117:7190   */\n      swap2\n      pop\n        /* \"#utility.yul\":6912:7200   */\n      pop\n        /* \"#utility.yul\":6373:7207   */\n      swap3\n      pop\n      swap3\n      swap1\n      pop\n      jump\t// out\n        /* \"#utility.yul\":7213:7393   */\n    tag_136:\n        /* \"#utility.yul\":7261:7338   */\n      0x4e487b7100000000000000000000000000000000000000000000000000000000\n        /* \"#utility.yul\":7258:7259   */\n      0x00\n        /* \"#utility.yul\":7251:7339   */\n      mstore\n        /* \"#utility.yul\":7358:7362   */\n      0x22\n        /* \"#utility.yul\":7355:7356   */\n      0x04\n        /* \"#utility.yul\":7348:7363   */\n      mstore\n        /* \"#utility.yul\":7382:7386   */\n      0x24\n        /* \"#utility.yul\":7379:7380   */\n      0x00\n        /* \"#utility.yul\":7372:7387   */\n      revert\n        /* \"#utility.yul\":7399:7719   */\n    tag_48:\n        /* \"#utility.yul\":7443:7449   */\n      0x00\n        /* \"#utility.yul\":7480:7481   */\n      0x02\n        /* \"#utility.yul\":7474:7478   */\n      dup3\n        /* \"#utility.yul\":7470:7482   */\n      div\n        /* \"#utility.yul\":7460:7482   */\n      swap1\n      pop\n        /* \"#utility.yul\":7527:7528   */\n      0x01\n        /* \"#utility.yul\":7521:7525   */\n      dup3\n        /* \"#utility.yul\":7517:7529   */\n      and\n        /* \"#utility.yul\":7548:7566   */\n      dup1\n        /* \"#utility.yul\":7538:7619   */\n      tag_237\n      jumpi\n        /* \"#utility.yul\":7604:7608   */\n      0x7f\n        /* \"#utility.yul\":7596:7602   */\n      dup3\n        /* \"#utility.yul\":7592:7609   */\n      and\n        /* \"#utility.yul\":7582:7609   */\n      swap2\n      pop\n        /* \"#utility.yul\":7538:7619   */\n    tag_237:\n        /* \"#utility.yul\":7666:7668   */\n      0x20\n        /* \"#utility.yul\":7658:7664   */\n      dup3\n        /* \"#utility.yul\":7655:7669   */\n      lt\n        /* \"#utility.yul\":7635:7653   */\n      dup2\n        /* \"#utility.yul\":7632:7670   */\n      sub\n        /* \"#utility.yul\":7629:7713   */\n      tag_238\n      jumpi\n        /* \"#utility.yul\":7685:7703   */\n      tag_239\n      tag_136\n      jump\t// in\n    tag_239:\n        /* \"#utility.yul\":7629:7713   */\n    tag_238:\n        /* \"#utility.yul\":7450:7719   */\n      pop\n        /* \"#utility.yul\":7399:7719   */\n      swap2\n      swap1\n      pop\n      jump\t// out\n        /* \"#utility.yul\":7725:7905   */\n    tag_56:\n        /* \"#utility.yul\":7773:7850   */\n      0x4e487b7100000000000000000000000000000000000000000000000000000000\n        /* \"#utility.yul\":7770:7771   */\n      0x00\n        /* \"#utility.yul\":7763:7851   */\n      mstore\n        /* \"#utility.yul\":7870:7874   */\n      0x32\n        /* \"#utility.yul\":7867:7868   */\n      0x04\n        /* \"#utility.yul\":7860:7875   */\n      mstore\n        /* \"#utility.yul\":7894:7898   */\n      0x24\n        /* \"#utility.yul\":7891:7892   */\n      0x00\n        /* \"#utility.yul\":7884:7899   */\n      revert\n        /* \"#utility.yul\":7911:8052   */\n    tag_137:\n        /* \"#utility.yul\":7960:7964   */\n      0x00\n        /* \"#utility.yul\":7983:7986   */\n      dup2\n        /* \"#utility.yul\":7975:7986   */\n      swap1\n      pop\n        /* \"#utility.yul\":8006:8009   */\n      dup2\n        /* \"#utility.yul\":8003:8004   */\n      0x00\n        /* \"#utility.yul\":7996:8010   */\n      mstore\n        /* \"#utility.yul\":8040:8044   */\n      0x20\n        /* \"#utility.yul\":8037:8038   */\n      0x00\n        /* \"#utility.yul\":8027:8045   */\n      keccak256\n        /* \"#utility.yul\":8019:8045   */\n      swap1\n      pop\n        /* \"#utility.yul\":7911:8052   */\n      swap2\n      swap1\n      pop\n      jump\t// out\n        /* \"#utility.yul\":8058:8151   */\n    tag_138:\n        /* \"#utility.yul\":8095:8101   */\n      0x00\n        /* \"#utility.yul\":8142:8144   */\n      0x20\n        /* \"#utility.yul\":8137:8139   */\n      0x1f\n        /* \"#utility.yul\":8130:8135   */\n      dup4\n        /* \"#utility.yul\":8126:8140   */\n      add\n        /* \"#utility.yul\":8122:8145   */\n      div\n        /* \"#utility.yul\":8112:8145   */\n      swap1\n      pop\n        /* \"#utility.yul\":8058:8151   */\n      swap2\n      swap1\n      pop\n      jump\t// out\n        /* \"#utility.yul\":8157:8264   */\n    tag_139:\n        /* \"#utility.yul\":8201:8209   */\n      0x00\n        /* \"#utility.yul\":8251:8256   */\n      dup3\n        /* \"#utility.yul\":8245:8249   */\n      dup3\n        /* \"#utility.yul\":8241:8257   */\n      shl\n        /* \"#utility.yul\":8220:8257   */\n      swap1\n      pop\n        /* \"#utility.yul\":8157:8264   */\n      swap3\n      swap2\n      pop\n      pop\n      jump\t// out\n        /* \"#utility.yul\":8270:8663   */\n    tag_140:\n        /* \"#utility.yul\":8339:8345   */\n      0x00\n        /* \"#utility.yul\":8389:8390   */\n      0x08\n        /* \"#utility.yul\":8377:8387   */\n      dup4\n        /* \"#utility.yul\":8373:8391   */\n      mul\n        /* \"#utility.yul\":8412:8509   */\n      tag_245\n        /* \"#utility.yul\":8442:8508   */\n      0xffffffffffffffffffffffffffffffffffffffffffffffffffffffffffffffff\n        /* \"#utility.yul\":8431:8440   */\n      dup3\n        /* \"#utility.yul\":8412:8509   */\n      tag_139\n      jump\t// in\n    tag_245:\n        /* \"#utility.yul\":8530:8569   */\n      tag_246\n        /* \"#utility.yul\":8560:8568   */\n      dup7\n        /* \"#utility.yul\":8549:8558   */\n      dup4\n        /* \"#utility.yul\":8530:8569   */\n      tag_139\n      jump\t// in\n    tag_246:\n        /* \"#utility.yul\":8518:8569   */\n      swap6\n      pop\n        /* \"#utility.yul\":8602:8606   */\n      dup1\n        /* \"#utility.yul\":8598:8607   */\n      not\n        /* \"#utility.yul\":8591:8596   */\n      dup5\n        /* \"#utility.yul\":8587:8608   */\n      and\n        /* \"#utility.yul\":8578:8608   */\n      swap4\n      pop\n        /* \"#utility.yul\":8651:8655   */\n      dup1\n        /* \"#utility.yul\":8641:8649   */\n      dup7\n        /* \"#utility.yul\":8637:8656   */\n      and\n        /* \"#utility.yul\":8630:8635   */\n      dup5\n        /* \"#utility.yul\":8627:8657   */\n      or\n        /* \"#utility.yul\":8617:8657   */\n      swap3\n      pop\n        /* \"#utility.yul\":8346:8663   */\n      pop\n      pop\n        /* \"#utility.yul\":8270:8663   */\n      swap4\n      swap3\n      pop\n      pop\n      pop\n      jump\t// out\n        /* \"#utility.yul\":8669:8729   */\n    tag_141:\n        /* \"#utility.yul\":8697:8700   */\n      0x00\n        /* \"#utility.yul\":8718:8723   */\n      dup2\n        /* \"#utility.yul\":8711:8723   */\n      swap1\n      pop\n        /* \"#utility.yul\":8669:8729   */\n      swap2\n      swap1\n      pop\n      jump\t// out\n        /* \"#utility.yul\":8735:8877   */\n    tag_142:\n        /* \"#utility.yul\":8785:8794   */\n      0x00\n        /* \"#utility.yul\":8818:8871   */\n      tag_249\n        /* \"#utility.yul\":8836:8870   */\n      tag_250\n        /* \"#utility.yul\":8845:8869   */\n      tag_251\n        /* \"#utility.yul\":8863:8868   */\n      dup5\n        /* \"#utility.yul\":8845:8869   */\n      tag_116\n      jump\t// in\n    tag_251:\n        /* \"#utility.yul\":8836:8870   */\n      tag_141\n      jump\t// in\n    tag_250:\n        /* \"#utility.yul\":8818:8871   */\n      tag_116\n      jump\t// in\n    tag_249:\n        /* \"#utility.yul\":8805:8871   */\n      swap1\n      pop\n        /* \"#utility.yul\":8735:8877   */\n      swap2\n      swap1\n      pop\n      jump\t// out\n        /* \"#utility.yul\":8883:8958   */\n    tag_143:\n        /* \"#utility.yul\":8926:8929   */\n      0x00\n        /* \"#utility.yul\":8947:8952   */\n      dup2\n        /* \"#utility.yul\":8940:8952   */\n      swap1\n      pop\n        /* \"#utility.yul\":8883:8958   */\n      swap2\n      swap1\n      pop\n      jump\t// out\n        /* \"#utility.yul\":8964:9233   */\n    tag_144:\n        /* \"#utility.yul\":9074:9113   */\n      tag_254\n        /* \"#utility.yul\":9105:9112   */\n      dup4\n        /* \"#utility.yul\":9074:9113   */\n      tag_142\n      jump\t// in\n    tag_254:\n        /* \"#utility.yul\":9135:9226   */\n      tag_255\n        /* \"#utility.yul\":9184:9225   */\n      tag_256\n        /* \"#utility.yul\":9208:9224   */\n      dup3\n        /* \"#utility.yul\":9184:9225   */\n      tag_143\n      jump\t// in\n    tag_256:\n        /* \"#utility.yul\":9176:9182   */\n      dup5\n        /* \"#utility.yul\":9169:9173   */\n      dup5\n        /* \"#utility.yul\":9163:9174   */\n      sload\n        /* \"#utility.yul\":9135:9226   */\n      tag_140\n      jump\t// in\n    tag_255:\n        /* \"#utility.yul\":9129:9133   */\n      dup3\n        /* \"#utility.yul\":9122:9227   */\n      sstore\n        /* \"#utility.yul\":9040:9233   */\n      pop\n        /* \"#utility.yul\":8964:9233   */\n      pop\n      pop\n      pop\n      jump\t// out\n        /* \"#utility.yul\":9239:9312   */\n    tag_145:\n        /* \"#utility.yul\":9284:9287   */\n      0x00\n        /* \"#utility.yul\":9305:9306   */\n      0x00\n        /* \"#utility.yul\":9298:9306   */\n      swap1\n      pop\n        /* \"#utility.yul\":9239:9312   */\n      swap1\n      jump\t// out\n        /* \"#utility.yul\":9318:9507   */\n    tag_146:\n        /* \"#utility.yul\":9395:9427   */\n      tag_259\n      tag_145\n      jump\t// in\n    tag_259:\n        /* \"#utility.yul\":9436:9501   */\n      tag_260\n        /* \"#utility.yul\":9494:9500   */\n      dup2\n        /* \"#utility.yul\":9486:9492   */\n      dup5\n        /* \"#utility.yul\":9480:9484   */\n      dup5\n        /* \"#utility.yul\":9436:9501   */\n      tag_144\n      jump\t// in\n    tag_260:\n        /* \"#utility.yul\":9371:9507   */\n      pop\n        /* \"#utility.yul\":9318:9507   */\n      pop\n      pop\n      jump\t// out\n        /* \"#utility.yul\":9513:9699   */\n    tag_147:\n        /* \"#utility.yul\":9573:9693   */\n    tag_262:\n        /* \"#utility.yul\":9590:9593   */\n      dup2\n        /* \"#utility.yul\":9583:9588   */\n      dup2\n        /* \"#utility.yul\":9580:9594   */\n      lt\n        /* \"#utility.yul\":9573:9693   */\n      iszero\n      tag_264\n      jumpi\n        /* \"#utility.yul\":9644:9683   */\n      tag_265\n        /* \"#utility.yul\":9681:9682   */\n      0x00\n        /* \"#utility.yul\":9674:9679   */\n      dup3\n        /* \"#utility.yul\":9644:9683   */\n      tag_146\n      jump\t// in\n    tag_265:\n        /* \"#utility.yul\":9617:9618   */\n      0x01\n        /* \"#utility.yul\":9610:9615   */\n      dup2\n        /* \"#utility.yul\":9606:9619   */\n      add\n        /* \"#utility.yul\":9597:9619   */\n      swap1\n      pop\n        /* \"#utility.yul\":9573:9693   */\n      jump(tag_262)\n    tag_264:\n        /* \"#utility.yul\":9513:9699   */\n      pop\n      pop\n      jump\t// out\n        /* \"#utility.yul\":9705:10248   */\n    tag_148:\n        /* \"#utility.yul\":9806:9808   */\n      0x1f\n        /* \"#utility.yul\":9801:9804   */\n      dup3\n        /* \"#utility.yul\":9798:9809   */\n      gt\n        /* \"#utility.yul\":9795:10241   */\n      iszero\n      tag_267\n      jumpi\n        /* \"#utility.yul\":9840:9878   */\n      tag_268\n        /* \"#utility.yul\":9872:9877   */\n      dup2\n        /* \"#utility.yul\":9840:9878   */\n      tag_137\n      jump\t// in\n    tag_268:\n        /* \"#utility.yul\":9924:9953   */\n      tag_269\n        /* \"#utility.yul\":9942:9952   */\n      dup5\n        /* \"#utility.yul\":9924:9953   */\n      tag_138\n      jump\t// in\n    tag_269:\n        /* \"#utility.yul\":9914:9922   */\n      dup2\n        /* \"#utility.yul\":9910:9954   */\n      add\n        /* \"#utility.yul\":10107:10109   */\n      0x20\n        /* \"#utility.yul\":10095:10105   */\n      dup6\n        /* \"#utility.yul\":10092:10110   */\n      lt\n        /* \"#utility.yul\":10089:10138   */\n      iszero\n      tag_270\n      jumpi\n        /* \"#utility.yul\":10128:10136   */\n      dup2\n        /* \"#utility.yul\":10113:10136   */\n      swap1\n      pop\n        /* \"#utility.yul\":10089:10138   */\n    tag_270:\n        /* \"#utility.yul\":10151:10231   */\n      tag_271\n        /* \"#utility.yul\":10207:10229   */\n      tag_272\n        /* \"#utility.yul\":10225:10228   */\n      dup6\n        /* \"#utility.yul\":10207:10229   */\n      tag_138\n      jump\t// in\n    tag_272:\n        /* \"#utility.yul\":10197:10205   */\n      dup4\n        /* \"#utility.yul\":10193:10230   */\n      add\n        /* \"#utility.yul\":10180:10191   */\n      dup3\n        /* \"#utility.yul\":10151:10231   */\n      tag_147\n      jump\t// in\n    tag_271:\n        /* \"#utility.yul\":9810:10241   */\n      pop\n      pop\n        /* \"#utility.yul\":9795:10241   */\n    tag_267:\n        /* \"#utility.yul\":9705:10248   */\n      pop\n      pop\n      pop\n      jump\t// out\n        /* \"#utility.yul\":10254:10371   */\n    tag_149:\n        /* \"#utility.yul\":10308:10316   */\n      0x00\n        /* \"#utility.yul\":10358:10363   */\n      dup3\n        /* \"#utility.yul\":10352:10356   */\n      dup3\n        /* \"#utility.yul\":10348:10364   */\n      shr\n        /* \"#utility.yul\":10327:10364   */\n      swap1\n      pop\n        /* \"#utility.yul\":10254:10371   */\n      swap3\n      swap2\n      pop\n      pop\n      jump\t// out\n        /* \"#utility.yul\":10377:10546   */\n    tag_150:\n        /* \"#utility.yul\":10421:10427   */\n      0x00\n        /* \"#utility.yul\":10454:10505   */\n      tag_275\n        /* \"#utility.yul\":10502:10503   */\n      0x00\n        /* \"#utility.yul\":10498:10504   */\n      not\n        /* \"#utility.yul\":10490:10495   */\n      dup5\n        /* \"#utility.yul\":10487:10488   */\n      0x08\n        /* \"#utility.yul\":10483:10496   */\n      mul\n        /* \"#utility.yul\":10454:10505   */\n      tag_149\n      jump\t// in\n    tag_275:\n        /* \"#utility.yul\":10450:10506   */\n      not\n        /* \"#utility.yul\":10535:10539   */\n      dup1\n        /* \"#utility.yul\":10529:10533   */\n      dup4\n        /* \"#utility.yul\":10525:10540   */\n      and\n        /* \"#utility.yul\":10515:10540   */\n      swap2\n      pop\n        /* \"#utility.yul\":10428:10546   */\n      pop\n        /* \"#utility.yul\":10377:10546   */\n      swap3\n      swap2\n      pop\n      pop\n      jump\t// out\n        /* \"#utility.yul\":10551:10846   */\n    tag_151:\n        /* \"#utility.yul\":10627:10631   */\n      0x00\n        /* \"#utility.yul\":10773:10802   */\n      tag_277\n        /* \"#utility.yul\":10798:10801   */\n      dup4\n        /* \"#utility.yul\":10792:10796   */\n      dup4\n        /* \"#utility.yul\":10773:10802   */\n      tag_150\n      jump\t// in\n    tag_277:\n        /* \"#utility.yul\":10765:10802   */\n      swap2\n      pop\n        /* \"#utility.yul\":10835:10838   */\n      dup3\n        /* \"#utility.yul\":10832:10833   */\n      0x02\n        /* \"#utility.yul\":10828:10839   */\n      mul\n        /* \"#utility.yul\":10822:10826   */\n      dup3\n        /* \"#utility.yul\":10819:10840   */\n      or\n        /* \"#utility.yul\":10811:10840   */\n      swap1\n      pop\n        /* \"#utility.yul\":10551:10846   */\n      swap3\n      swap2\n      pop\n      pop\n      jump\t// out\n        /* \"#utility.yul\":10851:12246   */\n    tag_75:\n        /* \"#utility.yul\":10968:11005   */\n      tag_279\n        /* \"#utility.yul\":11001:11004   */\n      dup3\n        /* \"#utility.yul\":10968:11005   */\n      tag_119\n      jump\t// in\n    tag_279:\n        /* \"#utility.yul\":11070:11088   */\n      0xffffffffffffffff\n        /* \"#utility.yul\":11062:11068   */\n      dup2\n        /* \"#utility.yul\":11059:11089   */\n      gt\n        /* \"#utility.yul\":11056:11112   */\n      iszero\n      tag_280\n      jumpi\n        /* \"#utility.yul\":11092:11110   */\n      tag_281\n      tag_129\n      jump\t// in\n    tag_281:\n        /* \"#utility.yul\":11056:11112   */\n    tag_280:\n        /* \"#utility.yul\":11136:11174   */\n      tag_282\n        /* \"#utility.yul\":11168:11172   */\n      dup3\n        /* \"#utility.yul\":11162:11173   */\n      sload\n        /* \"#utility.yul\":11136:11174   */\n      tag_48\n      jump\t// in\n    tag_282:\n        /* \"#utility.yul\":11221:11288   */\n      tag_283\n        /* \"#utility.yul\":11281:11287   */\n      dup3\n        /* \"#utility.yul\":11273:11279   */\n      dup3\n        /* \"#utility.yul\":11267:11271   */\n      dup6\n        /* \"#utility.yul\":11221:11288   */\n      tag_148\n      jump\t// in\n    tag_283:\n        /* \"#utility.yul\":11315:11316   */\n      0x00\n        /* \"#utility.yul\":11339:11343   */\n      0x20\n        /* \"#utility.yul\":11326:11343   */\n      swap1\n      pop\n        /* \"#utility.yul\":11371:11373   */\n      0x1f\n        /* \"#utility.yul\":11363:11369   */\n      dup4\n        /* \"#utility.yul\":11360:11374   */\n      gt\n        /* \"#utility.yul\":11388:11389   */\n      0x01\n        /* \"#utility.yul\":11383:12001   */\n      dup2\n      eq\n      tag_285\n      jumpi\n        /* \"#utility.yul\":12045:12046   */\n      0x00\n        /* \"#utility.yul\":12062:12068   */\n      dup5\n        /* \"#utility.yul\":12059:12136   */\n      iszero\n      tag_286\n      jumpi\n        /* \"#utility.yul\":12111:12120   */\n      dup3\n        /* \"#utility.yul\":12106:12109   */\n      dup8\n        /* \"#utility.yul\":12102:12121   */\n      add\n        /* \"#utility.yul\":12096:12122   */\n      mload\n        /* \"#utility.yul\":12087:12122   */\n      swap1\n      pop\n        /* \"#utility.yul\":12059:12136   */\n    tag_286:\n        /* \"#utility.yul\":12162:12229   */\n      tag_287\n        /* \"#utility.yul\":12222:12228   */\n      dup6\n        /* \"#utility.yul\":12215:12220   */\n      dup3\n        /* \"#utility.yul\":12162:12229   */\n      tag_151\n      jump\t// in\n    tag_287:\n        /* \"#utility.yul\":12156:12160   */\n      dup7\n        /* \"#utility.yul\":12149:12230   */\n      sstore\n        /* \"#utility.yul\":12018:12240   */\n      pop\n        /* \"#utility.yul\":11353:12240   */\n      jump(tag_284)\n        /* \"#utility.yul\":11383:12001   */\n    tag_285:\n        /* \"#utility.yul\":11435:11439   */\n      0x1f\n        /* \"#utility.yul\":11431:11440   */\n      not\n        /* \"#utility.yul\":11423:11429   */\n      dup5\n        /* \"#utility.yul\":11419:11441   */\n      and\n        /* \"#utility.yul\":11469:11506   */\n      tag_288\n        /* \"#utility.yul\":11501:11505   */\n      dup7\n        /* \"#utility.yul\":11469:11506   */\n      tag_137\n      jump\t// in\n    tag_288:\n        /* \"#utility.yul\":11528:11529   */\n      0x00\n        /* \"#utility.yul\":11542:11750   */\n    tag_289:\n        /* \"#utility.yul\":11556:11563   */\n      dup3\n        /* \"#utility.yul\":11553:11554   */\n      dup2\n        /* \"#utility.yul\":11550:11564   */\n      lt\n        /* \"#utility.yul\":11542:11750   */\n      iszero\n      tag_291\n      jumpi\n        /* \"#utility.yul\":11635:11644   */\n      dup5\n        /* \"#utility.yul\":11630:11633   */\n      dup10\n        /* \"#utility.yul\":11626:11645   */\n      add\n        /* \"#utility.yul\":11620:11646   */\n      mload\n        /* \"#utility.yul\":11612:11618   */\n      dup3\n        /* \"#utility.yul\":11605:11647   */\n      sstore\n        /* \"#utility.yul\":11686:11687   */\n      0x01\n        /* \"#utility.yul\":11678:11684   */\n      dup3\n        /* \"#utility.yul\":11674:11688   */\n      add\n        /* \"#utility.yul\":11664:11688   */\n      swap2\n      pop\n        /* \"#utility.yul\":11733:11735   */\n      0x20\n        /* \"#utility.yul\":11722:11731   */\n      dup6\n        /* \"#utility.yul\":11718:11736   */\n      add\n        /* \"#utility.yul\":11705:11736   */\n      swap5\n      pop\n        /* \"#utility.yul\":11579:11583   */\n      0x20\n        /* \"#utility.yul\":11576:11577   */\n      dup2\n        /* \"#utility.yul\":11572:11584   */\n      add\n        /* \"#utility.yul\":11567:11584   */\n      swap1\n      pop\n        /* \"#utility.yul\":11542:11750   */\n      jump(tag_289)\n    tag_291:\n        /* \"#utility.yul\":11778:11784   */\n      dup7\n        /* \"#utility.yul\":11769:11776   */\n      dup4\n        /* \"#utility.yul\":11766:11785   */\n      lt\n        /* \"#utility.yul\":11763:11942   */\n      iszero\n      tag_292\n      jumpi\n        /* \"#utility.yul\":11836:11845   */\n      dup5\n        /* \"#utility.yul\":11831:11834   */\n      dup10\n        /* \"#utility.yul\":11827:11846   */\n      add\n        /* \"#utility.yul\":11821:11847   */\n      mload\n        /* \"#utility.yul\":11879:11927   */\n      tag_293\n        /* \"#utility.yul\":11921:11925   */\n      0x1f\n        /* \"#utility.yul\":11913:11919   */\n      dup10\n        /* \"#utility.yul\":11909:11926   */\n      and\n        /* \"#utility.yul\":11898:11907   */\n      dup3\n        /* \"#utility.yul\":11879:11927   */\n      tag_150\n      jump\t// in\n    tag_293:\n        /* \"#utility.yul\":11871:11877   */\n      dup4\n        /* \"#utility.yul\":11864:11928   */\n      sstore\n        /* \"#utility.yul\":11786:11942   */\n      pop\n        /* \"#utility.yul\":11763:11942   */\n    tag_292:\n        /* \"#utility.yul\":11988:11989   */\n      0x01\n        /* \"#utility.yul\":11984:11985   */\n      0x02\n        /* \"#utility.yul\":11976:11982   */\n      dup9\n        /* \"#utility.yul\":11972:11986   */\n      mul\n        /* \"#utility.yul\":11968:11990   */\n      add\n        /* \"#utility.yul\":11962:11966   */\n      dup9\n        /* \"#utility.yul\":11955:11991   */\n      sstore\n        /* \"#utility.yul\":11390:12001   */\n      pop\n      pop\n      pop\n        /* \"#utility.yul\":11353:12240   */\n    tag_284:\n      pop\n        /* \"#utility.yul\":10943:12246   */\n      pop\n      pop\n      pop\n        /* \"#utility.yul\":10851:12246   */\n      pop\n      pop\n      jump\t// out\n\n    auxdata: 0xa264697066735822122018c8885b6e863b119876993e25a2192c60a0f158ff82f7f87181c3d1c38737c464736f6c634300081c0033\n}\n",
				"bytecode": {
					"linkReferences": {},
					"object": "6080604052348015600e575f5ffd5b50610c648061001c5f395ff3fe608060405234801561000f575f5ffd5b5060043610610086575f3560e01c80639fc55cad116100595780639fc55cad14610122578063b645307d1461013e578063d3e815d21461015a578063f0617e921461018a57610086565b806306ead22e1461008a57806343ce9e07146100ba57806349f119b6146100d65780635fb7f47414610106575b5f5ffd5b6100a4600480360381019061009f91906105c3565b6101a6565b6040516100b1919061065e565b60405180910390f35b6100d460048036038101906100cf91906105c3565b610244565b005b6100f060048036038101906100eb91906106b4565b61026e565b6040516100fd919061065e565b60405180910390f35b610120600480360381019061011b919061081e565b61033b565b005b61013c60048036038101906101379190610865565b610370565b005b610158600480360381019061015391906105c3565b610399565b005b610174600480360381019061016f91906105c3565b6103bb565b604051610181919061065e565b60405180910390f35b6101a4600480360381019061019f91906108bf565b610461565b005b5f81600481106101b4575f80fd5b015f9150905080546101c590610962565b80601f01602080910402602001604051908101604052809291908181526020018280546101f190610962565b801561023c5780601f106102135761010080835404028352916020019161023c565b820191905f5260205f20905b81548152906001019060200180831161021f57829003601f168201915b505050505081565b6004818154811061025857610257610992565b5b905f5260205f20015f61026b91906104ad565b50565b606060058360ff168154811061028757610286610992565b5b905f5260205f20018260ff16815481106102a4576102a3610992565b5b905f5260205f200180546102b790610962565b80601f01602080910402602001604051908101604052809291908181526020018280546102e390610962565b801561032e5780601f106103055761010080835404028352916020019161032e565b820191905f5260205f20905b81548152906001019060200180831161031157829003601f168201915b5050505050905092915050565b600481908060018154018082558091505060019003905f5260205f20015f90919091909150908161036c9190610b5f565b5050565b805f8360ff166004811061038757610386610992565b5b0190816103949190610b5f565b505050565b5f81600481106103ac576103ab610992565b5b015f6103b891906104ad565b50565b600481815481106103ca575f80fd5b905f5260205f20015f9150905080546103e290610962565b80601f016020809104026020016040519081016040528092919081815260200182805461040e90610962565b80156104595780601f1061043057610100808354040283529160200191610459565b820191905f5260205f20905b81548152906001019060200180831161043c57829003601f168201915b505050505081565b6005604051806040016040528084815260200183815250908060018154018082558091505060019003905f5260205f20015f909190919091509060026104a89291906104ea565b505050565b5080546104b990610962565b5f825580601f106104ca57506104e7565b601f0160209004905f5260205f20908101906104e69190610541565b5b50565b828054828255905f5260205f20908101928215610530579160200282015b8281111561052f57825182908161051f9190610b5f565b5091602001919060010190610508565b5b50905061053d919061055c565b5090565b5b80821115610558575f815f905550600101610542565b5090565b5b8082111561057b575f818161057291906104ad565b5060010161055d565b5090565b5f604051905090565b5f5ffd5b5f5ffd5b5f819050919050565b6105a281610590565b81146105ac575f5ffd5b50565b5f813590506105bd81610599565b92915050565b5f602082840312156105d8576105d7610588565b5b5f6105e5848285016105af565b91505092915050565b5f81519050919050565b5f82825260208201905092915050565b8281835e5f83830152505050565b5f601f19601f8301169050919050565b5f610630826105ee565b61063a81856105f8565b935061064a818560208601610608565b61065381610616565b840191505092915050565b5f6020820190508181035f8301526106768184610626565b905092915050565b5f60ff82169050919050565b6106938161067e565b811461069d575f5ffd5b50565b5f813590506106ae8161068a565b92915050565b5f5f604083850312156106ca576106c9610588565b5b5f6106d7858286016106a0565b92505060206106e8858286016106a0565b9150509250929050565b5f5ffd5b5f5ffd5b7f4e487b71000000000000000000000000000000000000000000000000000000005f52604160045260245ffd5b61073082610616565b810181811067ffffffffffffffff8211171561074f5761074e6106fa565b5b80604052505050565b5f61076161057f565b905061076d8282610727565b919050565b5f67ffffffffffffffff82111561078c5761078b6106fa565b5b61079582610616565b9050602081019050919050565b828183375f83830152505050565b5f6107c26107bd84610772565b610758565b9050828152602081018484840111156107de576107dd6106f6565b5b6107e98482856107a2565b509392505050565b5f82601f830112610805576108046106f2565b5b81356108158482602086016107b0565b91505092915050565b5f6020828403121561083357610832610588565b5b5f82013567ffffffffffffffff8111156108505761084f61058c565b5b61085c848285016107f1565b91505092915050565b5f5f6040838503121561087b5761087a610588565b5b5f610888858286016106a0565b925050602083013567ffffffffffffffff8111156108a9576108a861058c565b5b6108b5858286016107f1565b9150509250929050565b5f5f604083850312156108d5576108d4610588565b5b5f83013567ffffffffffffffff8111156108f2576108f161058c565b5b6108fe858286016107f1565b925050602083013567ffffffffffffffff81111561091f5761091e61058c565b5b61092b858286016107f1565b9150509250929050565b7f4e487b71000000000000000000000000000000000000000000000000000000005f52602260045260245ffd5b5f600282049050600182168061097957607f821691505b60208210810361098c5761098b610935565b5b50919050565b7f4e487b71000000000000000000000000000000000000000000000000000000005f52603260045260245ffd5b5f819050815f5260205f209050919050565b5f6020601f8301049050919050565b5f82821b905092915050565b5f60088302610a1b7fffffffffffffffffffffffffffffffffffffffffffffffffffffffffffffffff826109e0565b610a2586836109e0565b95508019841693508086168417925050509392505050565b5f819050919050565b5f610a60610a5b610a5684610590565b610a3d565b610590565b9050919050565b5f819050919050565b610a7983610a46565b610a8d610a8582610a67565b8484546109ec565b825550505050565b5f5f905090565b610aa4610a95565b610aaf818484610a70565b505050565b5b81811015610ad257610ac75f82610a9c565b600181019050610ab5565b5050565b601f821115610b1757610ae8816109bf565b610af1846109d1565b81016020851015610b00578190505b610b14610b0c856109d1565b830182610ab4565b50505b505050565b5f82821c905092915050565b5f610b375f1984600802610b1c565b1980831691505092915050565b5f610b4f8383610b28565b9150826002028217905092915050565b610b68826105ee565b67ffffffffffffffff811115610b8157610b806106fa565b5b610b8b8254610962565b610b96828285610ad6565b5f60209050601f831160018114610bc7575f8415610bb5578287015190505b610bbf8582610b44565b865550610c26565b601f198416610bd5866109bf565b5f5b82811015610bfc57848901518255600182019150602085019450602081019050610bd7565b86831015610c195784890151610c15601f891682610b28565b8355505b6001600288020188555050505b50505050505056fea264697066735822122018c8885b6e863b119876993e25a2192c60a0f158ff82f7f87181c3d1c38737c464736f6c634300081c0033",
					"opcodes": "PUSH1 0x80 PUSH1 0x40 MSTORE CALLVALUE DUP1 ISZERO PUSH1 0xE JUMPI PUSH0 PUSH0 REVERT JUMPDEST POP PUSH2 0xC64 DUP1 PUSH2 0x1C PUSH0 CODECOPY PUSH0 RETURN INVALID PUSH1 0x80 PUSH1 0x40 MSTORE CALLVALUE DUP1 ISZERO PUSH2 0xF JUMPI PUSH0 PUSH0 REVERT JUMPDEST POP PUSH1 0x4 CALLDATASIZE LT PUSH2 0x86 JUMPI PUSH0 CALLDATALOAD PUSH1 0xE0 SHR DUP1 PUSH4 0x9FC55CAD GT PUSH2 0x59 JUMPI DUP1 PUSH4 0x9FC55CAD EQ PUSH2 0x122 JUMPI DUP1 PUSH4 0xB645307D EQ PUSH2 0x13E JUMPI DUP1 PUSH4 0xD3E815D2 EQ PUSH2 0x15A JUMPI DUP1 PUSH4 0xF0617E92 EQ PUSH2 0x18A JUMPI PUSH2 0x86 JUMP JUMPDEST DUP1 PUSH4 0x6EAD22E EQ PUSH2 0x8A JUMPI DUP1 PUSH4 0x43CE9E07 EQ PUSH2 0xBA JUMPI DUP1 PUSH4 0x49F119B6 EQ PUSH2 0xD6 JUMPI DUP1 PUSH4 0x5FB7F474 EQ PUSH2 0x106 JUMPI JUMPDEST PUSH0 PUSH0 REVERT JUMPDEST PUSH2 0xA4 PUSH1 0x4 DUP1 CALLDATASIZE SUB DUP2 ADD SWAP1 PUSH2 0x9F SWAP2 SWAP1 PUSH2 0x5C3 JUMP JUMPDEST PUSH2 0x1A6 JUMP JUMPDEST PUSH1 0x40 MLOAD PUSH2 0xB1 SWAP2 SWAP1 PUSH2 0x65E JUMP JUMPDEST PUSH1 0x40 MLOAD DUP1 SWAP2 SUB SWAP1 RETURN JUMPDEST PUSH2 0xD4 PUSH1 0x4 DUP1 CALLDATASIZE SUB DUP2 ADD SWAP1 PUSH2 0xCF SWAP2 SWAP1 PUSH2 0x5C3 JUMP JUMPDEST PUSH2 0x244 JUMP JUMPDEST STOP JUMPDEST PUSH2 0xF0 PUSH1 0x4 DUP1 CALLDATASIZE SUB DUP2 ADD SWAP1 PUSH2 0xEB SWAP2 SWAP1 PUSH2 0x6B4 JUMP JUMPDEST PUSH2 0x26E JUMP JUMPDEST PUSH1 0x40 MLOAD PUSH2 0xFD SWAP2 SWAP1 PUSH2 0x65E JUMP JUMPDEST PUSH1 0x40 MLOAD DUP1 SWAP2 SUB SWAP1 RETURN JUMPDEST PUSH2 0x120 PUSH1 0x4 DUP1 CALLDATASIZE SUB DUP2 ADD SWAP1 PUSH2 0x11B SWAP2 SWAP1 PUSH2 0x81E JUMP JUMPDEST PUSH2 0x33B JUMP JUMPDEST STOP JUMPDEST PUSH2 0x13C PUSH1 0x4 DUP1 CALLDATASIZE SUB DUP2 ADD SWAP1 PUSH2 0x137 SWAP2 SWAP1 PUSH2 0x865 JUMP JUMPDEST PUSH2 0x370 JUMP JUMPDEST STOP JUMPDEST PUSH2 0x158 PUSH1 0x4 DUP1 CALLDATASIZE SUB DUP2 ADD SWAP1 PUSH2 0x153 SWAP2 SWAP1 PUSH2 0x5C3 JUMP JUMPDEST PUSH2 0x399 JUMP JUMPDEST STOP JUMPDEST PUSH2 0x174 PUSH1 0x4 DUP1 CALLDATASIZE SUB DUP2 ADD SWAP1 PUSH2 0x16F SWAP2 SWAP1 PUSH2 0x5C3 JUMP JUMPDEST PUSH2 0x3BB JUMP JUMPDEST PUSH1 0x40 MLOAD PUSH2 0x181 SWAP2 SWAP1 PUSH2 0x65E JUMP JUMPDEST PUSH1 0x40 MLOAD DUP1 SWAP2 SUB SWAP1 RETURN JUMPDEST PUSH2 0x1A4 PUSH1 0x4 DUP1 CALLDATASIZE SUB DUP2 ADD SWAP1 PUSH2 0x19F SWAP2 SWAP1 PUSH2 0x8BF JUMP JUMPDEST PUSH2 0x461 JUMP JUMPDEST STOP JUMPDEST PUSH0 DUP2 PUSH1 0x4 DUP2 LT PUSH2 0x1B4 JUMPI PUSH0 DUP1 REVERT JUMPDEST ADD PUSH0 SWAP2 POP SWAP1 POP DUP1 SLOAD PUSH2 0x1C5 SWAP1 PUSH2 0x962 JUMP JUMPDEST DUP1 PUSH1 0x1F ADD PUSH1 0x20 DUP1 SWAP2 DIV MUL PUSH1 0x20 ADD PUSH1 0x40 MLOAD SWAP1 DUP2 ADD PUSH1 0x40 MSTORE DUP1 SWAP3 SWAP2 SWAP1 DUP2 DUP2 MSTORE PUSH1 0x20 ADD DUP3 DUP1 SLOAD PUSH2 0x1F1 SWAP1 PUSH2 0x962 JUMP JUMPDEST DUP1 ISZERO PUSH2 0x23C JUMPI DUP1 PUSH1 0x1F LT PUSH2 0x213 JUMPI PUSH2 0x100 DUP1 DUP4 SLOAD DIV MUL DUP4 MSTORE SWAP2 PUSH1 0x20 ADD SWAP2 PUSH2 0x23C JUMP JUMPDEST DUP3 ADD SWAP2 SWAP1 PUSH0 MSTORE PUSH1 0x20 PUSH0 KECCAK256 SWAP1 JUMPDEST DUP2 SLOAD DUP2 MSTORE SWAP1 PUSH1 0x1 ADD SWAP1 PUSH1 0x20 ADD DUP1 DUP4 GT PUSH2 0x21F JUMPI DUP3 SWAP1 SUB PUSH1 0x1F AND DUP3 ADD SWAP2 JUMPDEST POP POP POP POP POP DUP2 JUMP JUMPDEST PUSH1 0x4 DUP2 DUP2 SLOAD DUP2 LT PUSH2 0x258 JUMPI PUSH2 0x257 PUSH2 0x992 JUMP JUMPDEST JUMPDEST SWAP1 PUSH0 MSTORE PUSH1 0x20 PUSH0 KECCAK256 ADD PUSH0 PUSH2 0x26B SWAP2 SWAP1 PUSH2 0x4AD JUMP JUMPDEST POP JUMP JUMPDEST PUSH1 0x60 PUSH1 0x5 DUP4 PUSH1 0xFF AND DUP2 SLOAD DUP2 LT PUSH2 0x287 JUMPI PUSH2 0x286 PUSH2 0x992 JUMP JUMPDEST JUMPDEST SWAP1 PUSH0 MSTORE PUSH1 0x20 PUSH0 KECCAK256 ADD DUP3 PUSH1 0xFF AND DUP2 SLOAD DUP2 LT PUSH2 0x2A4 JUMPI PUSH2 0x2A3 PUSH2 0x992 JUMP JUMPDEST JUMPDEST SWAP1 PUSH0 MSTORE PUSH1 0x20 PUSH0 KECCAK256 ADD DUP1 SLOAD PUSH2 0x2B7 SWAP1 PUSH2 0x962 JUMP JUMPDEST DUP1 PUSH1 0x1F ADD PUSH1 0x20 DUP1 SWAP2 DIV MUL PUSH1 0x20 ADD PUSH1 0x40 MLOAD SWAP1 DUP2 ADD PUSH1 0x40 MSTORE DUP1 SWAP3 SWAP2 SWAP1 DUP2 DUP2 MSTORE PUSH1 0x20 ADD DUP3 DUP1 SLOAD PUSH2 0x2E3 SWAP1 PUSH2 0x962 JUMP JUMPDEST DUP1 ISZERO PUSH2 0x32E JUMPI DUP1 PUSH1 0x1F LT PUSH2 0x305 JUMPI PUSH2 0x100 DUP1 DUP4 SLOAD DIV MUL DUP4 MSTORE SWAP2 PUSH1 0x20 ADD SWAP2 PUSH2 0x32E JUMP JUMPDEST DUP3 ADD SWAP2 SWAP1 PUSH0 MSTORE PUSH1 0x20 PUSH0 KECCAK256 SWAP1 JUMPDEST DUP2 SLOAD DUP2 MSTORE SWAP1 PUSH1 0x1 ADD SWAP1 PUSH1 0x20 ADD DUP1 DUP4 GT PUSH2 0x311 JUMPI DUP3 SWAP1 SUB PUSH1 0x1F AND DUP3 ADD SWAP2 JUMPDEST POP POP POP POP POP SWAP1 POP SWAP3 SWAP2 POP POP JUMP JUMPDEST PUSH1 0x4 DUP2 SWAP1 DUP1 PUSH1 0x1 DUP2 SLOAD ADD DUP1 DUP3 SSTORE DUP1 SWAP2 POP POP PUSH1 0x1 SWAP1 SUB SWAP1 PUSH0 MSTORE PUSH1 0x20 PUSH0 KECCAK256 ADD PUSH0 SWAP1 SWAP2 SWAP1 SWAP2 SWAP1 SWAP2 POP SWAP1 DUP2 PUSH2 0x36C SWAP2 SWAP1 PUSH2 0xB5F JUMP JUMPDEST POP POP JUMP JUMPDEST DUP1 PUSH0 DUP4 PUSH1 0xFF AND PUSH1 0x4 DUP2 LT PUSH2 0x387 JUMPI PUSH2 0x386 PUSH2 0x992 JUMP JUMPDEST JUMPDEST ADD SWAP1 DUP2 PUSH2 0x394 SWAP2 SWAP1 PUSH2 0xB5F JUMP JUMPDEST POP POP POP JUMP JUMPDEST PUSH0 DUP2 PUSH1 0x4 DUP2 LT PUSH2 0x3AC JUMPI PUSH2 0x3AB PUSH2 0x992 JUMP JUMPDEST JUMPDEST ADD PUSH0 PUSH2 0x3B8 SWAP2 SWAP1 PUSH2 0x4AD JUMP JUMPDEST POP JUMP JUMPDEST PUSH1 0x4 DUP2 DUP2 SLOAD DUP2 LT PUSH2 0x3CA JUMPI PUSH0 DUP1 REVERT JUMPDEST SWAP1 PUSH0 MSTORE PUSH1 0x20 PUSH0 KECCAK256 ADD PUSH0 SWAP2 POP SWAP1 POP DUP1 SLOAD PUSH2 0x3E2 SWAP1 PUSH2 0x962 JUMP JUMPDEST DUP1 PUSH1 0x1F ADD PUSH1 0x20 DUP1 SWAP2 DIV MUL PUSH1 0x20 ADD PUSH1 0x40 MLOAD SWAP1 DUP2 ADD PUSH1 0x40 MSTORE DUP1 SWAP3 SWAP2 SWAP1 DUP2 DUP2 MSTORE PUSH1 0x20 ADD DUP3 DUP1 SLOAD PUSH2 0x40E SWAP1 PUSH2 0x962 JUMP JUMPDEST DUP1 ISZERO PUSH2 0x459 JUMPI DUP1 PUSH1 0x1F LT PUSH2 0x430 JUMPI PUSH2 0x100 DUP1 DUP4 SLOAD DIV MUL DUP4 MSTORE SWAP2 PUSH1 0x20 ADD SWAP2 PUSH2 0x459 JUMP JUMPDEST DUP3 ADD SWAP2 SWAP1 PUSH0 MSTORE PUSH1 0x20 PUSH0 KECCAK256 SWAP1 JUMPDEST DUP2 SLOAD DUP2 MSTORE SWAP1 PUSH1 0x1 ADD SWAP1 PUSH1 0x20 ADD DUP1 DUP4 GT PUSH2 0x43C JUMPI DUP3 SWAP1 SUB PUSH1 0x1F AND DUP3 ADD SWAP2 JUMPDEST POP POP POP POP POP DUP2 JUMP JUMPDEST PUSH1 0x5 PUSH1 0x40 MLOAD DUP1 PUSH1 0x40 ADD PUSH1 0x40 MSTORE DUP1 DUP5 DUP2 MSTORE PUSH1 0x20 ADD DUP4 DUP2 MSTORE POP SWAP1 DUP1 PUSH1 0x1 DUP2 SLOAD ADD DUP1 DUP3 SSTORE DUP1 SWAP2 POP POP PUSH1 0x1 SWAP1 SUB SWAP1 PUSH0 MSTORE PUSH1 0x20 PUSH0 KECCAK256 ADD PUSH0 SWAP1 SWAP2 SWAP1 SWAP2 SWAP1 SWAP2 POP SWAP1 PUSH1 0x2 PUSH2 0x4A8 SWAP3 SWAP2 SWAP1 PUSH2 0x4EA JUMP JUMPDEST POP POP POP JUMP JUMPDEST POP DUP1 SLOAD PUSH2 0x4B9 SWAP1 PUSH2 0x962 JUMP JUMPDEST PUSH0 DUP3 SSTORE DUP1 PUSH1 0x1F LT PUSH2 0x4CA JUMPI POP PUSH2 0x4E7 JUMP JUMPDEST PUSH1 0x1F ADD PUSH1 0x20 SWAP1 DIV SWAP1 PUSH0 MSTORE PUSH1 0x20 PUSH0 KECCAK256 SWAP1 DUP2 ADD SWAP1 PUSH2 0x4E6 SWAP2 SWAP1 PUSH2 0x541 JUMP JUMPDEST JUMPDEST POP JUMP JUMPDEST DUP3 DUP1 SLOAD DUP3 DUP3 SSTORE SWAP1 PUSH0 MSTORE PUSH1 0x20 PUSH0 KECCAK256 SWAP1 DUP2 ADD SWAP3 DUP3 ISZERO PUSH2 0x530 JUMPI SWAP2 PUSH1 0x20 MUL DUP3 ADD JUMPDEST DUP3 DUP2 GT ISZERO PUSH2 0x52F JUMPI DUP3 MLOAD DUP3 SWAP1 DUP2 PUSH2 0x51F SWAP2 SWAP1 PUSH2 0xB5F JUMP JUMPDEST POP SWAP2 PUSH1 0x20 ADD SWAP2 SWAP1 PUSH1 0x1 ADD SWAP1 PUSH2 0x508 JUMP JUMPDEST JUMPDEST POP SWAP1 POP PUSH2 0x53D SWAP2 SWAP1 PUSH2 0x55C JUMP JUMPDEST POP SWAP1 JUMP JUMPDEST JUMPDEST DUP1 DUP3 GT ISZERO PUSH2 0x558 JUMPI PUSH0 DUP2 PUSH0 SWAP1 SSTORE POP PUSH1 0x1 ADD PUSH2 0x542 JUMP JUMPDEST POP SWAP1 JUMP JUMPDEST JUMPDEST DUP1 DUP3 GT ISZERO PUSH2 0x57B JUMPI PUSH0 DUP2 DUP2 PUSH2 0x572 SWAP2 SWAP1 PUSH2 0x4AD JUMP JUMPDEST POP PUSH1 0x1 ADD PUSH2 0x55D JUMP JUMPDEST POP SWAP1 JUMP JUMPDEST PUSH0 PUSH1 0x40 MLOAD SWAP1 POP SWAP1 JUMP JUMPDEST PUSH0 PUSH0 REVERT JUMPDEST PUSH0 PUSH0 REVERT JUMPDEST PUSH0 DUP2 SWAP1 POP SWAP2 SWAP1 POP JUMP JUMPDEST PUSH2 0x5A2 DUP2 PUSH2 0x590 JUMP JUMPDEST DUP2 EQ PUSH2 0x5AC JUMPI PUSH0 PUSH0 REVERT JUMPDEST POP JUMP JUMPDEST PUSH0 DUP2 CALLDATALOAD SWAP1 POP PUSH2 0x5BD DUP2 PUSH2 0x599 JUMP JUMPDEST SWAP3 SWAP2 POP POP JUMP JUMPDEST PUSH0 PUSH1 0x20 DUP3 DUP5 SUB SLT ISZERO PUSH2 0x5D8 JUMPI PUSH2 0x5D7 PUSH2 0x588 JUMP JUMPDEST JUMPDEST PUSH0 PUSH2 0x5E5 DUP5 DUP3 DUP6 ADD PUSH2 0x5AF JUMP JUMPDEST SWAP2 POP POP SWAP3 SWAP2 POP POP JUMP JUMPDEST PUSH0 DUP2 MLOAD SWAP1 POP SWAP2 SWAP1 POP JUMP JUMPDEST PUSH0 DUP3 DUP3 MSTORE PUSH1 0x20 DUP3 ADD SWAP1 POP SWAP3 SWAP2 POP POP JUMP JUMPDEST DUP3 DUP2 DUP4 MCOPY PUSH0 DUP4 DUP4 ADD MSTORE POP POP POP JUMP JUMPDEST PUSH0 PUSH1 0x1F NOT PUSH1 0x1F DUP4 ADD AND SWAP1 POP SWAP2 SWAP1 POP JUMP JUMPDEST PUSH0 PUSH2 0x630 DUP3 PUSH2 0x5EE JUMP JUMPDEST PUSH2 0x63A DUP2 DUP6 PUSH2 0x5F8 JUMP JUMPDEST SWAP4 POP PUSH2 0x64A DUP2 DUP6 PUSH1 0x20 DUP7 ADD PUSH2 0x608 JUMP JUMPDEST PUSH2 0x653 DUP2 PUSH2 0x616 JUMP JUMPDEST DUP5 ADD SWAP2 POP POP SWAP3 SWAP2 POP POP JUMP JUMPDEST PUSH0 PUSH1 0x20 DUP3 ADD SWAP1 POP DUP2 DUP2 SUB PUSH0 DUP4 ADD MSTORE PUSH2 0x676 DUP2 DUP5 PUSH2 0x626 JUMP JUMPDEST SWAP1 POP SWAP3 SWAP2 POP POP JUMP JUMPDEST PUSH0 PUSH1 0xFF DUP3 AND SWAP1 POP SWAP2 SWAP1 POP JUMP JUMPDEST PUSH2 0x693 DUP2 PUSH2 0x67E JUMP JUMPDEST DUP2 EQ PUSH2 0x69D JUMPI PUSH0 PUSH0 REVERT JUMPDEST POP JUMP JUMPDEST PUSH0 DUP2 CALLDATALOAD SWAP1 POP PUSH2 0x6AE DUP2 PUSH2 0x68A JUMP JUMPDEST SWAP3 SWAP2 POP POP JUMP JUMPDEST PUSH0 PUSH0 PUSH1 0x40 DUP4 DUP6 SUB SLT ISZERO PUSH2 0x6CA JUMPI PUSH2 0x6C9 PUSH2 0x588 JUMP JUMPDEST JUMPDEST PUSH0 PUSH2 0x6D7 DUP6 DUP3 DUP7 ADD PUSH2 0x6A0 JUMP JUMPDEST SWAP3 POP POP PUSH1 0x20 PUSH2 0x6E8 DUP6 DUP3 DUP7 ADD PUSH2 0x6A0 JUMP JUMPDEST SWAP2 POP POP SWAP3 POP SWAP3 SWAP1 POP JUMP JUMPDEST PUSH0 PUSH0 REVERT JUMPDEST PUSH0 PUSH0 REVERT JUMPDEST PUSH32 0x4E487B7100000000000000000000000000000000000000000000000000000000 PUSH0 MSTORE PUSH1 0x41 PUSH1 0x4 MSTORE PUSH1 0x24 PUSH0 REVERT JUMPDEST PUSH2 0x730 DUP3 PUSH2 0x616 JUMP JUMPDEST DUP2 ADD DUP2 DUP2 LT PUSH8 0xFFFFFFFFFFFFFFFF DUP3 GT OR ISZERO PUSH2 0x74F JUMPI PUSH2 0x74E PUSH2 0x6FA JUMP JUMPDEST JUMPDEST DUP1 PUSH1 0x40 MSTORE POP POP POP JUMP JUMPDEST PUSH0 PUSH2 0x761 PUSH2 0x57F JUMP JUMPDEST SWAP1 POP PUSH2 0x76D DUP3 DUP3 PUSH2 0x727 JUMP JUMPDEST SWAP2 SWAP1 POP JUMP JUMPDEST PUSH0 PUSH8 0xFFFFFFFFFFFFFFFF DUP3 GT ISZERO PUSH2 0x78C JUMPI PUSH2 0x78B PUSH2 0x6FA JUMP JUMPDEST JUMPDEST PUSH2 0x795 DUP3 PUSH2 0x616 JUMP JUMPDEST SWAP1 POP PUSH1 0x20 DUP2 ADD SWAP1 POP SWAP2 SWAP1 POP JUMP JUMPDEST DUP3 DUP2 DUP4 CALLDATACOPY PUSH0 DUP4 DUP4 ADD MSTORE POP POP POP JUMP JUMPDEST PUSH0 PUSH2 0x7C2 PUSH2 0x7BD DUP5 PUSH2 0x772 JUMP JUMPDEST PUSH2 0x758 JUMP JUMPDEST SWAP1 POP DUP3 DUP2 MSTORE PUSH1 0x20 DUP2 ADD DUP5 DUP5 DUP5 ADD GT ISZERO PUSH2 0x7DE JUMPI PUSH2 0x7DD PUSH2 0x6F6 JUMP JUMPDEST JUMPDEST PUSH2 0x7E9 DUP5 DUP3 DUP6 PUSH2 0x7A2 JUMP JUMPDEST POP SWAP4 SWAP3 POP POP POP JUMP JUMPDEST PUSH0 DUP3 PUSH1 0x1F DUP4 ADD SLT PUSH2 0x805 JUMPI PUSH2 0x804 PUSH2 0x6F2 JUMP JUMPDEST JUMPDEST DUP2 CALLDATALOAD PUSH2 0x815 DUP5 DUP3 PUSH1 0x20 DUP7 ADD PUSH2 0x7B0 JUMP JUMPDEST SWAP2 POP POP SWAP3 SWAP2 POP POP JUMP JUMPDEST PUSH0 PUSH1 0x20 DUP3 DUP5 SUB SLT ISZERO PUSH2 0x833 JUMPI PUSH2 0x832 PUSH2 0x588 JUMP JUMPDEST JUMPDEST PUSH0 DUP3 ADD CALLDATALOAD PUSH8 0xFFFFFFFFFFFFFFFF DUP2 GT ISZERO PUSH2 0x850 JUMPI PUSH2 0x84F PUSH2 0x58C JUMP JUMPDEST JUMPDEST PUSH2 0x85C DUP5 DUP3 DUP6 ADD PUSH2 0x7F1 JUMP JUMPDEST SWAP2 POP POP SWAP3 SWAP2 POP POP JUMP JUMPDEST PUSH0 PUSH0 PUSH1 0x40 DUP4 DUP6 SUB SLT ISZERO PUSH2 0x87B JUMPI PUSH2 0x87A PUSH2 0x588 JUMP JUMPDEST JUMPDEST PUSH0 PUSH2 0x888 DUP6 DUP3 DUP7 ADD PUSH2 0x6A0 JUMP JUMPDEST SWAP3 POP POP PUSH1 0x20 DUP4 ADD CALLDATALOAD PUSH8 0xFFFFFFFFFFFFFFFF DUP2 GT ISZERO PUSH2 0x8A9 JUMPI PUSH2 0x8A8 PUSH2 0x58C JUMP JUMPDEST JUMPDEST PUSH2 0x8B5 DUP6 DUP3 DUP7 ADD PUSH2 0x7F1 JUMP JUMPDEST SWAP2 POP POP SWAP3 POP SWAP3 SWAP1 POP JUMP JUMPDEST PUSH0 PUSH0 PUSH1 0x40 DUP4 DUP6 SUB SLT ISZERO PUSH2 0x8D5 JUMPI PUSH2 0x8D4 PUSH2 0x588 JUMP JUMPDEST JUMPDEST PUSH0 DUP4 ADD CALLDATALOAD PUSH8 0xFFFFFFFFFFFFFFFF DUP2 GT ISZERO PUSH2 0x8F2 JUMPI PUSH2 0x8F1 PUSH2 0x58C JUMP JUMPDEST JUMPDEST PUSH2 0x8FE DUP6 DUP3 DUP7 ADD PUSH2 0x7F1 JUMP JUMPDEST SWAP3 POP POP PUSH1 0x20 DUP4 ADD CALLDATALOAD PUSH8 0xFFFFFFFFFFFFFFFF DUP2 GT ISZERO PUSH2 0x91F JUMPI PUSH2 0x91E PUSH2 0x58C JUMP JUMPDEST JUMPDEST PUSH2 0x92B DUP6 DUP3 DUP7 ADD PUSH2 0x7F1 JUMP JUMPDEST SWAP2 POP POP SWAP3 POP SWAP3 SWAP1 POP JUMP JUMPDEST PUSH32 0x4E487B7100000000000000000000000000000000000000000000000000000000 PUSH0 MSTORE PUSH1 0x22 PUSH1 0x4 MSTORE PUSH1 0x24 PUSH0 REVERT JUMPDEST PUSH0 PUSH1 0x2 DUP3 DIV SWAP1 POP PUSH1 0x1 DUP3 AND DUP1 PUSH2 0x979 JUMPI PUSH1 0x7F DUP3 AND SWAP2 POP JUMPDEST PUSH1 0x20 DUP3 LT DUP2 SUB PUSH2 0x98C JUMPI PUSH2 0x98B PUSH2 0x935 JUMP JUMPDEST JUMPDEST POP SWAP2 SWAP1 POP JUMP JUMPDEST PUSH32 0x4E487B7100000000000000000000000000000000000000000000000000000000 PUSH0 MSTORE PUSH1 0x32 PUSH1 0x4 MSTORE PUSH1 0x24 PUSH0 REVERT JUMPDEST PUSH0 DUP2 SWAP1 POP DUP2 PUSH0 MSTORE PUSH1 0x20 PUSH0 KECCAK256 SWAP1 POP SWAP2 SWAP1 POP JUMP JUMPDEST PUSH0 PUSH1 0x20 PUSH1 0x1F DUP4 ADD DIV SWAP1 POP SWAP2 SWAP1 POP JUMP JUMPDEST PUSH0 DUP3 DUP3 SHL SWAP1 POP SWAP3 SWAP2 POP POP JUMP JUMPDEST PUSH0 PUSH1 0x8 DUP4 MUL PUSH2 0xA1B PUSH32 0xFFFFFFFFFFFFFFFFFFFFFFFFFFFFFFFFFFFFFFFFFFFFFFFFFFFFFFFFFFFFFFFF DUP3 PUSH2 0x9E0 JUMP JUMPDEST PUSH2 0xA25 DUP7 DUP4 PUSH2 0x9E0 JUMP JUMPDEST SWAP6 POP DUP1 NOT DUP5 AND SWAP4 POP DUP1 DUP7 AND DUP5 OR SWAP3 POP POP POP SWAP4 SWAP3 POP POP POP JUMP JUMPDEST PUSH0 DUP2 SWAP1 POP SWAP2 SWAP1 POP JUMP JUMPDEST PUSH0 PUSH2 0xA60 PUSH2 0xA5B PUSH2 0xA56 DUP5 PUSH2 0x590 JUMP JUMPDEST PUSH2 0xA3D JUMP JUMPDEST PUSH2 0x590 JUMP JUMPDEST SWAP1 POP SWAP2 SWAP1 POP JUMP JUMPDEST PUSH0 DUP2 SWAP1 POP SWAP2 SWAP1 POP JUMP JUMPDEST PUSH2 0xA79 DUP4 PUSH2 0xA46 JUMP JUMPDEST PUSH2 0xA8D PUSH2 0xA85 DUP3 PUSH2 0xA67 JUMP JUMPDEST DUP5 DUP5 SLOAD PUSH2 0x9EC JUMP JUMPDEST DUP3 SSTORE POP POP POP POP JUMP JUMPDEST PUSH0 PUSH0 SWAP1 POP SWAP1 JUMP JUMPDEST PUSH2 0xAA4 PUSH2 0xA95 JUMP JUMPDEST PUSH2 0xAAF DUP2 DUP5 DUP5 PUSH2 0xA70 JUMP JUMPDEST POP POP POP JUMP JUMPDEST JUMPDEST DUP2 DUP2 LT ISZERO PUSH2 0xAD2 JUMPI PUSH2 0xAC7 PUSH0 DUP3 PUSH2 0xA9C JUMP JUMPDEST PUSH1 0x1 DUP2 ADD SWAP1 POP PUSH2 0xAB5 JUMP JUMPDEST POP POP JUMP JUMPDEST PUSH1 0x1F DUP3 GT ISZERO PUSH2 0xB17 JUMPI PUSH2 0xAE8 DUP2 PUSH2 0x9BF JUMP JUMPDEST PUSH2 0xAF1 DUP5 PUSH2 0x9D1 JUMP JUMPDEST DUP2 ADD PUSH1 0x20 DUP6 LT ISZERO PUSH2 0xB00 JUMPI DUP2 SWAP1 POP JUMPDEST PUSH2 0xB14 PUSH2 0xB0C DUP6 PUSH2 0x9D1 JUMP JUMPDEST DUP4 ADD DUP3 PUSH2 0xAB4 JUMP JUMPDEST POP POP JUMPDEST POP POP POP JUMP JUMPDEST PUSH0 DUP3 DUP3 SHR SWAP1 POP SWAP3 SWAP2 POP POP JUMP JUMPDEST PUSH0 PUSH2 0xB37 PUSH0 NOT DUP5 PUSH1 0x8 MUL PUSH2 0xB1C JUMP JUMPDEST NOT DUP1 DUP4 AND SWAP2 POP POP SWAP3 SWAP2 POP POP JUMP JUMPDEST PUSH0 PUSH2 0xB4F DUP4 DUP4 PUSH2 0xB28 JUMP JUMPDEST SWAP2 POP DUP3 PUSH1 0x2 MUL DUP3 OR SWAP1 POP SWAP3 SWAP2 POP POP JUMP JUMPDEST PUSH2 0xB68 DUP3 PUSH2 0x5EE JUMP JUMPDEST PUSH8 0xFFFFFFFFFFFFFFFF DUP2 GT ISZERO PUSH2 0xB81 JUMPI PUSH2 0xB80 PUSH2 0x6FA JUMP JUMPDEST JUMPDEST PUSH2 0xB8B DUP3 SLOAD PUSH2 0x962 JUMP JUMPDEST PUSH2 0xB96 DUP3 DUP3 DUP6 PUSH2 0xAD6 JUMP JUMPDEST PUSH0 PUSH1 0x20 SWAP1 POP PUSH1 0x1F DUP4 GT PUSH1 0x1 DUP2 EQ PUSH2 0xBC7 JUMPI PUSH0 DUP5 ISZERO PUSH2 0xBB5 JUMPI DUP3 DUP8 ADD MLOAD SWAP1 POP JUMPDEST PUSH2 0xBBF DUP6 DUP3 PUSH2 0xB44 JUMP JUMPDEST DUP7 SSTORE POP PUSH2 0xC26 JUMP JUMPDEST PUSH1 0x1F NOT DUP5 AND PUSH2 0xBD5 DUP7 PUSH2 0x9BF JUMP JUMPDEST PUSH0 JUMPDEST DUP3 DUP2 LT ISZERO PUSH2 0xBFC JUMPI DUP5 DUP10 ADD MLOAD DUP3 SSTORE PUSH1 0x1 DUP3 ADD SWAP2 POP PUSH1 0x20 DUP6 ADD SWAP5 POP PUSH1 0x20 DUP2 ADD SWAP1 POP PUSH2 0xBD7 JUMP JUMPDEST DUP7 DUP4 LT ISZERO PUSH2 0xC19 JUMPI DUP5 DUP10 ADD MLOAD PUSH2 0xC15 PUSH1 0x1F DUP10 AND DUP3 PUSH2 0xB28 JUMP JUMPDEST DUP4 SSTORE POP JUMPDEST PUSH1 0x1 PUSH1 0x2 DUP9 MUL ADD DUP9 SSTORE POP POP POP JUMPDEST POP POP POP POP POP POP JUMP INVALID LOG2 PUSH5 0x6970667358 0x22 SLT KECCAK256 XOR 0xC8 DUP9 JUMPDEST PUSH15 0x863B119876993E25A2192C60A0F158 SELFDESTRUCT DUP3 0xF7 0xF8 PUSH18 0x81C3D1C38737C464736F6C634300081C0033 "
				},
				"gasEstimates": {
					"creation": {
						"codeDepositCost": "634400",
						"executionCost": "668",
						"totalCost": "635068"
					},
					"external": {
						"defineDicipline(string)": "infinite",
						"defineStudent(uint8,string)": "infinite",
						"definesDiciplineTeacher(string,string)": "infinite",
						"deleteDicipline(uint256)": "infinite",
						"deleteStudent(uint256)": "infinite",
						"diciplineName(uint256)": "infinite",
						"getDiciplineTeacher(uint8,uint8)": "infinite",
						"students(uint256)": "infinite"
					}
				},
				"methodIdentifiers": {
					"defineDicipline(string)": "5fb7f474",
					"defineStudent(uint8,string)": "9fc55cad",
					"definesDiciplineTeacher(string,string)": "f0617e92",
					"deleteDicipline(uint256)": "43ce9e07",
					"deleteStudent(uint256)": "b645307d",
					"diciplineName(uint256)": "d3e815d2",
					"getDiciplineTeacher(uint8,uint8)": "49f119b6",
					"students(uint256)": "06ead22e"
				}
			},
			"storageLayout": {
				"storage": [
					{
						"astId": 5,
						"contract": "contracts/arrays.sol:arraysExamples",
						"label": "students",
						"offset": 0,
						"slot": "0",
						"type": "t_array(t_string_storage)4_storage"
					},
					{
						"astId": 8,
						"contract": "contracts/arrays.sol:arraysExamples",
						"label": "diciplineName",
						"offset": 0,
						"slot": "4",
						"type": "t_array(t_string_storage)dyn_storage"
					},
					{
						"astId": 12,
						"contract": "contracts/arrays.sol:arraysExamples",
						"label": "diciplineTeacher",
						"offset": 0,
						"slot": "5",
						"type": "t_array(t_array(t_string_storage)dyn_storage)dyn_storage"
					}
				],
				"types": {
					"t_array(t_array(t_string_storage)dyn_storage)dyn_storage": {
						"base": "t_array(t_string_storage)dyn_storage",
						"encoding": "dynamic_array",
						"label": "string[][]",
						"numberOfBytes": "32"
					},
					"t_array(t_string_storage)4_storage": {
						"base": "t_string_storage",
						"encoding": "inplace",
						"label": "string[4]",
						"numberOfBytes": "128"
					},
					"t_array(t_string_storage)dyn_storage": {
						"base": "t_string_storage",
						"encoding": "dynamic_array",
						"label": "string[]",
						"numberOfBytes": "32"
					},
					"t_string_storage": {
						"encoding": "bytes",
						"label": "string",
						"numberOfBytes": "32"
					}
				}
			},
			"userdoc": {
				"kind": "user",
				"methods": {},
				"version": 1
			}
		}
	}
}