{
	"data": {
		"bytecode": {
			"linkReferences": {},
			"object": "60a060405234801561000f575f5ffd5b50604051610ca7380380610ca7833981810160405281019061003191906101cf565b815f908161003f9190610430565b50806080818152505050506104ff565b5f604051905090565b5f5ffd5b5f5ffd5b5f5ffd5b5f5ffd5b5f601f19601f8301169050919050565b7f4e487b71000000000000000000000000000000000000000000000000000000005f52604160045260245ffd5b6100ae82610068565b810181811067ffffffffffffffff821117156100cd576100cc610078565b5b80604052505050565b5f6100df61004f565b90506100eb82826100a5565b919050565b5f67ffffffffffffffff82111561010a57610109610078565b5b61011382610068565b9050602081019050919050565b8281835e5f83830152505050565b5f61014061013b846100f0565b6100d6565b90508281526020810184848401111561015c5761015b610064565b5b610167848285610120565b509392505050565b5f82601f83011261018357610182610060565b5b815161019384826020860161012e565b91505092915050565b5f819050919050565b6101ae8161019c565b81146101b8575f5ffd5b50565b5f815190506101c9816101a5565b92915050565b5f5f604083850312156101e5576101e4610058565b5b5f83015167ffffffffffffffff8111156102025761020161005c565b5b61020e8582860161016f565b925050602061021f858286016101bb565b9150509250929050565b5f81519050919050565b7f4e487b71000000000000000000000000000000000000000000000000000000005f52602260045260245ffd5b5f600282049050600182168061027757607f821691505b60208210810361028a57610289610233565b5b50919050565b5f819050815f5260205f209050919050565b5f6020601f8301049050919050565b5f82821b905092915050565b5f600883026102ec7fffffffffffffffffffffffffffffffffffffffffffffffffffffffffffffffff826102b1565b6102f686836102b1565b95508019841693508086168417925050509392505050565b5f819050919050565b5f61033161032c6103278461019c565b61030e565b61019c565b9050919050565b5f819050919050565b61034a83610317565b61035e61035682610338565b8484546102bd565b825550505050565b5f5f905090565b610375610366565b610380818484610341565b505050565b5b818110156103a3576103985f8261036d565b600181019050610386565b5050565b601f8211156103e8576103b981610290565b6103c2846102a2565b810160208510156103d1578190505b6103e56103dd856102a2565b830182610385565b50505b505050565b5f82821c905092915050565b5f6104085f19846008026103ed565b1980831691505092915050565b5f61042083836103f9565b9150826002028217905092915050565b61043982610229565b67ffffffffffffffff81111561045257610451610078565b5b61045c8254610260565b6104678282856103a7565b5f60209050601f831160018114610498575f8415610486578287015190505b6104908582610415565b8655506104f7565b601f1984166104a686610290565b5f5b828110156104cd578489015182556001820191506020850194506020810190506104a8565b868310156104ea57848901516104e6601f8916826103f9565b8355505b6001600288020188555050505b505050505050565b6080516107906105175f395f61012901526107905ff3fe608060405234801561000f575f5ffd5b506004361061003f575f3560e01c806306fdde0314610043578063967e6e6514610061578063c47f00271461007f575b5f5ffd5b61004b61009b565b6040516100589190610251565b60405180910390f35b610069610126565b6040516100769190610289565b60405180910390f35b610099600480360381019061009491906103df565b61014d565b005b5f80546100a790610453565b80601f01602080910402602001604051908101604052809291908181526020018280546100d390610453565b801561011e5780601f106100f55761010080835404028352916020019161011e565b820191905f5260205f20905b81548152906001019060200180831161010157829003601f168201915b505050505081565b5f7f0000000000000000000000000000000000000000000000000000000000000000905090565b735b38da6a701c568545dcfcb03fcb875f56beddc473ffffffffffffffffffffffffffffffffffffffff163373ffffffffffffffffffffffffffffffffffffffff16146101cf576040517f08c379a00000000000000000000000000000000000000000000000000000000081526004016101c6906104cd565b60405180910390fd5b805f90816101dd919061068b565b5050565b5f81519050919050565b5f82825260208201905092915050565b8281835e5f83830152505050565b5f601f19601f8301169050919050565b5f610223826101e1565b61022d81856101eb565b935061023d8185602086016101fb565b61024681610209565b840191505092915050565b5f6020820190508181035f8301526102698184610219565b905092915050565b5f819050919050565b61028381610271565b82525050565b5f60208201905061029c5f83018461027a565b92915050565b5f604051905090565b5f5ffd5b5f5ffd5b5f5ffd5b5f5ffd5b7f4e487b71000000000000000000000000000000000000000000000000000000005f52604160045260245ffd5b6102f182610209565b810181811067ffffffffffffffff821117156103105761030f6102bb565b5b80604052505050565b5f6103226102a2565b905061032e82826102e8565b919050565b5f67ffffffffffffffff82111561034d5761034c6102bb565b5b61035682610209565b9050602081019050919050565b828183375f83830152505050565b5f61038361037e84610333565b610319565b90508281526020810184848401111561039f5761039e6102b7565b5b6103aa848285610363565b509392505050565b5f82601f8301126103c6576103c56102b3565b5b81356103d6848260208601610371565b91505092915050565b5f602082840312156103f4576103f36102ab565b5b5f82013567ffffffffffffffff811115610411576104106102af565b5b61041d848285016103b2565b91505092915050565b7f4e487b71000000000000000000000000000000000000000000000000000000005f52602260045260245ffd5b5f600282049050600182168061046a57607f821691505b60208210810361047d5761047c610426565b5b50919050565b7f6f6e6c79206f776e65722063616e2075706461746520746865206e616d6500005f82015250565b5f6104b7601e836101eb565b91506104c282610483565b602082019050919050565b5f6020820190508181035f8301526104e4816104ab565b9050919050565b5f819050815f5260205f209050919050565b5f6020601f8301049050919050565b5f82821b905092915050565b5f600883026105477fffffffffffffffffffffffffffffffffffffffffffffffffffffffffffffffff8261050c565b610551868361050c565b95508019841693508086168417925050509392505050565b5f819050919050565b5f61058c61058761058284610271565b610569565b610271565b9050919050565b5f819050919050565b6105a583610572565b6105b96105b182610593565b848454610518565b825550505050565b5f5f905090565b6105d06105c1565b6105db81848461059c565b505050565b5b818110156105fe576105f35f826105c8565b6001810190506105e1565b5050565b601f82111561064357610614816104eb565b61061d846104fd565b8101602085101561062c578190505b610640610638856104fd565b8301826105e0565b50505b505050565b5f82821c905092915050565b5f6106635f1984600802610648565b1980831691505092915050565b5f61067b8383610654565b9150826002028217905092915050565b610694826101e1565b67ffffffffffffffff8111156106ad576106ac6102bb565b5b6106b78254610453565b6106c2828285610602565b5f60209050601f8311600181146106f3575f84156106e1578287015190505b6106eb8582610670565b865550610752565b601f198416610701866104eb565b5f5b8281101561072857848901518255600182019150602085019450602081019050610703565b868310156107455784890151610741601f891682610654565b8355505b6001600288020188555050505b50505050505056fea26469706673582212200e01af48c285b21a34a831b569ff6a4bd667944296411df365827b999afe44aa64736f6c634300081c0033",
			"opcodes": "PUSH1 0xA0 PUSH1 0x40 MSTORE CALLVALUE DUP1 ISZERO PUSH2 0xF JUMPI PUSH0 PUSH0 REVERT JUMPDEST POP PUSH1 0x40 MLOAD PUSH2 0xCA7 CODESIZE SUB DUP1 PUSH2 0xCA7 DUP4 CODECOPY DUP2 DUP2 ADD PUSH1 0x40 MSTORE DUP2 ADD SWAP1 PUSH2 0x31 SWAP2 SWAP1 PUSH2 0x1CF JUMP JUMPDEST DUP2 PUSH0 SWAP1 DUP2 PUSH2 0x3F SWAP2 SWAP1 PUSH2 0x430 JUMP JUMPDEST POP DUP1 PUSH1 0x80 DUP2 DUP2 MSTORE POP POP POP POP PUSH2 0x4FF JUMP JUMPDEST PUSH0 PUSH1 0x40 MLOAD SWAP1 POP SWAP1 JUMP JUMPDEST PUSH0 PUSH0 REVERT JUMPDEST PUSH0 PUSH0 REVERT JUMPDEST PUSH0 PUSH0 REVERT JUMPDEST PUSH0 PUSH0 REVERT JUMPDEST PUSH0 PUSH1 0x1F NOT PUSH1 0x1F DUP4 ADD AND SWAP1 POP SWAP2 SWAP1 POP JUMP JUMPDEST PUSH32 0x4E487B7100000000000000000000000000000000000000000000000000000000 PUSH0 MSTORE PUSH1 0x41 PUSH1 0x4 MSTORE PUSH1 0x24 PUSH0 REVERT JUMPDEST PUSH2 0xAE DUP3 PUSH2 0x68 JUMP JUMPDEST DUP2 ADD DUP2 DUP2 LT PUSH8 0xFFFFFFFFFFFFFFFF DUP3 GT OR ISZERO PUSH2 0xCD JUMPI PUSH2 0xCC PUSH2 0x78 JUMP JUMPDEST JUMPDEST DUP1 PUSH1 0x40 MSTORE POP POP POP JUMP JUMPDEST PUSH0 PUSH2 0xDF PUSH2 0x4F JUMP JUMPDEST SWAP1 POP PUSH2 0xEB DUP3 DUP3 PUSH2 0xA5 JUMP JUMPDEST SWAP2 SWAP1 POP JUMP JUMPDEST PUSH0 PUSH8 0xFFFFFFFFFFFFFFFF DUP3 GT ISZERO PUSH2 0x10A JUMPI PUSH2 0x109 PUSH2 0x78 JUMP JUMPDEST JUMPDEST PUSH2 0x113 DUP3 PUSH2 0x68 JUMP JUMPDEST SWAP1 POP PUSH1 0x20 DUP2 ADD SWAP1 POP SWAP2 SWAP1 POP JUMP JUMPDEST DUP3 DUP2 DUP4 MCOPY PUSH0 DUP4 DUP4 ADD MSTORE POP POP POP JUMP JUMPDEST PUSH0 PUSH2 0x140 PUSH2 0x13B DUP5 PUSH2 0xF0 JUMP JUMPDEST PUSH2 0xD6 JUMP JUMPDEST SWAP1 POP DUP3 DUP2 MSTORE PUSH1 0x20 DUP2 ADD DUP5 DUP5 DUP5 ADD GT ISZERO PUSH2 0x15C JUMPI PUSH2 0x15B PUSH2 0x64 JUMP JUMPDEST JUMPDEST PUSH2 0x167 DUP5 DUP3 DUP6 PUSH2 0x120 JUMP JUMPDEST POP SWAP4 SWAP3 POP POP POP JUMP JUMPDEST PUSH0 DUP3 PUSH1 0x1F DUP4 ADD SLT PUSH2 0x183 JUMPI PUSH2 0x182 PUSH2 0x60 JUMP JUMPDEST JUMPDEST DUP2 MLOAD PUSH2 0x193 DUP5 DUP3 PUSH1 0x20 DUP7 ADD PUSH2 0x12E JUMP JUMPDEST SWAP2 POP POP SWAP3 SWAP2 POP POP JUMP JUMPDEST PUSH0 DUP2 SWAP1 POP SWAP2 SWAP1 POP JUMP JUMPDEST PUSH2 0x1AE DUP2 PUSH2 0x19C JUMP JUMPDEST DUP2 EQ PUSH2 0x1B8 JUMPI PUSH0 PUSH0 REVERT JUMPDEST POP JUMP JUMPDEST PUSH0 DUP2 MLOAD SWAP1 POP PUSH2 0x1C9 DUP2 PUSH2 0x1A5 JUMP JUMPDEST SWAP3 SWAP2 POP POP JUMP JUMPDEST PUSH0 PUSH0 PUSH1 0x40 DUP4 DUP6 SUB SLT ISZERO PUSH2 0x1E5 JUMPI PUSH2 0x1E4 PUSH2 0x58 JUMP JUMPDEST JUMPDEST PUSH0 DUP4 ADD MLOAD PUSH8 0xFFFFFFFFFFFFFFFF DUP2 GT ISZERO PUSH2 0x202 JUMPI PUSH2 0x201 PUSH2 0x5C JUMP JUMPDEST JUMPDEST PUSH2 0x20E DUP6 DUP3 DUP7 ADD PUSH2 0x16F JUMP JUMPDEST SWAP3 POP POP PUSH1 0x20 PUSH2 0x21F DUP6 DUP3 DUP7 ADD PUSH2 0x1BB JUMP JUMPDEST SWAP2 POP POP SWAP3 POP SWAP3 SWAP1 POP JUMP JUMPDEST PUSH0 DUP2 MLOAD SWAP1 POP SWAP2 SWAP1 POP JUMP JUMPDEST PUSH32 0x4E487B7100000000000000000000000000000000000000000000000000000000 PUSH0 MSTORE PUSH1 0x22 PUSH1 0x4 MSTORE PUSH1 0x24 PUSH0 REVERT JUMPDEST PUSH0 PUSH1 0x2 DUP3 DIV SWAP1 POP PUSH1 0x1 DUP3 AND DUP1 PUSH2 0x277 JUMPI PUSH1 0x7F DUP3 AND SWAP2 POP JUMPDEST PUSH1 0x20 DUP3 LT DUP2 SUB PUSH2 0x28A JUMPI PUSH2 0x289 PUSH2 0x233 JUMP JUMPDEST JUMPDEST POP SWAP2 SWAP1 POP JUMP JUMPDEST PUSH0 DUP2 SWAP1 POP DUP2 PUSH0 MSTORE PUSH1 0x20 PUSH0 KECCAK256 SWAP1 POP SWAP2 SWAP1 POP JUMP JUMPDEST PUSH0 PUSH1 0x20 PUSH1 0x1F DUP4 ADD DIV SWAP1 POP SWAP2 SWAP1 POP JUMP JUMPDEST PUSH0 DUP3 DUP3 SHL SWAP1 POP SWAP3 SWAP2 POP POP JUMP JUMPDEST PUSH0 PUSH1 0x8 DUP4 MUL PUSH2 0x2EC PUSH32 0xFFFFFFFFFFFFFFFFFFFFFFFFFFFFFFFFFFFFFFFFFFFFFFFFFFFFFFFFFFFFFFFF DUP3 PUSH2 0x2B1 JUMP JUMPDEST PUSH2 0x2F6 DUP7 DUP4 PUSH2 0x2B1 JUMP JUMPDEST SWAP6 POP DUP1 NOT DUP5 AND SWAP4 POP DUP1 DUP7 AND DUP5 OR SWAP3 POP POP POP SWAP4 SWAP3 POP POP POP JUMP JUMPDEST PUSH0 DUP2 SWAP1 POP SWAP2 SWAP1 POP JUMP JUMPDEST PUSH0 PUSH2 0x331 PUSH2 0x32C PUSH2 0x327 DUP5 PUSH2 0x19C JUMP JUMPDEST PUSH2 0x30E JUMP JUMPDEST PUSH2 0x19C JUMP JUMPDEST SWAP1 POP SWAP2 SWAP1 POP JUMP JUMPDEST PUSH0 DUP2 SWAP1 POP SWAP2 SWAP1 POP JUMP JUMPDEST PUSH2 0x34A DUP4 PUSH2 0x317 JUMP JUMPDEST PUSH2 0x35E PUSH2 0x356 DUP3 PUSH2 0x338 JUMP JUMPDEST DUP5 DUP5 SLOAD PUSH2 0x2BD JUMP JUMPDEST DUP3 SSTORE POP POP POP POP JUMP JUMPDEST PUSH0 PUSH0 SWAP1 POP SWAP1 JUMP JUMPDEST PUSH2 0x375 PUSH2 0x366 JUMP JUMPDEST PUSH2 0x380 DUP2 DUP5 DUP5 PUSH2 0x341 JUMP JUMPDEST POP POP POP JUMP JUMPDEST JUMPDEST DUP2 DUP2 LT ISZERO PUSH2 0x3A3 JUMPI PUSH2 0x398 PUSH0 DUP3 PUSH2 0x36D JUMP JUMPDEST PUSH1 0x1 DUP2 ADD SWAP1 POP PUSH2 0x386 JUMP JUMPDEST POP POP JUMP JUMPDEST PUSH1 0x1F DUP3 GT ISZERO PUSH2 0x3E8 JUMPI PUSH2 0x3B9 DUP2 PUSH2 0x290 JUMP JUMPDEST PUSH2 0x3C2 DUP5 PUSH2 0x2A2 JUMP JUMPDEST DUP2 ADD PUSH1 0x20 DUP6 LT ISZERO PUSH2 0x3D1 JUMPI DUP2 SWAP1 POP JUMPDEST PUSH2 0x3E5 PUSH2 0x3DD DUP6 PUSH2 0x2A2 JUMP JUMPDEST DUP4 ADD DUP3 PUSH2 0x385 JUMP JUMPDEST POP POP JUMPDEST POP POP POP JUMP JUMPDEST PUSH0 DUP3 DUP3 SHR SWAP1 POP SWAP3 SWAP2 POP POP JUMP JUMPDEST PUSH0 PUSH2 0x408 PUSH0 NOT DUP5 PUSH1 0x8 MUL PUSH2 0x3ED JUMP JUMPDEST NOT DUP1 DUP4 AND SWAP2 POP POP SWAP3 SWAP2 POP POP JUMP JUMPDEST PUSH0 PUSH2 0x420 DUP4 DUP4 PUSH2 0x3F9 JUMP JUMPDEST SWAP2 POP DUP3 PUSH1 0x2 MUL DUP3 OR SWAP1 POP SWAP3 SWAP2 POP POP JUMP JUMPDEST PUSH2 0x439 DUP3 PUSH2 0x229 JUMP JUMPDEST PUSH8 0xFFFFFFFFFFFFFFFF DUP2 GT ISZERO PUSH2 0x452 JUMPI PUSH2 0x451 PUSH2 0x78 JUMP JUMPDEST JUMPDEST PUSH2 0x45C DUP3 SLOAD PUSH2 0x260 JUMP JUMPDEST PUSH2 0x467 DUP3 DUP3 DUP6 PUSH2 0x3A7 JUMP JUMPDEST PUSH0 PUSH1 0x20 SWAP1 POP PUSH1 0x1F DUP4 GT PUSH1 0x1 DUP2 EQ PUSH2 0x498 JUMPI PUSH0 DUP5 ISZERO PUSH2 0x486 JUMPI DUP3 DUP8 ADD MLOAD SWAP1 POP JUMPDEST PUSH2 0x490 DUP6 DUP3 PUSH2 0x415 JUMP JUMPDEST DUP7 SSTORE POP PUSH2 0x4F7 JUMP JUMPDEST PUSH1 0x1F NOT DUP5 AND PUSH2 0x4A6 DUP7 PUSH2 0x290 JUMP JUMPDEST PUSH0 JUMPDEST DUP3 DUP2 LT ISZERO PUSH2 0x4CD JUMPI DUP5 DUP10 ADD MLOAD DUP3 SSTORE PUSH1 0x1 DUP3 ADD SWAP2 POP PUSH1 0x20 DUP6 ADD SWAP5 POP PUSH1 0x20 DUP2 ADD SWAP1 POP PUSH2 0x4A8 JUMP JUMPDEST DUP7 DUP4 LT ISZERO PUSH2 0x4EA JUMPI DUP5 DUP10 ADD MLOAD PUSH2 0x4E6 PUSH1 0x1F DUP10 AND DUP3 PUSH2 0x3F9 JUMP JUMPDEST DUP4 SSTORE POP JUMPDEST PUSH1 0x1 PUSH1 0x2 DUP9 MUL ADD DUP9 SSTORE POP POP POP JUMPDEST POP POP POP POP POP POP JUMP JUMPDEST PUSH1 0x80 MLOAD PUSH2 0x790 PUSH2 0x517 PUSH0 CODECOPY PUSH0 PUSH2 0x129 ADD MSTORE PUSH2 0x790 PUSH0 RETURN INVALID PUSH1 0x80 PUSH1 0x40 MSTORE CALLVALUE DUP1 ISZERO PUSH2 0xF JUMPI PUSH0 PUSH0 REVERT JUMPDEST POP PUSH1 0x4 CALLDATASIZE LT PUSH2 0x3F JUMPI PUSH0 CALLDATALOAD PUSH1 0xE0 SHR DUP1 PUSH4 0x6FDDE03 EQ PUSH2 0x43 JUMPI DUP1 PUSH4 0x967E6E65 EQ PUSH2 0x61 JUMPI DUP1 PUSH4 0xC47F0027 EQ PUSH2 0x7F JUMPI JUMPDEST PUSH0 PUSH0 REVERT JUMPDEST PUSH2 0x4B PUSH2 0x9B JUMP JUMPDEST PUSH1 0x40 MLOAD PUSH2 0x58 SWAP2 SWAP1 PUSH2 0x251 JUMP JUMPDEST PUSH1 0x40 MLOAD DUP1 SWAP2 SUB SWAP1 RETURN JUMPDEST PUSH2 0x69 PUSH2 0x126 JUMP JUMPDEST PUSH1 0x40 MLOAD PUSH2 0x76 SWAP2 SWAP1 PUSH2 0x289 JUMP JUMPDEST PUSH1 0x40 MLOAD DUP1 SWAP2 SUB SWAP1 RETURN JUMPDEST PUSH2 0x99 PUSH1 0x4 DUP1 CALLDATASIZE SUB DUP2 ADD SWAP1 PUSH2 0x94 SWAP2 SWAP1 PUSH2 0x3DF JUMP JUMPDEST PUSH2 0x14D JUMP JUMPDEST STOP JUMPDEST PUSH0 DUP1 SLOAD PUSH2 0xA7 SWAP1 PUSH2 0x453 JUMP JUMPDEST DUP1 PUSH1 0x1F ADD PUSH1 0x20 DUP1 SWAP2 DIV MUL PUSH1 0x20 ADD PUSH1 0x40 MLOAD SWAP1 DUP2 ADD PUSH1 0x40 MSTORE DUP1 SWAP3 SWAP2 SWAP1 DUP2 DUP2 MSTORE PUSH1 0x20 ADD DUP3 DUP1 SLOAD PUSH2 0xD3 SWAP1 PUSH2 0x453 JUMP JUMPDEST DUP1 ISZERO PUSH2 0x11E JUMPI DUP1 PUSH1 0x1F LT PUSH2 0xF5 JUMPI PUSH2 0x100 DUP1 DUP4 SLOAD DIV MUL DUP4 MSTORE SWAP2 PUSH1 0x20 ADD SWAP2 PUSH2 0x11E JUMP JUMPDEST DUP3 ADD SWAP2 SWAP1 PUSH0 MSTORE PUSH1 0x20 PUSH0 KECCAK256 SWAP1 JUMPDEST DUP2 SLOAD DUP2 MSTORE SWAP1 PUSH1 0x1 ADD SWAP1 PUSH1 0x20 ADD DUP1 DUP4 GT PUSH2 0x101 JUMPI DUP3 SWAP1 SUB PUSH1 0x1F AND DUP3 ADD SWAP2 JUMPDEST POP POP POP POP POP DUP2 JUMP JUMPDEST PUSH0 PUSH32 0x0 SWAP1 POP SWAP1 JUMP JUMPDEST PUSH20 0x5B38DA6A701C568545DCFCB03FCB875F56BEDDC4 PUSH20 0xFFFFFFFFFFFFFFFFFFFFFFFFFFFFFFFFFFFFFFFF AND CALLER PUSH20 0xFFFFFFFFFFFFFFFFFFFFFFFFFFFFFFFFFFFFFFFF AND EQ PUSH2 0x1CF JUMPI PUSH1 0x40 MLOAD PUSH32 0x8C379A000000000000000000000000000000000000000000000000000000000 DUP2 MSTORE PUSH1 0x4 ADD PUSH2 0x1C6 SWAP1 PUSH2 0x4CD JUMP JUMPDEST PUSH1 0x40 MLOAD DUP1 SWAP2 SUB SWAP1 REVERT JUMPDEST DUP1 PUSH0 SWAP1 DUP2 PUSH2 0x1DD SWAP2 SWAP1 PUSH2 0x68B JUMP JUMPDEST POP POP JUMP JUMPDEST PUSH0 DUP2 MLOAD SWAP1 POP SWAP2 SWAP1 POP JUMP JUMPDEST PUSH0 DUP3 DUP3 MSTORE PUSH1 0x20 DUP3 ADD SWAP1 POP SWAP3 SWAP2 POP POP JUMP JUMPDEST DUP3 DUP2 DUP4 MCOPY PUSH0 DUP4 DUP4 ADD MSTORE POP POP POP JUMP JUMPDEST PUSH0 PUSH1 0x1F NOT PUSH1 0x1F DUP4 ADD AND SWAP1 POP SWAP2 SWAP1 POP JUMP JUMPDEST PUSH0 PUSH2 0x223 DUP3 PUSH2 0x1E1 JUMP JUMPDEST PUSH2 0x22D DUP2 DUP6 PUSH2 0x1EB JUMP JUMPDEST SWAP4 POP PUSH2 0x23D DUP2 DUP6 PUSH1 0x20 DUP7 ADD PUSH2 0x1FB JUMP JUMPDEST PUSH2 0x246 DUP2 PUSH2 0x209 JUMP JUMPDEST DUP5 ADD SWAP2 POP POP SWAP3 SWAP2 POP POP JUMP JUMPDEST PUSH0 PUSH1 0x20 DUP3 ADD SWAP1 POP DUP2 DUP2 SUB PUSH0 DUP4 ADD MSTORE PUSH2 0x269 DUP2 DUP5 PUSH2 0x219 JUMP JUMPDEST SWAP1 POP SWAP3 SWAP2 POP POP JUMP JUMPDEST PUSH0 DUP2 SWAP1 POP SWAP2 SWAP1 POP JUMP JUMPDEST PUSH2 0x283 DUP2 PUSH2 0x271 JUMP JUMPDEST DUP3 MSTORE POP POP JUMP JUMPDEST PUSH0 PUSH1 0x20 DUP3 ADD SWAP1 POP PUSH2 0x29C PUSH0 DUP4 ADD DUP5 PUSH2 0x27A JUMP JUMPDEST SWAP3 SWAP2 POP POP JUMP JUMPDEST PUSH0 PUSH1 0x40 MLOAD SWAP1 POP SWAP1 JUMP JUMPDEST PUSH0 PUSH0 REVERT JUMPDEST PUSH0 PUSH0 REVERT JUMPDEST PUSH0 PUSH0 REVERT JUMPDEST PUSH0 PUSH0 REVERT JUMPDEST PUSH32 0x4E487B7100000000000000000000000000000000000000000000000000000000 PUSH0 MSTORE PUSH1 0x41 PUSH1 0x4 MSTORE PUSH1 0x24 PUSH0 REVERT JUMPDEST PUSH2 0x2F1 DUP3 PUSH2 0x209 JUMP JUMPDEST DUP2 ADD DUP2 DUP2 LT PUSH8 0xFFFFFFFFFFFFFFFF DUP3 GT OR ISZERO PUSH2 0x310 JUMPI PUSH2 0x30F PUSH2 0x2BB JUMP JUMPDEST JUMPDEST DUP1 PUSH1 0x40 MSTORE POP POP POP JUMP JUMPDEST PUSH0 PUSH2 0x322 PUSH2 0x2A2 JUMP JUMPDEST SWAP1 POP PUSH2 0x32E DUP3 DUP3 PUSH2 0x2E8 JUMP JUMPDEST SWAP2 SWAP1 POP JUMP JUMPDEST PUSH0 PUSH8 0xFFFFFFFFFFFFFFFF DUP3 GT ISZERO PUSH2 0x34D JUMPI PUSH2 0x34C PUSH2 0x2BB JUMP JUMPDEST JUMPDEST PUSH2 0x356 DUP3 PUSH2 0x209 JUMP JUMPDEST SWAP1 POP PUSH1 0x20 DUP2 ADD SWAP1 POP SWAP2 SWAP1 POP JUMP JUMPDEST DUP3 DUP2 DUP4 CALLDATACOPY PUSH0 DUP4 DUP4 ADD MSTORE POP POP POP JUMP JUMPDEST PUSH0 PUSH2 0x383 PUSH2 0x37E DUP5 PUSH2 0x333 JUMP JUMPDEST PUSH2 0x319 JUMP JUMPDEST SWAP1 POP DUP3 DUP2 MSTORE PUSH1 0x20 DUP2 ADD DUP5 DUP5 DUP5 ADD GT ISZERO PUSH2 0x39F JUMPI PUSH2 0x39E PUSH2 0x2B7 JUMP JUMPDEST JUMPDEST PUSH2 0x3AA DUP5 DUP3 DUP6 PUSH2 0x363 JUMP JUMPDEST POP SWAP4 SWAP3 POP POP POP JUMP JUMPDEST PUSH0 DUP3 PUSH1 0x1F DUP4 ADD SLT PUSH2 0x3C6 JUMPI PUSH2 0x3C5 PUSH2 0x2B3 JUMP JUMPDEST JUMPDEST DUP2 CALLDATALOAD PUSH2 0x3D6 DUP5 DUP3 PUSH1 0x20 DUP7 ADD PUSH2 0x371 JUMP JUMPDEST SWAP2 POP POP SWAP3 SWAP2 POP POP JUMP JUMPDEST PUSH0 PUSH1 0x20 DUP3 DUP5 SUB SLT ISZERO PUSH2 0x3F4 JUMPI PUSH2 0x3F3 PUSH2 0x2AB JUMP JUMPDEST JUMPDEST PUSH0 DUP3 ADD CALLDATALOAD PUSH8 0xFFFFFFFFFFFFFFFF DUP2 GT ISZERO PUSH2 0x411 JUMPI PUSH2 0x410 PUSH2 0x2AF JUMP JUMPDEST JUMPDEST PUSH2 0x41D DUP5 DUP3 DUP6 ADD PUSH2 0x3B2 JUMP JUMPDEST SWAP2 POP POP SWAP3 SWAP2 POP POP JUMP JUMPDEST PUSH32 0x4E487B7100000000000000000000000000000000000000000000000000000000 PUSH0 MSTORE PUSH1 0x22 PUSH1 0x4 MSTORE PUSH1 0x24 PUSH0 REVERT JUMPDEST PUSH0 PUSH1 0x2 DUP3 DIV SWAP1 POP PUSH1 0x1 DUP3 AND DUP1 PUSH2 0x46A JUMPI PUSH1 0x7F DUP3 AND SWAP2 POP JUMPDEST PUSH1 0x20 DUP3 LT DUP2 SUB PUSH2 0x47D JUMPI PUSH2 0x47C PUSH2 0x426 JUMP JUMPDEST JUMPDEST POP SWAP2 SWAP1 POP JUMP JUMPDEST PUSH32 0x6F6E6C79206F776E65722063616E2075706461746520746865206E616D650000 PUSH0 DUP3 ADD MSTORE POP JUMP JUMPDEST PUSH0 PUSH2 0x4B7 PUSH1 0x1E DUP4 PUSH2 0x1EB JUMP JUMPDEST SWAP2 POP PUSH2 0x4C2 DUP3 PUSH2 0x483 JUMP JUMPDEST PUSH1 0x20 DUP3 ADD SWAP1 POP SWAP2 SWAP1 POP JUMP JUMPDEST PUSH0 PUSH1 0x20 DUP3 ADD SWAP1 POP DUP2 DUP2 SUB PUSH0 DUP4 ADD MSTORE PUSH2 0x4E4 DUP2 PUSH2 0x4AB JUMP JUMPDEST SWAP1 POP SWAP2 SWAP1 POP JUMP JUMPDEST PUSH0 DUP2 SWAP1 POP DUP2 PUSH0 MSTORE PUSH1 0x20 PUSH0 KECCAK256 SWAP1 POP SWAP2 SWAP1 POP JUMP JUMPDEST PUSH0 PUSH1 0x20 PUSH1 0x1F DUP4 ADD DIV SWAP1 POP SWAP2 SWAP1 POP JUMP JUMPDEST PUSH0 DUP3 DUP3 SHL SWAP1 POP SWAP3 SWAP2 POP POP JUMP JUMPDEST PUSH0 PUSH1 0x8 DUP4 MUL PUSH2 0x547 PUSH32 0xFFFFFFFFFFFFFFFFFFFFFFFFFFFFFFFFFFFFFFFFFFFFFFFFFFFFFFFFFFFFFFFF DUP3 PUSH2 0x50C JUMP JUMPDEST PUSH2 0x551 DUP7 DUP4 PUSH2 0x50C JUMP JUMPDEST SWAP6 POP DUP1 NOT DUP5 AND SWAP4 POP DUP1 DUP7 AND DUP5 OR SWAP3 POP POP POP SWAP4 SWAP3 POP POP POP JUMP JUMPDEST PUSH0 DUP2 SWAP1 POP SWAP2 SWAP1 POP JUMP JUMPDEST PUSH0 PUSH2 0x58C PUSH2 0x587 PUSH2 0x582 DUP5 PUSH2 0x271 JUMP JUMPDEST PUSH2 0x569 JUMP JUMPDEST PUSH2 0x271 JUMP JUMPDEST SWAP1 POP SWAP2 SWAP1 POP JUMP JUMPDEST PUSH0 DUP2 SWAP1 POP SWAP2 SWAP1 POP JUMP JUMPDEST PUSH2 0x5A5 DUP4 PUSH2 0x572 JUMP JUMPDEST PUSH2 0x5B9 PUSH2 0x5B1 DUP3 PUSH2 0x593 JUMP JUMPDEST DUP5 DUP5 SLOAD PUSH2 0x518 JUMP JUMPDEST DUP3 SSTORE POP POP POP POP JUMP JUMPDEST PUSH0 PUSH0 SWAP1 POP SWAP1 JUMP JUMPDEST PUSH2 0x5D0 PUSH2 0x5C1 JUMP JUMPDEST PUSH2 0x5DB DUP2 DUP5 DUP5 PUSH2 0x59C JUMP JUMPDEST POP POP POP JUMP JUMPDEST JUMPDEST DUP2 DUP2 LT ISZERO PUSH2 0x5FE JUMPI PUSH2 0x5F3 PUSH0 DUP3 PUSH2 0x5C8 JUMP JUMPDEST PUSH1 0x1 DUP2 ADD SWAP1 POP PUSH2 0x5E1 JUMP JUMPDEST POP POP JUMP JUMPDEST PUSH1 0x1F DUP3 GT ISZERO PUSH2 0x643 JUMPI PUSH2 0x614 DUP2 PUSH2 0x4EB JUMP JUMPDEST PUSH2 0x61D DUP5 PUSH2 0x4FD JUMP JUMPDEST DUP2 ADD PUSH1 0x20 DUP6 LT ISZERO PUSH2 0x62C JUMPI DUP2 SWAP1 POP JUMPDEST PUSH2 0x640 PUSH2 0x638 DUP6 PUSH2 0x4FD JUMP JUMPDEST DUP4 ADD DUP3 PUSH2 0x5E0 JUMP JUMPDEST POP POP JUMPDEST POP POP POP JUMP JUMPDEST PUSH0 DUP3 DUP3 SHR SWAP1 POP SWAP3 SWAP2 POP POP JUMP JUMPDEST PUSH0 PUSH2 0x663 PUSH0 NOT DUP5 PUSH1 0x8 MUL PUSH2 0x648 JUMP JUMPDEST NOT DUP1 DUP4 AND SWAP2 POP POP SWAP3 SWAP2 POP POP JUMP JUMPDEST PUSH0 PUSH2 0x67B DUP4 DUP4 PUSH2 0x654 JUMP JUMPDEST SWAP2 POP DUP3 PUSH1 0x2 MUL DUP3 OR SWAP1 POP SWAP3 SWAP2 POP POP JUMP JUMPDEST PUSH2 0x694 DUP3 PUSH2 0x1E1 JUMP JUMPDEST PUSH8 0xFFFFFFFFFFFFFFFF DUP2 GT ISZERO PUSH2 0x6AD JUMPI PUSH2 0x6AC PUSH2 0x2BB JUMP JUMPDEST JUMPDEST PUSH2 0x6B7 DUP3 SLOAD PUSH2 0x453 JUMP JUMPDEST PUSH2 0x6C2 DUP3 DUP3 DUP6 PUSH2 0x602 JUMP JUMPDEST PUSH0 PUSH1 0x20 SWAP1 POP PUSH1 0x1F DUP4 GT PUSH1 0x1 DUP2 EQ PUSH2 0x6F3 JUMPI PUSH0 DUP5 ISZERO PUSH2 0x6E1 JUMPI DUP3 DUP8 ADD MLOAD SWAP1 POP JUMPDEST PUSH2 0x6EB DUP6 DUP3 PUSH2 0x670 JUMP JUMPDEST DUP7 SSTORE POP PUSH2 0x752 JUMP JUMPDEST PUSH1 0x1F NOT DUP5 AND PUSH2 0x701 DUP7 PUSH2 0x4EB JUMP JUMPDEST PUSH0 JUMPDEST DUP3 DUP2 LT ISZERO PUSH2 0x728 JUMPI DUP5 DUP10 ADD MLOAD DUP3 SSTORE PUSH1 0x1 DUP3 ADD SWAP2 POP PUSH1 0x20 DUP6 ADD SWAP5 POP PUSH1 0x20 DUP2 ADD SWAP1 POP PUSH2 0x703 JUMP JUMPDEST DUP7 DUP4 LT ISZERO PUSH2 0x745 JUMPI DUP5 DUP10 ADD MLOAD PUSH2 0x741 PUSH1 0x1F DUP10 AND DUP3 PUSH2 0x654 JUMP JUMPDEST DUP4 SSTORE POP JUMPDEST PUSH1 0x1 PUSH1 0x2 DUP9 MUL ADD DUP9 SSTORE POP POP POP JUMPDEST POP POP POP POP POP POP JUMP INVALID LOG2 PUSH5 0x6970667358 0x22 SLT KECCAK256 0xE ADD 0xAF BASEFEE 0xC2 DUP6 0xB2 BYTE CALLVALUE 0xA8 BALANCE 0xB5 PUSH10 0xFF6A4BD667944296411D RETURN PUSH6 0x827B999AFE44 0xAA PUSH5 0x736F6C6343 STOP ADDMOD SHR STOP CALLER "
		},
		"gasEstimates": {
			"creation": {
				"codeDepositCost": "387200",
				"executionCost": "infinite",
				"totalCost": "infinite"
			},
			"external": {
				"getAge()": "infinite",
				"name()": "infinite",
				"setName(string)": "infinite"
			}
		},
		"methodIdentifiers": {
			"getAge()": "967e6e65",
			"name()": "06fdde03",
			"setName(string)": "c47f0027"
		}
	},
	"abi": [
		{
			"inputs": [
				{
					"internalType": "string",
					"name": "_name",
					"type": "string"
				},
				{
					"internalType": "uint256",
					"name": "_age",
					"type": "uint256"
				}
			],
			"stateMutability": "nonpayable",
			"type": "constructor"
		},
		{
			"inputs": [],
			"name": "getAge",
			"outputs": [
				{
					"internalType": "uint256",
					"name": "",
					"type": "uint256"
				}
			],
			"stateMutability": "view",
			"type": "function"
		},
		{
			"inputs": [],
			"name": "name",
			"outputs": [
				{
					"internalType": "string",
					"name": "",
					"type": "string"
				}
			],
			"stateMutability": "view",
			"type": "function"
		},
		{
			"inputs": [
				{
					"internalType": "string",
					"name": "_name",
					"type": "string"
				}
			],
			"name": "setName",
			"outputs": [],
			"stateMutability": "nonpayable",
			"type": "function"
		}
	]
}